:1000000088C10000ACC10000AAC10000A8C1000066
:10001000A6C10000A4C10000A2C10000A0C1000050
:100020009EC100009CC100009AC1000098C1000060
:1000300096C100000C94330F92C1000090C10000E3
:100040008EC100008CC100008AC1000088C1000080
:1000500086C1000084C1000082C1000080C1000090
:100060007EC100007CC100007AC1000078C10000A0
:1000700076C1000074C1000072C1000070C10000B0
:100080006EC100006CC100006AC1000068C10000C0
:1000900066C1000064C1000062C1000060C10000D0
:1000A0005EC100005CC100005AC1000058C10000E0
:1000B00056C1000054C100000C94970F50C10000BD
:1000C0004EC100004CC100004AC1000048C1000000
:1000D00046C1000044C1000042C1000040C1000010
:1000E0003EC100003CC100003AC1000038C1000020
:1000F00036C1000034C1000032C1000030C1000030
:100100002EC100002CC100002AC1000028C100003F
:1001100026C1000024C1000022C1000020C100004F
:100120001EC100001CC100001AC1000018C100005F
:100130000C94650F14C1000012C1000010C1000032
:100140000EC100000CC100000AC1000008C100007F
:1001500006C1000004C1000002C1000000C100008F
:10016000FEC00000FCC00000FAC00000F8C00000A3
:10017000F6C00000F4C00000F2C00000F0C00000B3
:10018000EEC00000ECC00000EAC00000E8C00000C3
:10019000E6C00000E4C00000E2C00000E0C00000D3
:1001A000DFC00000DCC00000DAC000000C94C90F02
:1001B000D6C00000D4C00000D2C00000D0C00000F3
:1001C000CEC00000CCC00000CAC00000C8C0000003
:1001D000C6C00000C4C00000C2C00000C0C0000013
:1001E000BEC00000BCC00000BAC00000B8C0000023
:1001F000B6C000003406570776055707570757075C
:10020000D40657077006C90557075707B505BF0538
:100210006E616E00696E660000407A10F35A00A0AD
:10022000724E18090010A5D4E80000E876481700BF
:1002300000E40B54020000CA9A3B000000E1F505FF
:10024000000080969800000040420F000000A08649
:1002500001000000102700000000E803000000007B
:100260006400000000000A0000000000010000001F
:1002700000002C76D888DC674F0823DFC1DFAE5939
:10028000E1B1B796E5E3E453C63AE651997696E8CC
:10029000E6C28426EB898C9B62ED407C6FFCEFBC50
:1002A0009C9F40F2BAA56FA5F490055A2AF75C937B
:1002B0006B6CF9676DC11BFCE0E40D47FEF520E6B1
:1002C000B500D0ED902E0300943577050080841E94
:1002D000080000204E0A000000C80C333333330FEF
:1002E000986E12831141EF8D2114893BE65516CF8C
:1002F000FEE6DB18D1844B381BF77C1D901DA4BB98
:10030000E424203284725E228100C9F124ECA1E54C
:100310003D2711241FBECFEFCDBFDFE3DEBF00E0DE
:100320000CBF18BE19BE1ABE1BBE11E2A0E0B0E29F
:10033000EAE7FAE300E00BBF02C007900D92A83B8A
:10034000B107D9F71BBE21E2A8EBB1E201C01D92B3
:10035000A83FB207E1F70E94CB130C943B1D50CE8F
:100360001F920F920FB60F92112408B60F9218BE6B
:1003700009B60F9219BE0BB60F921BBE2F933F9377
:100380004F935F936F937F938F939F93AF93BF939D
:10039000EF93FF93E091C221F091C321309751F088
:1003A0008091A80682FF06C08091C0219091C12152
:1003B00019951FC0E091BE21F091BF21309751F0F7
:1003C0008091A80683FF06C08091BC219091BD2139
:1003D00019950FC0E091BA21F091BB21309749F0F7
:1003E0008091A80684FF05C08091B8219091B92121
:1003F000199581E08093AC06FF91EF91BF91AF9189
:100400009F918F917F916F915F914F913F912F912C
:100410000F900BBE0F9009BE0F9008BE0F900FBE3D
:100420000F901F901895CF93DF9300D01F92CDB7F8
:10043000DEB7F9014115510509F46EC03FB73C83A1
:10044000F8943C81F8946A32710581059105E9F4CC
:100450004093C2215093C321E093C021F093C12166
:10046000E0EAF6E081E081878285846082878FB749
:100470008B83F8949B81E2EBF6E08081887F808318
:10048000808180839FBF81E045C06B32710581050B
:100490009105E9F44093BE215093BF21E093BC2124
:1004A000F093BD21E0EAF6E081E0818782858860F3
:1004B00082878FB78A83F8949A81E3EBF6E0808194
:1004C000887F8083808180839FBF81E023C06C32DE
:1004D000710581059105E9F44093BA215093BB2140
:1004E000E093B821F093B921E0EAF6E081E081875A
:1004F0008285806182878FB78983F8949981E4EB44
:10050000F6E08081887F8083808180839FBF81E047
:1005100001C080E03FBF01C080E02496CDBFDEBFB8
:10052000DF91CF91089540E050E064E080EA96E0EA
:100530006ED0F89487E08093A20078940895CF93CA
:10054000DF9300D0CDB7DEB78FEF8093700080933C
:100550007100809372008093730080937400809385
:1005600075008093760061E081E490E00E94CA0DFE
:100570008091510084FD20C08091510081FD0DC00B
:100580008FB78983F8949981E0E5F0E080818260FB
:1005900080839FBF818181FFFDCF8FB78A83F894CD
:1005A0009A81E0E5F0E088E885838081806180833E
:1005B0009FBF818184FFFDCF64E080E490E00E94D2
:1005C000CA0D8FB78B83F8949B81E0E5F0E08081C2
:1005D0008E7F80839FBF2396CDBFDEBFDF91CF91FB
:1005E0000895CF93DF931F92CDB7DEB79FB799835E
:1005F000F8949981E82FF0E0E059FF4F60958081F1
:10060000682360839FBF0F90DF91CF910895CF93B0
:10061000DF93FC0120E030E0C62FD0E0DE01022EA7
:1006200002C0B595A7950A94E2F7A0FD508B2F5F05
:100630003F4F31962830310589F740FF0AC041FF0E
:1006400003C0FC01658302C0FC016683FC01618379
:1006500002C0FC016283DF91CF910895AF92BF92F7
:10066000CF92DF92EF92FF920F931F93CF93DF937E
:100670001F921F92CDB7DEB77B016A01A22EFC014B
:1006800000811181198221E030E0AE014F5F5F4FA0
:1006900062E9C8010E94EE0B8981F0FE1AC0C11404
:1006A000D10469F0F60140815181628173814093E8
:1006B0001B2050931C2060931D2070931E20AA20A5
:1006C00021F08160BB24B39405C08E7FBB24B3941A
:1006D00001C0B12CF3FE19C0C114D10469F0F601B8
:1006E000408151816281738140931F20509320206B
:1006F0006093212070932220AA2021F08260BB24E5
:10070000B39403C08D7FBB24B394F4FE19C0C1140D
:10071000D10469F0F6014081518162817381409377
:100720002320509324206093252070932620AA2014
:1007300021F08260BB24B39403C08D7FBB24B394AB
:10074000898321E030E0AE014F5F5F4F62E9C8016D
:100750000E942F0C1A8221E030E0AE014E5F5F4F05
:1007600062E9C8010E94EE0B8B2D0F900F90DF9174
:10077000CF911F910F91FF90EF90DF90CF90BF909E
:10078000AF9008950F931F93CF93DF9300D01F92E4
:10079000CDB7DEB7FC018A0180819181653031F0EF
:1007A000673009F1633009F094C075C022E030E091
:1007B000AE014F5F5F4F6CE80E94EE0B4A8150E044
:1007C000542F44272981422B052E000C660B770BF2
:1007D000F801408351836283738321E0029709F417
:1007E0007DC020E07BC024E030E0AE014F5F5F4F72
:1007F0006EE8F4D7F8012089222379F1298121FDBF
:1008000004C040E050E0BA0104C043E050E060E0C2
:1008100070E0F801408351836283738323FD04C039
:1008200040E050E0BA0104C043E050E060E070E016
:10083000F801448355836683778325FD04C040E037
:1008400050E0BA0104C043E050E060E070E0F8011D
:10085000408751876287738719C04A8150E060E002
:1008600070E0F80140835183628373834B8150E0D1
:1008700060E070E044835583668377834C8150E069
:1008800060E070E0408751876287738721E00497BA
:1008900029F120E023C0198221E030E0AE014F5F52
:1008A0005F4F6AE89BD78981482F42954F7050E08F
:1008B00060E070E0F80140835183628373838F703E
:1008C00090E0A0E0B0E084839583A683B78321E025
:1008D00005C080E092E88783908720E0822F2496ED
:1008E000CDBFDEBFDF91CF911F910F9108950F9380
:1008F0001F93CF93DF93CDB7DEB72797CDBFDEBF72
:100900008C0181E0F801868327E030E0AE014F5F83
:100910005F4F6781C80162D7F80116828581811116
:10092000BCC00E94AC0CE6E0F0E2608B718B828B65
:10093000938B108211828F818076803209F44EC0B1
:1009400018F4882341F0A9C0803409F447C08036E8
:1009500009F0A3C043C08A8190E0982F882729819D
:10096000822B2091CA213091CB2182179307B8F0B6
:10097000E6E0F0E220E030E120833183A0E0B0E067
:1009800084839583A683B783EBE1F0E26285738568
:100990000084F185E02D86E090E219957EC02091DB
:1009A000C8213091C9212817390708F476C0E6E03C
:1009B000F0E220E038E020833183A0E0B0E08483DF
:1009C0009583A683B783EBE1F0E2668177810480AB
:1009D000F581E02D86E090E219955FC020E031E0DE
:1009E0002093062030930720803239F481E090E094
:1009F00080930820909309200FC0803439F482E05E
:100A000090E0809308209093092006C083E090E056
:100A100080930820909309208B8181FD04C040E0E1
:100A200050E0BA0104C043E050E060E070E0409361
:100A30000A2050930B2060930C2070930D2083FDAF
:100A400004C040E050E0BA0104C043E050E060E080
:100A500070E040930E2050930F206093102070930D
:100A6000112085FD04C080E090E0DC0104C083E03B
:100A700090E0A0E0B0E08093122090931320A09328
:100A80001420B0931520EBE1F0E2628173810190B4
:100A9000F081E02D86E090E219952796CDBFDEBF6C
:100AA000DF91CF911F910F910895CF92DF92EF9236
:100AB000FF920F931F93CF93DF93CDB7DEB72C97A1
:100AC000CDBFDEBF9C01FC0100811181862F90E02B
:100AD000FC013E97EE30F10508F0E9C17A01D90139
:100AE0008827E650FF4F8F4F0C94E11914962D91F3
:100AF0003C911597FA0180818130E1F0823009F054
:100B0000DDC12032310559F4198621E030E0AE0113
:100B1000475F5F4F60E8C801A2D621E0E4C11A86B2
:100B200021E030E0AE01465F5F4F61E8C80197D633
:100B300021E0D9C12032310561F483E08B8721E0C7
:100B400030E0AE01455F5F4F60E8C80188D621E024
:100B5000CAC183E08C8721E030E0AE01445F5F4F83
:100B600061E8C8017CD621E0BEC1FA0160817181D3
:100B700021E040E050E0CD0171DD282FB4C1FA0141
:100B80006081718120E040E050E0CD0167DD282FD9
:100B9000AAC11996CD90DC901A97FA019181228111
:100BA0009B838081893009F447C08A3021F08830E6
:100BB00009F056C02DC0FFEFCF16DF0651F00CF440
:100BC00051C0C6010197039708F04CC0CA9480E059
:100BD00002C082E0C12CDC2CC80EC394F7018181D5
:100BE000888763E96D0D21E030E0AE01485F5F4F1B
:100BF000C80135D68D2D90E041E050E0BE016D5F1B
:100C00007F4F48966DD6D394DC10E8CF21E06BC1BE
:100C100099832A839093C8212093C92122E030E050
:100C2000AE014F5F5F4F68E9C80119D621E0029716
:100C300009F459C120E057C199832A839093CA21AE
:100C40002093CB2122E030E0AE014F5F5F4F66E999
:100C5000C80105D621E0029709F445C120E043C14F
:100C600020E041C120E03FC1FA018081893079F163
:100C70008A3021F0883009F023C120C019966D9187
:100C80007C911A976F3FFFEF7F0731F0CB010197FF
:100C9000039708F017C102C061E070E019826E5638
:100CA00021E030E0AE014F5F5F4FC80197D58981E9
:100CB00090E0F7018183928321E015C18091C821E2
:100CC0009091C921FA018183928321E00CC1809126
:100CD000CA219091CB21FA018183928321E003C143
:100CE000FA01E080F1801496CD90DC901597C5FE56
:100CF000F7C0E114F104E1F0F1E0EF16F10479F04E
:100D000082E0E816F10471F095E0E916F10469F06B
:100D1000EAE0EE16F10411F584E090E00BC081E00A
:100D200090E008C082E090E005C083E090E002C05F
:100D300080E090E0FC01EE0FFF1F8E0F9F1FFC0173
:100D4000E654FF4D82818F8321E030E0AE01495FA0
:100D50005F4F66E8C80183D521E0C3C0D0FCBAC0AC
:100D600020E0C1C043815481E416F506B9F402C005
:100D700080E090E0FC01EE0FFF1F8E0F9F1FFC0133
:100D8000E456FF4D82818E8321E030E0AE014A5F60
:100D90005F4F65E8C80163D521E0A5C00196339691
:100DA0008A309105F9F69FC0FA01408151814530A2
:100DB000510551F0E9ECF0E281E090E023813481CB
:100DC00024173507A9F402C080E090E01996ED9051
:100DD000FC901A97FC01EE0FFF1F8E0F9F1FFC0166
:100DE000E753FF4DD280FFEFEF16FF0669F507C00E
:100DF000019633968730910509F720E074C0198277
:100E000021E030E0AE014F5F5F4F62E8C801E6D4F9
:100E10008981807C8D299D2D990F990F990F892BA0
:100E20008B8321E030E0AE014D5F5F4F62E8C80187
:100E300016D5D98221E030E0AE014F5F5F4F63E805
:100E4000C8010DD521E04FC0C7010197029700F5F9
:100E5000198221E030E0AE014F5F5F4F62E8C801C8
:100E6000BDD48981EA94EF2819F4887FD82A05C077
:100E7000DD0CDD0CDD0C877CD82ADC8221E030E043
:100E8000AE014C5F5F4F62E8C801E9D421E02BC09E
:100E9000E3E0EE16F104C1F4DD8221E030E0AE01C2
:100EA0004B5F5F4F63E8C801DAD421E01CC080E0EB
:100EB00090E8F9018783908720E015C020E013C0F7
:100EC00020E011C020E00FC020E00DC0E114F104CB
:100ED00011F44ECF20E0ECE9F0E281E090E042CF67
:100EE00020E0D0FCF3CF822F2C96CDBFDEBFDF9168
:100EF000CF911F910F91FF90EF90DF90CF900895C9
:100F0000EF92FF920F931F93CF93DF9300D01F9226
:100F1000CDB7DEB7613039F020E230E0FC01278345
:100F2000308780E067C08C01FC01E080F1804230B6
:100F30005105A9F04330510501F14130510509F047
:100F400053C01C8221E030E0AE014C5F5F4F6FE880
:100F5000C70144D48C818093C42181E04BC01C82A2
:100F600021E030E0AE014C5F5F4F60E9C70136D44D
:100F70008C818093C52181E03DC01C8221E030E05E
:100F8000AE014C5F5F4F61E9C70128D48C8180932B
:100F9000C62143E050E064EC71E288E190E0A0D427
:100FA00043E050E0BE016F5F7F4F88E190E0ADD439
:100FB00043E050E0BE016F5F7F4F84EC91E20E94FE
:100FC000CD1A892B39F080E091E0F8018783908772
:100FD00080E010C023E030E0AE014F5F5F4F63E977
:100FE000C7013DD481E006C080E290E0F80187832C
:100FF000908780E02496CDBFDEBFDF91CF911F9117
:101000000F91FF90EF900895EF92FF920F931F932F
:10101000CF93DF93CDB7DEB72B97CDBFDEBF7C017B
:10102000FC01008111811C8221E030E0AE014C5FA7
:101030005F4F6AE8C801D2D38C81843909F08EC031
:1010400083E890E2F7018283938380E190E0F801E6
:10105000868F978F8CE887838091C72181110AC082
:1010600084E08B8721E030E0AE01455F5F4F60E8B0
:10107000C801F5D3F701848185FF14C083E0898717
:1010800021E030E0AE01475F5F4F60E8C801E7D381
:1010900082E08A8721E030E0AE01465F5F4F66E87C
:1010A000C801DDD3F7018481958190FF3AC00F2EEE
:1010B000F3E0FF2EF02DFD8221E030E0AE014B5F2A
:1010C0005F4F61E8C801CBD385E08E8321E030E03B
:1010D000AE014A5F5F4F65E8C801C1D38BED8F83D6
:1010E00021E030E0AE01495F5F4F62E8C801B7D34D
:1010F000F88621E030E0AE01485F5F4F63E8C80149
:10110000AED343E050E0BE016F5F7F4F88E190E0D7
:10111000FCD323E030E0AE014F5F5F4F63E9C801CD
:101120009ED38091C721811115C01C8221E030E03F
:10113000AE014C5F5F4F62E9C80191D3F801858130
:10114000811108C06085718582859385980147E784
:1011500054E006D481E08093C72101C080E02B9643
:10116000CDBFDEBFDF91CF911F910F91FF90EF9028
:1011700008950895CF92DF92EF92FF920F931F93FD
:10118000CF93DF93EC018B016A017901CB01EBD3A3
:10119000888399830C831D83EB86FC86009779F006
:1011A000DC019096ED91FC919197B601CE011995D5
:1011B000882329F081E08E831F82188605C080E095
:1011C00092E08F83988780E0DF91CF911F910F91FC
:1011D000FF90EF90DF90CF9008951F93CF93DF9310
:1011E000DC011296ED91FC9113970190F081E02DB6
:1011F000309731F0EA011995182F811108C00CC001
:1012000020E032E8FC012783308710E005C0A4D33A
:101210006C877D878E879F87812FDF91CF911F916C
:101220000895CF93DF9300D0CDB7DEB769834A83AB
:101230005B83DC011296ED91FC9113970280F381A0
:10124000E02D309731F0AE014F5F5F4F67E11995A8
:1012500006C020E032E8FC012783308780E0239637
:10126000CDBFDEBFDF91CF910895EF92FF920F9334
:101270001F93CF93DF931F921F92CDB7DEB76D30D0
:1012800009F4C5C08C016E3030F4693071F06A30F9
:1012900009F464C0F5C0623109F46AC0663109F42A
:1012A000C0C0613109F0ECC00AC0DC01ED91FC91D5
:1012B000808D918DFA018083918381E0F6C0FC01DD
:1012C000A281B381A63FFFEFBF0709F440C051964A
:1012D0006D917C91529761157105C9F11D968D91A3
:1012E0009C911E97009799F1FA01E080F180FB0133
:1012F00020813181E216F30699F407C033962081EC
:101300003181E216F30681F402C080E090E0898327
:101310009A831296ED91FC911397309751F417C070
:10132000FB01AC0180E090E001968417950731F74E
:101330000EC0AE014F5F5F4F61E1C8011995882370
:1013400031F0D801ED91FC91E08EF18EAEC080E2DB
:1013500090E0F8018783908780E0A7C0DC01ED91E1
:10136000FC91828D938DFA018083918381E09DC0F1
:10137000FC01A281B381A63FFFEFBF0709F440C083
:1013800053966D917C91549761157105C9F11F9623
:101390008D919C915097009799F1FA01E080F1802E
:1013A000FB0120813181E216F30699F407C03396E0
:1013B00020813181E216F30681F402C080E090E0E2
:1013C00089839A831296ED91FC911397309751F48B
:1013D00017C0FB01AC0180E090E001964817590767
:1013E00031F70EC0AE014F5F5F4F62E1C801199542
:1013F000882331F0D801ED91FC91E28EF38E55C037
:1014000080E290E0F8018783908780E04EC0DC01A5
:10141000ED91FC91848D958DFA018083918381E01B
:1014200044C0DC011296ED91FC9113970280F38188
:10143000E02D309741F0DA01ED90FC9066E11995CE
:10144000811108C00EC080E092E8F8018783908780
:1014500080E02BC0D801ED91FC91E48EF58E81E007
:1014600024C0F8018781908581159248E9F080E2D7
:1014700090E0D80117968D939C93189780E015C043
:10148000D8011296ED91FC9113970280F381E02D23
:10149000309719F0C801199508C080E092E8F8016A
:1014A0008783908780E001C080E00F900F90DF91EC
:1014B000CF911F910F91FF90EF9008950F931F937D
:1014C000CF93DF93CDB7DEB72997CDBFDEBF8C01B9
:1014D000FE01319689E0DF011D928A95E9F7498383
:1014E0005A836B837C839A01AB01220F331F441F05
:1014F000551F60E078E488EE91E00E94BF19DA01A0
:10150000C9010597A109B1098D839E83AF83B8876F
:101510000115110509F451C1003C110521F460E1E8
:1015200080E05FD84AC10034B4E01B0721F468E0D2
:1015300080E057D842C1011584E0180721F464E027
:1015400080E04FD83AC10038A1E01A0721F462E0E8
:1015500080E047D832C10115B1E01B0721F461E0FA
:1015600080E03FD82AC1003883E0180721F461E009
:1015700081E037D822C10039A3E01A0721F461E0E5
:1015800082E02FD81AC10115B2E01B0721F462E0F6
:1015900081E027D812C1003482E0180721F462E00C
:1015A00082E01FD80AC10115A3E01A0721F464E004
:1015B00081E017D802C10032B3E01B0721F464E0D8
:1015C00082E00FD8FAC0011588E0180721F461E025
:1015D00083E007D8F2C00115A9E01A0729F461E0F9
:1015E00084E00E94F102E9C00115BAE01B0729F46A
:1015F00061E085E00E94F102E0C001158BE0180770
:1016000029F461E086E00E94F102D7C00034A8E02E
:101610001A0729F462E083E00E94F102CEC0003490
:10162000B9E01B0729F462E084E00E94F102C5C022
:1016300000348AE0180729F462E085E00E94F10294
:10164000BCC00034ABE01A0729F462E086E00E94D7
:10165000F102B3C00039B8E01B0729F464E083E06D
:101660000E94F102AAC0003989E0180729F464E059
:1016700084E00E94F102A1C00039AAE01A0729F40F
:1016800064E085E00E94F10298C00039BBE01B07CE
:1016900029F464E086E00E94F1028FC0003C88E0FB
:1016A000180729F468E083E00E94F10286C0003C3C
:1016B000A9E01A0729F468E084E00E94F1027DC0E5
:1016C000003CBAE01B0729F468E085E00E94F102C3
:1016D00074C0003C8BE0180729F468E086E00E94A3
:1016E000F1026BC0003AA8E01A0729F460E183E038
:1016F0000E94F10262C0003AB9E01B0729F460E1E0
:1017000084E00E94F10259C0003A8AE0180729F4E7
:1017100060E185E00E94F10250C0003AABE01A0798
:1017200029F460E186E00E94F10247C0003BB8E086
:101730001B0729F460E283E00E94F1023EC0003BF7
:1017400089E0180729F460E284E00E94F10235C0C4
:10175000003BAAE01A0729F460E285E00E94F1024A
:101760002CC0003BBBE01B0729F460E286E00E942E
:10177000F10223C0003884E0180729F460E483E014
:101780000E94F1021AC00039A4E01A0729F460E4AB
:1017900084E00E94F10211C0003AB4E01B0729F472
:1017A00060E485E00E94F10208C0003B84E0180775
:1017B00021F460E486E00E94F102BE016F5F7F4F7A
:1017C000C80119D491E0811190E0892F2996CDBFED
:1017D000DEBFDF91CF911F910F910895EF92FF929D
:1017E0000F931F93CF93DF93CDB7DEB72B97CDBF6A
:1017F000DEBF8C01E22EF32EFE0131968BE0DF017D
:101800001D928A95E9F7D80113968C9113978983D5
:101810006A8381E090E08D839E834F835887298778
:101820003A8716968C9116978B8741E0BF011196E7
:101830008D919C911297F4D3F8018583811103C097
:101840008E2D9F2D02C080E090E02B96CDBFDEBF95
:10185000DF91CF911F910F91FF90EF900895EF923C
:10186000FF920F931F93CF93DF93CDB7DEB72B97E4
:10187000CDBFDEBF8C01E22EF32EFE0131968BE050
:10188000DF011D928A95E9F7D80113968C91139781
:1018900089836A8381E090E08D839E834F8358879C
:1018A00029873A8716968C9116978B8740E0BF015F
:1018B00011968D919C911297B3D3F8018583811174
:1018C00003C08E2D9F2D02C080E090E02B96CDBFEF
:1018D000DEBFDF91CF911F910F91FF90EF900895A0
:1018E0000F93CF93DF93DC01EB019A01E0ECF1E081
:1018F00097859923ECF3BD0180E090E001E0AE0113
:101900006CD1DF91CF910F910895CF93DF93DC01DC
:10191000EB019A01E0ECF1E097859923ECF3BD012E
:1019200080E090E0AE013CD1DF91CF91089504C0FA
:101930006150710981099109611571058105910550
:10194000B9F70895CF93DF93EB01D6D38883DF9166
:10195000CF910895C9C3089560E070E0CB01089568
:101960000C941302089520913720309138202823B9
:1019700039238217930719F080E090E0089587E2F9
:1019800090E208951F93CF93DF93CDB7DEB72797EB
:10199000CDBFDEBF0E949F026ED040E85AE166E0F4
:1019A00070E080EB94E08ADD182F80EA98E0809365
:1019B000EC219093ED218AEA9CE08093EA219093B8
:1019C000EB2182EA9CE08093E8219093E92183E077
:1019D0008D831E821F8280E092ECA1E0B0E08983BB
:1019E0009A83AB83BC8360E183E00E94F102BE0175
:1019F0006F5F7F4F80EA98E098D460E17DE089E2F4
:101A00009DE00E94E51A6BEA71E184E090E08FDFCF
:101A1000812F2796CDBFDEBFDF91CF911F91089513
:101A2000CF93DF931F92CDB7DEB78091EC219091D9
:101A3000ED21E091E821F091E921BE016F5F7F4F38
:101A400019958981082E000C990B0F90DF91CF9189
:101A50000895682F8091EC219091ED21E091EA2189
:101A6000F091EB21199599231CF081E090E0089505
:101A70008FEF9FEF089543E050E061E080E896E04B
:101A80000E94070343E050E062E080E896E00E9495
:101A9000070343E050E064E080E896E00E9407031B
:101AA00043E050E068E080E896E00E94070343E0EE
:101AB00050E060E180E896E00E94070343E050E0D8
:101AC00060E280E896E00E94070343E050E060E4B3
:101AD00080E896E00E94070343E050E060E880E879
:101AE00096E00E94070340E058E161E080E696E05E
:101AF0000E94070340E058E162E080E696E00E9421
:101B0000070340E058E164E080E696E00E940703A6
:101B100040E058E168E080E696E00E94070340E07C
:101B200058E160E180E696E00E94070340E058E15A
:101B300060E280E696E00E94070340E058E161E041
:101B400080EE97E00E94070340E058E162E080EEFB
:101B500097E00E94070343E050E068E080E496E0ED
:101B60000E94070340E050E064E080E496E00E94B9
:101B7000070343E050E068E080E696E00E94070338
:101B800040E050E064E080E696E00E9407030C9499
:101B9000930208951BBEFC0128ED24BF60830895C5
:101BA000EF92FF920F931F93CF93DF937A018901F6
:101BB000EB01D170232B51F0BE0181E0B3D0F701CE
:101BC00081937F01219601501109B1F7DF91CF91E7
:101BD0001F910F91FF90EF9008952F923F924F9297
:101BE0005F926F927F928F929F92AF92BF92CF92AD
:101BF000DF92EF92FF920F931F93CF93DF9300D06A
:101C00001F92CDB7DEB74B835C837901302E6B0119
:101C1000232B09F04FC065C05201332079F0B20187
:101C200081E080D08983B80181E07CD08A8389817A
:101C30009A81019629F02224239402C089829A82F3
:101C4000E114F10409F1AC14BD0479F481E0E81A5F
:101C5000F108EFEFCE1ADE0AEB81FC818191EB8374
:101C6000FC838983E114F10479F0C016D10661F494
:101C7000F1E0EF1AF1082FEFC21AD20AEB81FC81D2
:101C80008191EB83FC838A8349815A81C301B2012C
:101C90000F940F00F2E04F0E511C611C711C0E5F7F
:101CA0001F4F013022E0120709F0B6CFE114F10412
:101CB00029F40AC0212C88248A94982C01E010E091
:101CC000412C512C3201A8CF222059F0E0ECF1E058
:101CD00087858823ECF348E160E070E0CB010F9446
:101CE0000000E0ECF1E087858823ECF34AE160E056
:101CF00070E0CB010F9400002496CDBFDEBFDF91D2
:101D0000CF911F910F91FF90EF90DF90CF90BF90F8
:101D1000AF909F908F907F906F905F904F903F908B
:101D20002F9008954091CA01E62FF72F8093CA01A2
:101D300084914093CA010895CF93DF93E091CC2121
:101D4000F091CD21848183FF08C08860848383E083
:101D5000838386EF8093D62183C0982F947131F0CE
:101D600083E083838FEF8093D6217AC086FF43C0C0
:101D7000CCECD1E2AA81BB818C819D8114962D91FE
:101D80003C911597821793076CF49C012F5F3F4F8E
:101D90002093D0213093D121A80FB91F11968C9197
:101DA00087835EC08091D2219091D32118962D9186
:101DB0003C91199782179307C8F42091D4212223CC
:101DC00021F08681816086834BC016962D913C91CF
:101DD0001797AC014F5F5F4F4093D2215093D321AF
:101DE000D901A80FB91F8C9187833AC083E0838300
:101DF0001092D62135C0882384F5ACECB1E212965E
:101E0000CD91DC91139716968D919C91179728850B
:101E1000398582179307D8F46E817F819C012F5FEB
:101E20003F4F2093D2213093D3214781DB01A80F6C
:101E3000B91F4C93888599852817390718F482E0D3
:101E400083830EC087E083831092D62109C083E08C
:101E5000838389EF8093D62103C08BEF8093D621B3
:101E6000DF91CF9108951F920F920FB60F92112418
:101E700008B60F9218BE09B60F9219BE0BB60F9294
:101E80001BBE2F933F934F935F936F937F938F93DB
:101E90009F93AF93BF93EF93FF934EDFFF91EF912B
:101EA000BF91AF919F918F917F916F915F914F9172
:101EB0003F912F910F900BBE0F9009BE0F9008BE5F
:101EC0000F900FBE0F901F9018951F920F920FB694
:101ED0000F92112408B60F9218BE09B60F9219BEC0
:101EE0000BB60F921BBE2F933F934F935F936F934D
:101EF0007F938F939F93AF93BF93EF93FF931CDFD9
:101F0000FF91EF91BF91AF919F918F917F916F91D1
:101F10005F914F913F912F910F900BBE0F9009BE93
:101F20000F9008BE0F900FBE0F901F9018951F9234
:101F30000F920FB60F92112408B60F9218BE09B671
:101F40000F9219BE0BB60F921BBE2F933F934F9368
:101F50005F936F937F938F939F93AF93BF93EF9311
:101F6000FF93EADEFF91EF91BF91AF919F918F9127
:101F70007F916F915F914F913F912F910F900BBE89
:101F80000F9009BE0F9008BE0F900FBE0F901F90CC
:101F900018951F920F920FB60F92112408B60F9248
:101FA00018BE09B60F9219BE0BB60F921BBE2F9327
:101FB0003F934F935F936F937F938F939F93AF93D1
:101FC000BF93EF93FF93B8DEFF91EF91BF91AF9175
:101FD0009F918F917F916F915F914F913F912F9141
:101FE0000F900BBE0F9009BE0F9008BE0F900FBE52
:101FF0000F901F901895FC01DB0114968C9185833E
:1020000088EB818381E08483ECECF1E21186128617
:10201000E0EAF0E0828182608283789480E0089533
:10202000CF93DF931F92CDB7DEB79C01FB01892BC5
:1020300009F451C0309709F450C092858091D521A0
:10204000882319F09923F1F34AC08FB78983F89454
:102050008981ACECB1E291E019969C93199790E8D4
:102060001A969C931A978FBF2D933C9311971296B3
:102070006D937C93139714961D921C921597169648
:102080001D921C92179718964C938081880F64813B
:102090007581672B11F4411103C0F901868303C0D8
:1020A0008160F9018683ECECF1E292859038E9F3E6
:1020B000F90184818370813049F0ACECB1E2ED919B
:1020C000FC911197848183708130C9F7ECECF1E2C7
:1020D0008285118605C088EF03C088EF01C086EFB6
:1020E0000F90DF91CF910895FC01918195FFFDCF75
:1020F000608380E090E00895FC0191819923ECF7E2
:10210000808108954F925F926F927F928F929F92FB
:10211000AF92BF92EF92FF920F931F93CF937C01E8
:102120004A015B0128013901FC01848182FF16C04C
:10213000D901C801689412F8B695A7959795879527
:102140001694D1F7B901A801032E36E1769567956B
:10215000579547953A95D1F7302D15C0D901C8014B
:10216000689413F8B695A795979587951694D1F727
:10217000B901A801032E37E17695679557954795E4
:102180003A95D1F7302D88159905AA05BB0508F4B5
:10219000A6C084169506A606B70608F4A2C0F701E5
:1021A000848182FD04C0880C991CAA1CBB1CC3013D
:1021B000B201A50194010E94BF192F3F31054105CD
:1021C000510508F490C08FEF90E0A0E0B0E0C9EFB7
:1021D00005C0281739074A075B0758F0880F991F71
:1021E000AA1FBB1FCD3F0CF48160CF5FC73089F7BA
:1021F0004FC0CC230CF04CC0D501C401880F991FEF
:10220000AA1FBB1F880F991FAA1FBB1F880F991FEA
:10221000AA1FBB1F481A590A6A0A7B0ACE3FF4F468
:102220008DEF9FEF8C1B9109C7FD939504C0440C63
:10223000551C661C771C8A95D2F7D501C401B6954A
:10224000A79597958795BC01CD01640D751D861DD9
:10225000971DA50194010E94BF1937C083E08C0F20
:10226000A501940104C0220F331F441F551F8A95F6
:10227000D2F7DA01C901B695A79597958795BC0164
:10228000CD01640D751D861D971D0E94BF191DC0CF
:1022900083E08C0FA501940104C0220F331F441F5B
:1022A000551F8A95D2F7DA01C901B695A79597957A
:1022B0008795BC01CD01640D751D861D971D0E947B
:1022C000BF192150310941095109832F8F70C295DF
:1022D000C07FC82BF701C783268381E018C080E048
:1022E00016C080E014C0D501C401880F991FAA1F31
:1022F000BB1F880F991FAA1FBB1F880F991FAA1FFA
:10230000BB1F481A590A6A0A7B0AC9EF89CFCF91C5
:102310001F910F91FF90EF90BF90AF909F908F9083
:102320007F906F905F904F9008950F931F93CF937E
:10233000DF93EC018B01009709F45DC1803C9105AE
:1023400029F460E180E00E94F10255C1C03484E0CC
:10235000D80729F468E080E00E94F1024CC1C11561
:10236000E4E0DE0729F464E080E00E94F10243C16A
:10237000C038F1E0DF0729F462E080E00E94F1025A
:102380003AC1C11581E0D80729F461E080E00E94DC
:10239000F10231C1C038E3E0DE0729F461E081E0F9
:1023A0000E94F10228C1C039F3E0DF0729F461E09F
:1023B00082E00E94F1021FC1C11582E0D80729F412
:1023C00062E081E00E94F10216C1C034E2E0DE0763
:1023D00029F462E082E00E94F1020DC1C115F3E030
:1023E000DF0729F464E081E00E94F10204C1C032F9
:1023F00083E0D80729F464E082E00E94F102FBC088
:10240000C115E8E0DE0729F461E083E00E94F102F3
:10241000F2C0C115F9E0DF0729F461E084E00E9411
:10242000F102E9C0C1158AE0D80729F461E085E02E
:102430000E94F102E0C0C115EBE0DE0729F461E083
:1024400086E00E94F102D7C0C034F8E0DF0729F42B
:1024500062E083E00E94F102CEC0C03489E0D80778
:1024600029F462E084E00E94F102C5C0C034EAE0D1
:10247000DE0729F462E085E00E94F102BCC0C034AE
:10248000FBE0DF0729F462E086E00E94F102B3C0BE
:10249000C03988E0D80729F464E083E00E94F102A3
:1024A000AAC0C039E9E0DE0729F464E084E00E94B4
:1024B000F102A1C0C039FAE0DF0729F464E085E049
:1024C0000E94F10298C0C0398BE0D80729F464E07B
:1024D00086E00E94F1028FC0C03CE8E0DE0729F4EC
:1024E00068E083E00E94F10286C0C03CF9E0DF07AB
:1024F00029F468E084E00E94F1027DC0C03C8AE0DB
:10250000D80729F468E085E00E94F10274C0C03C5D
:10251000EBE0DE0729F468E086E00E94F1026BC080
:10252000C03AF8E0DF0729F460E183E00E94F1029D
:1025300062C0C03A89E0D80729F460E184E00E94D3
:10254000F10259C0C03AEAE0DE0729F460E185E013
:102550000E94F10250C0C03AFBE0DF0729F460E1BD
:1025600086E00E94F10247C0C03B88E0D80729F40A
:1025700060E283E00E94F1023EC0C03BE9E0DE077A
:1025800029F460E284E00E94F10235C0C03BFAE029
:10259000DF0729F460E285E00E94F1022CC0C03B15
:1025A0008BE0D80729F460E286E00E94F10223C0A4
:1025B000C038E4E0DE0729F460E483E00E94F10221
:1025C0001AC0C039F4E0DF0729F460E484E00E9417
:1025D000F10211C0C03A84E0D80729F460E485E034
:1025E0000E94F10208C0C03BE4E0DE0721F460E491
:1025F00086E00E94F1028D818F738D83F8019581B1
:102600008481892B9681911198E0892B8D83F80123
:10261000408151816281738100E018E428EE31E04D
:10262000CE0170DD9C8198609C839C8190619C832D
:10263000DF91CF911F910F91089504C061507109EE
:10264000810991096115710581059105B9F7089511
:10265000EF92FF920F931F93CF93DF9316161706F7
:102660009CF4EC018C01060F171F0F2EFEEEEF2ECF
:10267000F1E2FF2EF02D8991F7016281738190E0E4
:10268000EED7C017D107B9F76BEA79E280E090E0A6
:10269000D4DFDF91CF911F910F91FF90EF900895BC
:1026A0000F931F93CF93DF93CDB7DEB76097CDBF66
:1026B000DEBF9FEF99839AE59A83E0E1F0E0EB8338
:1026C000FC8395E09D838E834F83588769877A8743
:1026D0000B871C872D873E871F8686E0888B60E1ED
:1026E00070E0CE010196B4DF6096CDBFDEBFDF9112
:1026F000CF911F910F9108958F929F92AF92BF92A9
:10270000CF92DF92EF92FF920F931F93CF93DF93BD
:10271000CDB7DEB76897CDBFDEBF9FEF99839AE54F
:102720009A83E8E1F0E0EB83FC8395E09D838E8360
:102730004F83588769877A870B871C872D873E8749
:10274000CF86D88AE98AFA8A8B8A9C8AAD8ABE8A21
:102750001F8A86E0888F68E170E0CE01019678DFFD
:102760006896CDBFDEBFDF91CF911F910F91FF9093
:10277000EF90DF90CF90BF90AF909F908F90089593
:1027800004C06150710981099109611571058105C4
:102790009105B9F70895CF93DF93CDB7DEB7C85849
:1027A000D109CDBFDEBFEED820E030E040E050E000
:1027B00060E270E0CE0101960E94BA0820E030E0AD
:1027C00040E050E060E071E0CE010E960E94BA0851
:1027D00088859985892B21F48D899E89892B21F003
:1027E0008EED90E278D7FFCF8AE090E0C957DF4FB7
:1027F00088839983C758D040AE0149575F4F66E13F
:10280000CE0101960E943509811103C08CEF90E240
:1028100062D784E690E0CB57DF4F88839983C55811
:10282000D040AE014B575F4F66E1CE010E960E943D
:102830003509811103C085E291E24DD78FEF9FEFFB
:102840008F8B988F44E650E06AE0CE010E960E948E
:10285000110982E390E0CD57DF4F88839983C358F5
:10286000D040AE014D575F4F64E1CE010E960E94FD
:10287000350988E0809385068091680680FF15C041
:102880000F2EF0E8CF2EF6E0DF2EF02DFF24F3948C
:1028900000E616E0F601F7826BEA71E184E090E071
:1028A0006FDFF801808580FDF5CF81E0809385069C
:1028B000E0E6F6E0808580FFFDCF66246A94EC9622
:1028C0006FAEEC970F2EFAE57F2EF02DED967FAED2
:1028D000ED976894882483F8912CEF968EAE9FAE86
:1028E000EF9711E0C158DF4F1883CF57D04003E076
:1028F000C058DF4F0883C058D040CF57DF4F1882F1
:10290000C158D0400F2EF6E0CF2EF02DCE57DF4F1E
:10291000C882C258D04068E070E0CE0185589F4F11
:1029200097DE2E966FAE2E972F967FAE2F976296DC
:102930000FAF629780E492E4AFE0B0E067968CAFAF
:102940009DAFAEAFBFAF679786E290E061968EAF66
:102950009FAF6197E396CFAEE397E2961FAEE29703
:102960006B8E7C8E84E08F8F22E330E02D8F3E8F44
:102970008AA31BA32D96CFAE2D972C961FAE2C9716
:1029800063961FAF639768961FAF68970F2EFDE49D
:10299000AF2EB12CF02DAC0EBD1EFBE0AF0EB11C66
:1029A0008EE0E2E5F1E2D50101900D928A95E1F722
:1029B00066E270E0CE01835B9F4F4ADE18A319A345
:1029C0001CA21DA21EA21FA284EC99E0A0E0B0E010
:1029D00088A799A7AAA7BBA78CE498E78CA79DA76F
:1029E0001EA60F2EFBE1EF2EF12CF02DEC0EFD1E9E
:1029F00085E2E80EF11C81E49CE422968EAF9FAF45
:102A0000229783E590E0F7018283938362E370E08D
:102A1000CE014B961DDE6894DD24D1F86396DFAEBF
:102A2000639768960FAF68978AE0E0E6F1E2D50118
:102A300001900D928A95E1F766E270E0CE01835B2A
:102A40009F4F06DED8A219A382E390E0A0E0B0E099
:102A50008CA39DA3AEA3BFA386E990E0A0E0B0E065
:102A600088A799A7AAA7BBA787E0EAE6F1E2DE015B
:102A70009C9601900D928A95E1F788E0E1E7F1E2FA
:102A8000D70101900D928A95E1F762E370E0CE01E3
:102A90004B96DEDDD9A288E0E9E7F1E2D7010190AB
:102AA0000D928A95E1F762E370E0CE014B96D0DD9E
:102AB00009A388E0E1E8F1E2D70101900D928A953F
:102AC000E1F762E370E0CE014B96C2DD63960FAF93
:102AD000639768960FAF689784E1E9E8F1E2D50162
:102AE00001900D928A95E1F766E270E0CE01835B7A
:102AF0009F4FAEDD08A319A31CA21DA21EA21FA2F8
:102B000085E090E0A0E0B0E088A799A7AAA7BBA7BE
:102B10008AE0E0E6F1E2DE019C9601900D928A9552
:102B2000E1F789E0EDE9F1E2D70101900D928A9594
:102B3000E1F762E370E0CE014B968ADDD9A289E02D
:102B4000E6EAF1E2D70101900D928A95E1F762E39E
:102B500070E0CE014B967CDD09A389E0EFEAF1E25B
:102B6000D70101900D928A95E1F762E370E0CE0102
:102B70004B966EDDE4966FAEE497E5967FAEE597F3
:102B8000E7968EAE9FAEE797E896DFAEE897E996B8
:102B90001FAFE997EA961FAEEA97EB96CFAEEB9799
:102BA00068E070E0CE018D589F4F52DD332433949E
:102BB000232C0F2EF7ED6F2EF1E27F2EF02D2092B9
:102BC0008706F301108A49E450E265E0CE010196E0
:102BD0000E94ED080F2EF9E44F2EF0E25F2EF02D4B
:102BE000F2010081118122813381448555856685FA
:102BF0007785832D55DD61E878E381E090E0C0DDE5
:102C0000A30167E0CE010E960E94ED08F3018084D7
:102C10009184A284B384C480D580E680F78000814B
:102C2000118122813381F20144855585668577853E
:102C300082E062DD61E878E381E090E0A1DDF3010C
:102C4000308AA30167E0CE010E960E94ED08F301E1
:102C500080849184A284B384C480D580E680F78088
:102C60000081118122813381F20144855585668579
:102C7000778583E041DDA3CF2F923F924F925F9201
:102C80006F927F928F929F92AF92BF92CF92DF927C
:102C9000EF92FF920F931F93CF93DF93CDB7DEB7E1
:102CA0006097CDBFDEBF7C011B016A01FC0116826B
:102CB0001782838181FF2AC39E012F5F3F4F390115
:102CC000F7019381F10193FD859193FF81911F019C
:102CD000882309F417C3853239F493FD859193FF56
:102CE00081911F01853231F4B70190E0B8D45601CB
:102CF0006501E6CF10E0512C912CFFE1F915D8F0D9
:102D00008B3279F038F4803279F08332A1F4F92DE6
:102D1000F0612EC08D3261F0803369F4292D21607D
:102D20002DC0392D3260932E892D8460982E2AC0B3
:102D3000E92DE86015C097FC2DC020ED280F2A3042
:102D400088F496FE06C03AE0139F200D1124122F3E
:102D500019C08AE0589E200D1124522EE92DE06200
:102D60009E2E10C08E3231F496FCCCC2F92DF06448
:102D70009F2E08C08C3621F4292D2068922E02C087
:102D8000883641F4F10193FD859193FF81911F01F4
:102D90008111B3CF9BEB980F933020F4992D906164
:102DA000805E07C09BE9980F933008F059C1992DB8
:102DB0009F7E96FF16E09F73992E853619F49064D6
:102DC000992E08C0863621F4392F3068932E02C020
:102DD0001111115097FE07C01C3350F44424439442
:102DE000410E27E00BC0183038F027E017E005C08F
:102DF00027E09CE3492E02C0212F412C560184E09C
:102E0000A80EB11CF6016081718182819381042D2D
:102E1000A301E0D26C01F981FC87F0FF02C0F3FF4F
:102E200006C091FC06C092FE06C000E205C00DE29D
:102E300003C00BE201C000E08C858C7019F0011119
:102E400043C280C297FE10C04C0CFC85F4FF04C046
:102E50008A81813309F44A94141474F528E0241506
:102E600078F588E0482E2CC096FC2AC0812F90E08F
:102E70008C159D059CF03CEFC3163FEFD30674F014
:102E8000892D8068982E0AC0E2E0F0E0EC0FFD1F6B
:102E9000E10FF11D8081803319F411501111F4CF2D
:102EA00097FE0EC044244394410E812F90E0C81633
:102EB000D9062CF41C1904C04424439401C010E02A
:102EC00097FE06C01C141D0434F4C601019605C00B
:102ED00085E090E002C081E090E0011101961123AD
:102EE00031F0212F30E02F5F3F4F820F931F252DB0
:102EF00030E08217930714F4581A01C0512C892D21
:102F0000897041F4552031F0B70180E290E0A7D3F9
:102F10005A94F8CF002321F0B701802F90E09FD37F
:102F200093FC08C0552031F0B70180E390E097D3BF
:102F30005A94F8CF97FE4AC04601D7FE02C0812CB2
:102F4000912CC60188199909F301E80FF91FED8743
:102F5000FE879601241931092F87388B012F10E045
:102F60001195019511093FEF8316930621F4B701DE
:102F70008EE290E074D3C814D9044CF08F85988900
:102F80008815990524F4ED85FE85818101C080E3D3
:102F9000F1E08F1A91082D853E852F5F3F4F2D87D9
:102FA0003E878016910624F0B70190E058D3DBCF1E
:102FB000C814D90441F49A81963320F4953319F456
:102FC0003C8534FF81E3B70190E048C08A818133BA
:102FD00019F09C859F7E9C87B70190E040D311112A
:102FE00005C094FC16C085E690E015C0B7018EE2DE
:102FF00090E035D31E5F82E001E0080FF301E80F97
:10300000F11D8081B70190E02AD3802F0113F4CF06
:10301000E8CF85E490E0B70122D3D7FC06C0C11405
:10302000D10441F4EC85E4FF05C0D194C194D108EA
:103030008DE201C08BE2B70190E011D380E32AE07A
:10304000C216D1042CF08F5FFAE0CF1AD108F7CF67
:10305000B70190E004D3B701C601C09600D349C1BF
:10306000833631F0833779F0833509F052C01FC0C1
:10307000560132E0A30EB11CF6018081898301E084
:1030800010E0630111C05601F2E0AF0EB11CF60171
:10309000C080D18096FE03C0612F70E002C06FEF48
:1030A0007FEFC60187D28C01F92DFF7713C056013F
:1030B00022E0A20EB11CF601C080D18096FE03C0B2
:1030C000612F70E002C06FEF7FEFC6015BD28C0111
:1030D000F92DF0689F2EF3FD18C0852D90E008179C
:1030E000190798F4B70180E290E0B9D25A94F5CF6D
:1030F000F60197FC859197FE81916F01B70190E0F1
:10310000AED251105A94015011090115110581F7E1
:10311000F0C0843611F0893659F5560197FE09C082
:1031200024E0A20EB11CF60160817181828193813D
:103130000AC0F2E0AF0EB11CF60160817181072E6A
:10314000000C880B990BF92DFF769F2E97FF09C075
:1031500090958095709561957F4F8F4F9F4FF06848
:103160009F2E2AE030E0A301E6D2C82EC6183EC04A
:10317000092D853721F40F7E2AE030E01DC0097F3C
:103180008F3691F018F4883559F0BCC0803719F0AB
:10319000883711F0B7C0006104FF09C0046007C0A0
:1031A00094FE08C0066006C028E030E005C020E1BB
:1031B00030E002C020E132E0560107FF09C084E0A0
:1031C000A80EB11CF601608171818281938108C0D3
:1031D000F2E0AF0EB11CF6016081718180E090E0F9
:1031E000A301A9D2C82EC6180F77902E96FE0BC049
:1031F000092D0E7FC11650F494FE0AC092FC08C03F
:10320000092D0E7E05C0DC2C092D03C0DC2C01C06D
:10321000D12E04FF0DC0FE01EC0DF11D8081803325
:1032200011F4097E09C002FF06C0D394D39404C0F0
:10323000802F867809F0D39403FD10C000FF06C0EC
:103240001C2DD51478F4150D1D190CC0D51450F48F
:10325000B70180E290E003D2D394F8CFD51410F4F4
:103260005D1801C0512C04FF0FC0B70180E390E04E
:10327000F6D102FF16C001FD03C088E790E002C04E
:1032800088E590E0B7010CC0802F867851F001FFEF
:1032900002C08BE201C080E207FD8DE2B70190E041
:1032A000DED1C11630F4B70180E390E0D8D11150DF
:1032B000F8CFCA94F301EC0DF11D8081B70190E0C5
:1032C000CED1C110F6CF15C0F4E0F51550F584E06D
:1032D000581A93FE1EC0011125C02C8523FF27C05C
:1032E00000E112E0392D3071932EF80184918111A3
:1032F00021C0552009F4FCCCB70180E290E0AFD1A9
:103300005A94F7CFF7018681978123C08FEF9FEF03
:1033100020C0B70180E290E0A2D15A945110F9CFB9
:10332000DACF512CB701802F90E099D1D6CF04E1AC
:1033300012E0D8CF91108052B70190E090D10F5F8A
:103340001F4FD3CF23E0251510F483E0C1CF512CBC
:10335000C4CF6096CDBFDEBFDF91CF911F910F919B
:10336000FF90EF90DF90CF90BF90AF909F908F90A5
:103370007F906F905F904F903F902F900895A1E2C3
:103380001A2EAA1BBB1BFD010DC0AA1FBB1FEE1FDF
:10339000FF1FA217B307E407F50720F0A21BB30B2A
:1033A000E40BF50B661F771F881F991F1A9469F7A6
:1033B00060957095809590959B01AC01BD01CF0102
:1033C0000895EE0FFF1F881F8BBF0790F691E02D29
:1033D0001BBE1994283008F027E03327DA01990F33
:1033E000311D87FD916000966105710539F43260E9
:1033F0002E5F3D9330E32A95E1F708959F3F30F02B
:1034000080387105610509F03C5F3C5F3D93913068
:1034100008F08068911DDF93CF931F930F93FF9265
:10342000EF92192F987F9695E92F96959695E90F2B
:10343000FF27EE58FD4F99273327EE24FF24A701DD
:10344000E70105900894079428F4360FE71EF81E4C
:10345000491F511D660F771F881F991F0694A1F7FA
:103460000590079428F4E70EF81E491F561FC11D4A
:10347000770F881F991F661F0694A1F70590079480
:1034800028F4F80E491F561FC71FD11D880F991F1A
:10349000661F771F0694A1F70590079420F4490F43
:1034A000561FC71FD81F990F661F771F881F0694C6
:1034B000A9F784911095177041F0D695C795579547
:1034C0004795F794E7941A95C1F7E8E1F2E068941C
:1034D0001590159135916591959105907FE27395C1
:1034E000E118F10A430B560BC90BD009C0F7E10CE8
:1034F000F11E431F561FC91FD01D7EF4703311F4F7
:103500008A95E6CFE894015030F0080F0AF40027BE
:10351000021708F4202F2395022F7A3328F079E33D
:103520007D932A95E9F710C07D932A9589F6069434
:1035300097956795379517951794E118F10A430BFE
:10354000560BC90BD00998F023957E9173957A3369
:1035500008F070E37C932013B8F77E9170617D933F
:1035600030F0839571E37D9370E32A95E1F71124A0
:10357000EF90FF900F911F91CF91DF91992787FDD9
:1035800090950895FC010590615070400110D8F7A6
:10359000809590958E0F9F1F0895FB01DC0104C05C
:1035A0008D910190801921F441505040C8F7881B3B
:1035B000990B0895FC016150704001900110D8F7FB
:1035C000809590958E0F9F1F08950F931F93CF9313
:1035D000DF93009731F46115710519F480E090E0F4
:1035E00039C08B01EC016EE070E081E090E001D128
:1035F000FC01892B99F380E883830115110571F093
:103600000287138781E883838091EE219091EF21D7
:10361000892B21F4E093EE21F093EF212097C9F05C
:10362000C087D1878381826083838091F0219091CC
:10363000F121892B71F4E093F021F093F121809135
:10364000F2219091F321892B21F4E093F221F09360
:10365000F321CF01DF91CF911F910F9108950F9327
:103660001F93CF93DF93FB01238121FD03C08FEFD5
:103670009FEF2CC022FF16C04681578124813581DF
:103680004217530744F4A081B1819D012F5F3F4F42
:10369000208331838C93268137812F5F3F4F268390
:1036A000378314C08B01EC01FB010084F185E02D10
:1036B0001995892BE1F6D80116968D919C91179753
:1036C000019616968D939C931797CE01DF91CF911B
:1036D0001F910F9108950F931F93CF93DF93E09164
:1036E000F021F091F121238121FF1BC08C01D0E05A
:1036F000C0E0F80181918F016091F0217091F1217A
:10370000DB011896ED91FC911997882331F01995FA
:10371000892B79F3DFEFCFEFECCF8AE01995892B76
:1037200019F08FEF9FEF02C08D2F9C2FDF91CF916B
:103730001F910F910895FA01AA27283051F12031E5
:1037400081F1E8946F936E7F6E5F7F4F8F4F9F4F35
:10375000AF4FB1E03ED0B4E03CD0670F781F891F77
:103760009A1FA11D680F791F8A1F911DA11D6A0F45
:10377000711D811D911DA11D20D009F468943F91F8
:103780002AE0269F11243019305D3193DEF6CF01F7
:103790000895462F4770405D4193B3E00FD0C9F7BD
:1037A000F6CF462F4F70405D4A3318F0495D31FD2A
:1037B0004052419302D0A9F7EACFB4E0A69597957D
:1037C000879577956795BA95C9F700976105710553
:1037D00008959B01AC010A2E06945795479537959D
:1037E0002795BA95C9F7620F731F841F951FA01DF7
:1037F00008950F931F93CF93DF93869F8001879F38
:10380000100D969F100D1124C8010DD0EC010097EA
:1038100021F0A80160E070E027D1CE01DF91CF91C7
:103820001F910F9108950F931F93CF93DF938230D1
:10383000910510F482E090E0E091F621F091F721FB
:1038400020E030E0A0E0B0E0309719F140815181F4
:103850000281138148175907C8F08417950769F446
:10386000109731F012960C93129713961C9327C061
:103870000093F6211093F72122C02115310519F08C
:103880004217530718F49A01BD01EF01DF01F80157
:10389000DBCF21153105F9F0281B390B2430310518
:1038A00080F48A819B816115710521F0FB0182837F
:1038B000938304C08093F6219093F721FE01329602
:1038C00044C0FE01E20FF31F81939193225031090E
:1038D000288339833AC02091F4213091F521232B9C
:1038E00041F420910220309103202093F421309361
:1038F000F52120910020309101202115310541F45E
:103900002DB73EB74091042050910520241B350B64
:10391000E091F421F091F521E217F307A0F42E1BBA
:103920003F0B2817390778F0AC014E5F5F4F241723
:10393000350748F04E0F5F1F4093F4215093F52157
:103940008193919302C0E0E0F0E0CF01DF91CF914D
:103950001F910F910895CF93DF93009709F481C0D1
:10396000FC01329712821382A091F621B091F721C7
:10397000109781F420813181820F931F2091F421CF
:103980003091F5212817390751F5E093F421F09390
:10399000F52167C0ED0120E030E0CE17DF0740F4ED
:1039A0004A815B819E0141155105F1F0EA01F5CF95
:1039B000C283D38340815181840F951FC817D907D3
:1039C00059F488819981840F951F02968083918391
:1039D0008A819B81828393832115310529F4E093A9
:1039E000F621F093F7213DC0E901EA83FB83499179
:1039F0005991C40FD51FEC17FD0761F480819181A7
:103A0000840F951F0296E9018883998382819381AF
:103A10008A839B83E0E0F0E012968D919C9113974E
:103A2000009719F0FD01DC01F7CF8D919C91119762
:103A30009D012E5F3F4F820F931F2091F421309103
:103A4000F5212817390769F4309729F41092F621E7
:103A50001092F72102C012821382A093F421B09336
:103A6000F521DF91CF910895DC0101C06D934150A4
:0A3A70005040E0F70895F894FFCFEE
:103A7A000000F82120000000000000000000000003
:103A8A000000000000000000000001B9080000B9B1
:103A9A00080000B908000001B00438000000002A3C
:103AAA00000000FFFF00002001FF00FF00FF0000F0
:103ABA0000000000000000040800000000000000F0
:103ACA000000000000000000000153464837373765
:103ADA003020416D6269656E74204C696768742094
:103AEA00262050726F78696D6974792053656E73F8
:103AFA006F7200C20355052E0380070000000009FB
:103B0A00000000000000000003005A200000090124
:103B1A0000080200070500060A00050E000414004A
:103B2A0003210002320001640000000004010003C6
:103B3A000200020500010A00000500000A00011443
:103B4A000002320003640004960005C800060D5303
:103B5A00656E736F7220696E697469616C697A61E6
:103B6A0074696F6E206572726F722E004572726F81
:103B7A00722073657474696E67206C696768742053
:103B8A0073656E736F722073616D706C65207261FC
:103B9A0074652E0D004572726F72207365747469B4
:103BAA006E672070726F78696D6974792073656EBB
:103BBA00736F722073616D706C6520726174652E0B
:103BCA000D00416D6269656E745F4C6967687400C7
:103BDA0050726F78696D69747900436F756E74738A
:103BEA000049524C454420310049524C4544203248
:103BFA000049524C454420330050726F78696D6910
:103C0A007479205468726573686F6C640049522035
:103C1A004C45442031004952204C45442032004949
:083C2A0052204C4544203300F8
:020000022000DC
:100000009BB78BBFFB018091CA014093CA017DE978
:1000100070933400E8958093CA019BBF08952091A6
:10002000CF0127FDFCCF9BB78BBFFB018091CA019D
:1000300023E22093CA010A01E89511248093CA01A2
:040040009BBF0895C5
:00000001FF
