S01500004144435F4558414D504C4531302E737265637B
S1130000F9C000001BC1000019C1000017C10000A5
S113001015C1000013C1000011C100000FC1000090
S11300200DC100000BC1000009C1000007C10000A0
S113003005C1000003C1000001C10000FFC00000B1
S1130040FDC00000FBC00000F9C00000F7C00000C4
S1130050F5C00000F3C00000F1C00000EFC00000D4
S1130060EDC00000EBC00000E9C00000E7C00000E4
S1130070E5C00000E3C00000E1C00000DFC00000F4
S1130080DDC00000DBC00000D9C00000D7C0000004
S1130090D5C00000D3C00000D1C00000CFC0000014
S11300A0CDC00000CBC00000C9C00000C7C0000024
S11300B0C5C00000C3C00000C1C00000BFC0000034
S11300C0BDC00000BBC00000B9C00000B7C0000044
S11300D0B5C00000B3C00000B1C00000AFC0000054
S11300E0ADC00000ABC00000A9C00000A7C0000064
S11300F0A5C00000A3C00000A1C000009FC0000074
S11301009DC000009BC0000099C0000097C0000083
S113011095C0000093C0000091C00000D9C0000049
S11301208DC000008BC0000089C0000087C00000A3
S113013085C0000083C0000081C000007FC00000B3
S11301407DC000007BC0000079C0000077C00000C3
S113015075C0000073C0000071C000006FC00000D3
S11301606DC000006BC0000069C0000067C00000E3
S113017065C0000063C0000061C000005FC00000F3
S11301805DC000005BC0000059C0000057C0000003
S113019055C0000053C0000051C000004FC0000013
S11301A04DC000004BC0000049C0000047C0000023
S11301B045C0000043C0000041C000003FC0000033
S11301C03DC000003BC0000039C0000037C0000043
S11301D035C0000033C0000031C000002FC0000053
S11301E02DC000002BC0000029C0000027C0000063
S11301F025C0000011241FBECFEFCDBFDFE3DEBF5B
S113020000E00CBF18BE19BE1ABE1BBE10E2A0E06F
S1130210B0E2ECE9FAE000E00BBF02C007900D92F7
S1130220A630B107D9F71BBE20E2A6E0B0E201C0B8
S11302301D92A431B207E1F7BBD02EC4E1CECF9317
S1130240DF931F92CDB7DEB720E430E040E050E00A
S1130250BA01E0E0F2E0A1E08FB78983F8948981E4
S11302609081946090838FBF968190FFFDCFA68389
S113027084A195A1480F591F611D711D2150310999
S113028059F7DB01CA01689415F8B695A7959795B7
S113029087951694D1F70F90DF91CF910895E0E6FA
S11302A0F6E0808580FDFDCF80E090E001968A3005
S11302B02AE19207D9F7E0E6F6E0808580FFFDCFDA
S11302C080E090E001968A302AE19207D9F70895F8
S11302D01F920F920FB60F92112408B60F9218BEF8
S11302E009B60F9219BE0AB60F921ABE0BB60F9238
S11302F01BBE2F933F934F935F936F937F938F9383
S11303009F93AF93BF93EF93FF93CF93DF931F928A
S1130310CDB7DEB72091240230912502A90160E017
S113032070E080910820909109209A01AB01281B6C
S1130330390B4109510912161306140615065CF40B
S1130340A6E6BEE06ED320910A2030910B2040E057
S113035050E04BD303C020E030E0A90120930620F5
S1130360309307208FB78983F8949981E0E0F2E015
S11303708081846080839FBF0F90DF91CF91FF9134
S1130380EF91BF91AF919F918F917F916F915F9109
S11303904F913F912F910F900BBE0F900ABE0F907B
S11303A009BE0F9008BE0F900FBE0F901F901895B6
S11303B0CF93DF93CDB7DEB72D97CDBFDEBF0DD181
S11303C0AAD0EEE0F0E2108211821282138214822B
S11303D011E0158387E08093A2007894BE016F5FDB
S11303E07F4F80E092E028D2AE01485F5F4F61E02A
S11303F080E092E0A5D28A819B819F7C9B8392E0DE
S11304009D83817E8A831C82BE016F5F7F4F80E063
S113041092E0ACD1188719868A85807F8A87AE01DD
S1130420485F5F4F61E080E092E03FD280E092E07D
S113043071D18FB78C87F8949C85E0E0F2E08081DD
S1130440846080839FBF868180FFFDCFE12C689408
S1130450FF24F1F8DD24D394D7011696DC9200E84A
S113046016E0F801D6821BDFEADE5C010F2EF8E00D
S11304708F2EF0E29F2EF02DD4018D939C936894DF
S1130480CC24C1F8F801C6820ADFD9DE8A199B0997
S1130490D40112968D939C931397F801D582C5824B
S11304A08A858C7F81608A87AE01485F5F4F61E0F7
S11304B080E092E0FAD18FB78D87F8949D85D701BB
S11304C08C9184608C939FBF4EE050E228E430E02E
S11304D0F894FA018081811109C0AFE0B0E2E0E054
S11304E0EF5F8D918823E1F3E11102C07894F0CF9E
S11304F0D9018C91F0E0E150F04E817F9081892BFD
S11305008C938C9181608C9378948895F901808187
S11305108E7F8083DDCF8FEF809370008093710096
S113052080937200809373008093740080937500AD
S1130530809376000895CF93DF931F92CDB7DEB7F3
S11305409FB79983F8949981E82FF0E0E059FF4F21
S113055060958081682360839FBF0F90DF91CF9166
S11305600895CF93DF931F92CDB7DEB79FB79983DA
S1130570F8949981E82FF0E0E059FF4F8081682BCF
S113058060839FBF0F90DF91CF910895CF93DF9346
S1130590FC0120E030E0C62FD0E0DE01022E02C0D4
S11305A0B595A7950A94E2F7A0FD508B2F5F3F4FB6
S11305B031962830310589F740FF0AC041FF03C056
S11305C0FC01658302C0FC016683FC01618302C0F7
S11305D0FC016283DF91CF91089543E050E061E034
S11305E080E896E0D3DF43E050E062E080E896E004
S11305F0CDDF43E050E064E080E896E0C7DF43E00D
S113060050E068E080E896E0C1DF43E050E060E15C
S113061080E896E0BBDF43E050E060E280E896E0EB
S1130620B5DF43E050E060E480E896E0AFDF43E00C
S113063050E060E880E896E0A9DF40E058E161E03E
S113064080E696E0A3DF40E058E162E080E696E0D1
S11306509DDF40E058E164E080E696E097DF40E00B
S113066058E168E080E696E091DF40E058E160E11F
S113067080E696E08BDF40E058E160E280E696E0B9
S113068085DF40E058E161E080EE97E07FDF40E005
S113069058E162E080EE97E079CF0895811522E079
S11306A0920761F480910D2091E0980F90930D20B2
S11306B0811112C062E081E03ECF089580349240FF
S11306C059F480910C2091E0980F90930C208111A3
S11306D003C062E082E02FCF0895811522E09207E3
S11306E059F480910D20815080930D20811111C007
S11306F062E081E036CF08958034924051F48091D5
S11307000C20815080930C20811103C062E082E0B0
S113071028CF0895EF92FF921F93CF93DF931F92F8
S11307201F92CDB7DEB77C018FB78983F894198106
S1130730C701B4DFF7018081816080831FBF80918E
S11307400F208F3F09F4FFCF8FB78A83F8949A81E3
S1130750EEE0F0E281818F5F81839FBF0F900F9065
S1130760DF91CF911F91FF90EF900895BF92CF92A8
S1130770DF92EF92FF920F931F93CF93DF931F9219
S1130780CDB7DEB78C017B01811522E0920771F4AD
S113079061E270E082E01FD1C82ED12C60E270E0EB
S11307A082E019D1DC2CCC24C82A10C080349240B9
S11307B0C1F565E270E082E00ED1C82ED12C64E26E
S11307C070E082E008D1DC2CCC24C82A8FB789835E
S11307D0F894B980C80162DFF801808192E09083C7
S11307E0C486D586F70125813681F801208F318FA3
S11307F0F7019281F8019283F7019481F8019483BF
S1130800F7019381F8019383F7019181F8019183B2
S11308108170F7019081892BF8018083C8015DDF25
S1130820BFBE0F90DF91CF911F910F91FF90EF907A
S1130830DF90CF90BF900895DF92EF92FF920F93D5
S11308401F93CF93DF931F92CDB7DEB78C017B014B
S11308508FB78983F894D980C80120DFF80180819B
S1130860807CF7018083F801808D918DF701858369
S11308709683F8018281F7018283F8018481F7016C
S11308808483F8018381F7018383F8018181F7016F
S11308908183C80122DFDFBE0F90DF91CF911F91CA
S11308A00F91FF90EF90DF900895AF92BF92CF9297
S11308B0DF92EF92FF920F931F93CF93DF931F92D8
S11308C0CDB7DEB76C01B62E7A01862F837029F47A
S11308D0962F9695969582E002C0962F80E090FF21
S11308E08F5F8601005E1F4F98E0899F000D111DE8
S11308F011248FB78983F894A980C601CFDEF7014C
S11309008081F8018083F7018281F8018283F701F5
S11309108181F8018183B0FE04C0F7018381F8016D
S11309208683C601DADEAFBE0F90DF91CF911F91AF
S11309300F91FF90EF90DF90CF90BF90AF9008950C
S1130940AF92BF92CF92DF92EF92FF920F931F93D9
S1130950CF93DF931F92CDB7DEB76C01B62E7A0129
S1130960862F837029F4962F9695969582E002C07F
S1130970962F80E090FF8F5F8601005E1F4F98E006
S1130980899F000D111D11248FB78983F894A980C4
S1130990C60184DEF8018081F7018083F801828139
S11309A0F7018283F8018181F7018183B0FE04C0DD
S11309B0F8018681F7018383C6018FDEAFBE0F90F5
S11309C0DF91CF911F910F91FF90EF90DF90CF9027
S11309D0BF90AF9008954091CA01E62FF72F8093FE
S11309E0CA0184914093CA010895052E97FB16F419
S11309F000940FD057FD05D01ED007FC02D046F45A
S1130A0008C050954095309521953F4F4F4F5F4F0B
S1130A10089590958095709561957F4F8F4F9F4F66
S1130A2008952BD0A59F900DB49F900DA49F800D89
S1130A30911D11240895A1E21A2EAA1BBB1BFD01CE
S1130A400DC0AA1FBB1FEE1FFF1FA217B307E407A9
S1130A50F50720F0A21BB30BE40BF50B661F771F01
S1130A60881F991F1A9469F76095709580959095E1
S1130A709B01AC01BD01CF010895A29FB001B39FBA
S1130A80C001A39F700D811D1124911DB29F700D93
S10F0A90811D1124911D0895F894FFCFDE
S1090A9C000E060C04002C
S9030000FC
