:10000000F9C000001DC100001BC1000019C10000A3
:1000100017C1000015C1000013C1000011C100008C
:100020000FC100000DC100000BC1000009C100009C
:1000300007C1000005C10000C4C10000FAC10000F2
:1000400030C2000066C200009CC20000D2C20000A4
:1000500008C300003EC3000074C30000AAC3000030
:10006000EFC00000EDC00000EBC00000E9C00000E0
:10007000E7C00000E5C00000E3C00000E1C00000F0
:10008000DFC00000DDC00000DBC00000D9C0000000
:10009000D7C00000D5C00000D3C00000D1C0000010
:1000A000CFC00000CDC00000CBC00000C9C0000020
:1000B000C7C00000C5C00000C3C00000E2C500000A
:1000C00018C600004EC6000084C60000BAC6000074
:1000D000F0C6000026C700005CC7000092C7000001
:1000E000C8C70000ADC00000ABC00000A9C0000040
:1000F000A7C00000A5C00000A3C00000A1C0000070
:100100009FC000009DC000009BC0000099C000007F
:1001100097C0000095C0000093C0000091C000008F
:100120008FC000008DC000008BC0000089C000009F
:1001300087C0000076C30000ACC30000E2C300002B
:1001400018C400004EC4000084C40000BAC40000FB
:10015000F0C4000026C500005CC5000071C00000AE
:100160006FC000006DC000006BC0000069C00000DF
:1001700067C0000065C0000063C0000061C00000EF
:100180005FC000005DC000005BC0000059C00000FF
:1001900057C0000055C0000053C0000051C000000F
:1001A0004FC000004DC000004BC0000049C000001F
:1001B00098C70000CEC700000C94E1080C94190900
:1001C0000C9451090C9489090C94C1090C94F909F7
:1001D0000C94310A0C94690A33C0000031C000004D
:1001E0002FC000002DC000002BC0000029C000005F
:1001F00027C0000011241FBECFEFCDBFDFE3DEBF5D
:1002000000E00CBF18BE19BE1ABE1BBE10E2A0E073
:10021000B0E2E4ECF7E100E00BBF02C007900D9202
:10022000A630B107D9F71BBE20E2A6E0B0E201C0BC
:100230001D92AC35B207E1F70E947D0B0C94E00BE8
:10024000DFCE8FEF809370008093710080937200F7
:100250008093730080937400809375008093760080
:100260000895CF93DF931F92CDB7DEB79FB79983E1
:10027000F8949981E82FF0E0E059FF4F6095808174
:10028000682360839FBF0F90DF91CF910895CF9334
:10029000DF93FC0120E030E0C62FD0E0DE01022E2B
:1002A00002C0B595A7950A94E2F7A0FD508B2F5F89
:1002B0003F4F31962830310589F740FF0AC041FF92
:1002C00003C0FC01658302C0FC016683FC016183FD
:1002D00002C0FC016283DF91CF91089543E050E0BA
:1002E00061E080E896E0D3DF43E050E062E080E840
:1002F00096E0CDDF43E050E064E080E896E0C7DFC1
:1003000043E050E068E080E896E0C1DF43E050E081
:1003100060E180E896E0BBDF43E050E060E280E827
:1003200096E0B5DF43E050E060E480E896E0AFDFC0
:1003300043E050E060E880E896E0A9DF40E058E163
:1003400061E080E696E0A3DF40E058E162E080E60D
:1003500096E09DDF40E058E164E080E696E097DFBC
:1003600040E058E168E080E696E091DF40E058E147
:1003700060E180E696E08BDF40E058E160E280E6F5
:1003800096E085DF40E058E161E080EE97E07FDFB6
:1003900040E058E162E080EE97E079DF40E050E035
:1003A00061E080E096E073DF40E050E064E080E0F0
:1003B00096E06DDF40E050E062E080E296E067CFDB
:1003C00008951F920F920FB60F92112408B60F9244
:1003D00018BE09B60F9219BE0BB60F921BBE2F9313
:1003E0003F934F935F936F937F938F939F93AF93BD
:1003F000BF93EF93FF93E0915420F09155203097F5
:1004000009F01995FF91EF91BF91AF919F918F9155
:100410007F916F915F914F913F912F910F900BBE04
:100420000F9009BE0F9008BE0F900FBE0F901F9047
:1004300018951F920F920FB60F92112408B60F92C3
:1004400018BE09B60F9219BE0BB60F921BBE2F93A2
:100450003F934F935F936F937F938F939F93AF934C
:10046000BF93EF93FF93E0915220F0915320309788
:1004700009F01995FF91EF91BF91AF919F918F91E5
:100480007F916F915F914F913F912F910F900BBE94
:100490000F9009BE0F9008BE0F900FBE0F901F90D7
:1004A00018951F920F920FB60F92112408B60F9253
:1004B00018BE09B60F9219BE0BB60F921BBE2F9332
:1004C0003F934F935F936F937F938F939F93AF93DC
:1004D000BF93EF93FF93E0915020F091512030971C
:1004E00009F01995FF91EF91BF91AF919F918F9175
:1004F0007F916F915F914F913F912F910F900BBE24
:100500000F9009BE0F9008BE0F900FBE0F901F9066
:1005100018951F920F920FB60F92112408B60F92E2
:1005200018BE09B60F9219BE0BB60F921BBE2F93C1
:100530003F934F935F936F937F938F939F93AF936B
:10054000BF93EF93FF93E0914E20F0914F203097AF
:1005500009F01995FF91EF91BF91AF919F918F9104
:100560007F916F915F914F913F912F910F900BBEB3
:100570000F9009BE0F9008BE0F900FBE0F901F90F6
:1005800018951F920F920FB60F92112408B60F9272
:1005900018BE09B60F9219BE0BB60F921BBE2F9351
:1005A0003F934F935F936F937F938F939F93AF93FB
:1005B000BF93EF93FF93E0914C20F0914D20309743
:1005C00009F01995FF91EF91BF91AF919F918F9194
:1005D0007F916F915F914F913F912F910F900BBE43
:1005E0000F9009BE0F9008BE0F900FBE0F901F9086
:1005F00018951F920F920FB60F92112408B60F9202
:1006000018BE09B60F9219BE0BB60F921BBE2F93E0
:100610003F934F935F936F937F938F939F93AF938A
:10062000BF93EF93FF93E0914A20F0914B203097D6
:1006300009F01995FF91EF91BF91AF919F918F9123
:100640007F916F915F914F913F912F910F900BBED2
:100650000F9009BE0F9008BE0F900FBE0F901F9015
:1006600018951F920F920FB60F92112408B60F9291
:1006700018BE09B60F9219BE0BB60F921BBE2F9370
:100680003F934F935F936F937F938F939F93AF931A
:10069000BF93EF93FF93E0914820F091492030976A
:1006A00009F01995FF91EF91BF91AF919F918F91B3
:1006B0007F916F915F914F913F912F910F900BBE62
:1006C0000F9009BE0F9008BE0F900FBE0F901F90A5
:1006D00018951F920F920FB60F92112408B60F9221
:1006E00018BE09B60F9219BE0BB60F921BBE2F9300
:1006F0003F934F935F936F937F938F939F93AF93AA
:10070000BF93EF93FF93E0914620F09147203097FD
:1007100009F01995FF91EF91BF91AF919F918F9142
:100720007F916F915F914F913F912F910F900BBEF1
:100730000F9009BE0F9008BE0F900FBE0F901F9034
:1007400018951F920F920FB60F92112408B60F92B0
:1007500018BE09B60F9219BE0BB60F921BBE2F938F
:100760003F934F935F936F937F938F939F93AF9339
:10077000BF93EF93FF93E0914420F0914520309791
:1007800009F01995FF91EF91BF91AF919F918F91D2
:100790007F916F915F914F913F912F910F900BBE81
:1007A0000F9009BE0F9008BE0F900FBE0F901F90C4
:1007B00018951F920F920FB60F92112408B60F9240
:1007C00018BE09B60F9219BE0BB60F921BBE2F931F
:1007D0003F934F935F936F937F938F939F93AF93C9
:1007E000BF93EF93FF93E0914220F0914320309725
:1007F00009F01995FF91EF91BF91AF919F918F9162
:100800007F916F915F914F913F912F910F900BBE10
:100810000F9009BE0F9008BE0F900FBE0F901F9053
:1008200018951F920F920FB60F92112408B60F92CF
:1008300018BE09B60F9219BE0BB60F921BBE2F93AE
:100840003F934F935F936F937F938F939F93AF9358
:10085000BF93EF93FF93E0914020F09141203097B8
:1008600009F01995FF91EF91BF91AF919F918F91F1
:100870007F916F915F914F913F912F910F900BBEA0
:100880000F9009BE0F9008BE0F900FBE0F901F90E3
:1008900018951F920F920FB60F92112408B60F925F
:1008A00018BE09B60F9219BE0BB60F921BBE2F933E
:1008B0003F934F935F936F937F938F939F93AF93E8
:1008C000BF93EF93FF93E0913E20F0913F2030974C
:1008D00009F01995FF91EF91BF91AF919F918F9181
:1008E0007F916F915F914F913F912F910F900BBE30
:1008F0000F9009BE0F9008BE0F900FBE0F901F9073
:1009000018951F920F920FB60F92112408B60F92EE
:1009100018BE09B60F9219BE0BB60F921BBE2F93CD
:100920003F934F935F936F937F938F939F93AF9377
:10093000BF93EF93FF93E0913C20F0913D203097DF
:1009400009F01995FF91EF91BF91AF919F918F9110
:100950007F916F915F914F913F912F910F900BBEBF
:100960000F9009BE0F9008BE0F900FBE0F901F9002
:1009700018951F920F920FB60F92112408B60F927E
:1009800018BE09B60F9219BE0BB60F921BBE2F935D
:100990003F934F935F936F937F938F939F93AF9307
:1009A000BF93EF93FF93E0913A20F0913B20309773
:1009B00009F01995FF91EF91BF91AF919F918F91A0
:1009C0007F916F915F914F913F912F910F900BBE4F
:1009D0000F9009BE0F9008BE0F900FBE0F901F9092
:1009E00018951F920F920FB60F92112408B60F920E
:1009F00018BE09B60F9219BE0BB60F921BBE2F93ED
:100A00003F934F935F936F937F938F939F93AF9396
:100A1000BF93EF93FF93E0913820F0913920309706
:100A200009F01995FF91EF91BF91AF919F918F912F
:100A30007F916F915F914F913F912F910F900BBEDE
:100A40000F9009BE0F9008BE0F900FBE0F901F9021
:100A500018951F920F920FB60F92112408B60F929D
:100A600018BE09B60F9219BE0BB60F921BBE2F937C
:100A70003F934F935F936F937F938F939F93AF9326
:100A8000BF93EF93FF93E0913620F091372030979A
:100A900009F01995FF91EF91BF91AF919F918F91BF
:100AA0007F916F915F914F913F912F910F900BBE6E
:100AB0000F9009BE0F9008BE0F900FBE0F901F90B1
:100AC00018951F920F920FB60F92112408B60F922D
:100AD00018BE09B60F9219BE0BB60F921BBE2F930C
:100AE0003F934F935F936F937F938F939F93AF93B6
:100AF000BF93EF93FF93E0913420F091352030972E
:100B000009F01995FF91EF91BF91AF919F918F914E
:100B10007F916F915F914F913F912F910F900BBEFD
:100B20000F9009BE0F9008BE0F900FBE0F901F9040
:100B300018951F920F920FB60F92112408B60F92BC
:100B400018BE09B60F9219BE0BB60F921BBE2F939B
:100B50003F934F935F936F937F938F939F93AF9345
:100B6000BF93EF93FF93E0913220F09133203097C1
:100B700009F01995FF91EF91BF91AF919F918F91DE
:100B80007F916F915F914F913F912F910F900BBE8D
:100B90000F9009BE0F9008BE0F900FBE0F901F90D0
:100BA00018951F920F920FB60F92112408B60F924C
:100BB00018BE09B60F9219BE0BB60F921BBE2F932B
:100BC0003F934F935F936F937F938F939F93AF93D5
:100BD000BF93EF93FF93E0913020F0913120309755
:100BE00009F01995FF91EF91BF91AF919F918F916E
:100BF0007F916F915F914F913F912F910F900BBE1D
:100C00000F9009BE0F9008BE0F900FBE0F901F905F
:100C100018951F920F920FB60F92112408B60F92DB
:100C200018BE09B60F9219BE0BB60F921BBE2F93BA
:100C30003F934F935F936F937F938F939F93AF9364
:100C4000BF93EF93FF93E0912E20F0912F203097E8
:100C500009F01995FF91EF91BF91AF919F918F91FD
:100C60007F916F915F914F913F912F910F900BBEAC
:100C70000F9009BE0F9008BE0F900FBE0F901F90EF
:100C800018951F920F920FB60F92112408B60F926B
:100C900018BE09B60F9219BE0BB60F921BBE2F934A
:100CA0003F934F935F936F937F938F939F93AF93F4
:100CB000BF93EF93FF93E0912C20F0912D2030977C
:100CC00009F01995FF91EF91BF91AF919F918F918D
:100CD0007F916F915F914F913F912F910F900BBE3C
:100CE0000F9009BE0F9008BE0F900FBE0F901F907F
:100CF00018951F920F920FB60F92112408B60F92FB
:100D000018BE09B60F9219BE0BB60F921BBE2F93D9
:100D10003F934F935F936F937F938F939F93AF9383
:100D2000BF93EF93FF93E0912A20F0912B2030970F
:100D300009F01995FF91EF91BF91AF919F918F911C
:100D40007F916F915F914F913F912F910F900BBECB
:100D50000F9009BE0F9008BE0F900FBE0F901F900E
:100D600018951F920F920FB60F92112408B60F928A
:100D700018BE09B60F9219BE0BB60F921BBE2F9369
:100D80003F934F935F936F937F938F939F93AF9313
:100D9000BF93EF93FF93E0912820F09129203097A3
:100DA00009F01995FF91EF91BF91AF919F918F91AC
:100DB0007F916F915F914F913F912F910F900BBE5B
:100DC0000F9009BE0F9008BE0F900FBE0F901F909E
:100DD00018951F920F920FB60F92112408B60F921A
:100DE00018BE09B60F9219BE0BB60F921BBE2F93F9
:100DF0003F934F935F936F937F938F939F93AF93A3
:100E0000BF93EF93FF93E0912620F0912720309736
:100E100009F01995FF91EF91BF91AF919F918F913B
:100E20007F916F915F914F913F912F910F900BBEEA
:100E30000F9009BE0F9008BE0F900FBE0F901F902D
:100E400018951F920F920FB60F92112408B60F92A9
:100E500018BE09B60F9219BE0BB60F921BBE2F9388
:100E60003F934F935F936F937F938F939F93AF9332
:100E7000BF93EF93FF93E0912420F09125203097CA
:100E800009F01995FF91EF91BF91AF919F918F91CB
:100E90007F916F915F914F913F912F910F900BBE7A
:100EA0000F9009BE0F9008BE0F900FBE0F901F90BD
:100EB00018951F920F920FB60F92112408B60F9239
:100EC00018BE09B60F9219BE0BB60F921BBE2F9318
:100ED0003F934F935F936F937F938F939F93AF93C2
:100EE000BF93EF93FF93E0912220F091232030975E
:100EF00009F01995FF91EF91BF91AF919F918F915B
:100F00007F916F915F914F913F912F910F900BBE09
:100F10000F9009BE0F9008BE0F900FBE0F901F904C
:100F200018951F920F920FB60F92112408B60F92C8
:100F300018BE09B60F9219BE0BB60F921BBE2F93A7
:100F40003F934F935F936F937F938F939F93AF9351
:100F5000BF93EF93FF93E0912020F09121203097F1
:100F600009F01995FF91EF91BF91AF919F918F91EA
:100F70007F916F915F914F913F912F910F900BBE99
:100F80000F9009BE0F9008BE0F900FBE0F901F90DC
:100F900018951F920F920FB60F92112408B60F9258
:100FA00018BE09B60F9219BE0BB60F921BBE2F9337
:100FB0003F934F935F936F937F938F939F93AF93E1
:100FC000BF93EF93FF93E0911E20F0911F20309785
:100FD00009F01995FF91EF91BF91AF919F918F917A
:100FE0007F916F915F914F913F912F910F900BBE29
:100FF0000F9009BE0F9008BE0F900FBE0F901F906C
:1010000018951F920F920FB60F92112408B60F92E7
:1010100018BE09B60F9219BE0BB60F921BBE2F93C6
:101020003F934F935F936F937F938F939F93AF9370
:10103000BF93EF93FF93E0911C20F0911D20309718
:1010400009F01995FF91EF91BF91AF919F918F9109
:101050007F916F915F914F913F912F910F900BBEB8
:101060000F9009BE0F9008BE0F900FBE0F901F90FB
:1010700018951F920F920FB60F92112408B60F9277
:1010800018BE09B60F9219BE0BB60F921BBE2F9356
:101090003F934F935F936F937F938F939F93AF9300
:1010A000BF93EF93FF93E0911A20F0911B203097AC
:1010B00009F01995FF91EF91BF91AF919F918F9199
:1010C0007F916F915F914F913F912F910F900BBE48
:1010D0000F9009BE0F9008BE0F900FBE0F901F908B
:1010E00018951F920F920FB60F92112408B60F9207
:1010F00018BE09B60F9219BE0BB60F921BBE2F93E6
:101100003F934F935F936F937F938F939F93AF938F
:10111000BF93EF93FF93E0911820F091192030973F
:1011200009F01995FF91EF91BF91AF919F918F9128
:101130007F916F915F914F913F912F910F900BBED7
:101140000F9009BE0F9008BE0F900FBE0F901F901A
:1011500018951F920F920FB60F92112408B60F9296
:1011600018BE09B60F9219BE0BB60F921BBE2F9375
:101170003F934F935F936F937F938F939F93AF931F
:10118000BF93EF93FF93E0911620F09117203097D3
:1011900009F01995FF91EF91BF91AF919F918F91B8
:1011A0007F916F915F914F913F912F910F900BBE67
:1011B0000F9009BE0F9008BE0F900FBE0F901F90AA
:1011C00018951F920F920FB60F92112408B60F9226
:1011D00018BE09B60F9219BE0BB60F921BBE2F9305
:1011E0003F934F935F936F937F938F939F93AF93AF
:1011F000BF93EF93FF93E0911420F0911520309767
:1012000009F01995FF91EF91BF91AF919F918F9147
:101210007F916F915F914F913F912F910F900BBEF6
:101220000F9009BE0F9008BE0F900FBE0F901F9039
:1012300018951F920F920FB60F92112408B60F92B5
:1012400018BE09B60F9219BE0BB60F921BBE2F9394
:101250003F934F935F936F937F938F939F93AF933E
:10126000BF93EF93FF93E0911220F09113203097FA
:1012700009F01995FF91EF91BF91AF919F918F91D7
:101280007F916F915F914F913F912F910F900BBE86
:101290000F9009BE0F9008BE0F900FBE0F901F90C9
:1012A00018951F920F920FB60F92112408B60F9245
:1012B00018BE09B60F9219BE0BB60F921BBE2F9324
:1012C0003F934F935F936F937F938F939F93AF93CE
:1012D000BF93EF93FF93E0911020F091112030978E
:1012E00009F01995FF91EF91BF91AF919F918F9167
:1012F0007F916F915F914F913F912F910F900BBE16
:101300000F9009BE0F9008BE0F900FBE0F901F9058
:1013100018951F920F920FB60F92112408B60F92D4
:1013200018BE09B60F9219BE0BB60F921BBE2F93B3
:101330003F934F935F936F937F938F939F93AF935D
:10134000BF93EF93FF93E0910E20F0910F20309721
:1013500009F01995FF91EF91BF91AF919F918F91F6
:101360007F916F915F914F913F912F910F900BBEA5
:101370000F9009BE0F9008BE0F900FBE0F901F90E8
:1013800018951F920F920FB60F92112408B60F9264
:1013900018BE09B60F9219BE0BB60F921BBE2F9343
:1013A0003F934F935F936F937F938F939F93AF93ED
:1013B000BF93EF93FF93E0910C20F0910D203097B5
:1013C00009F01995FF91EF91BF91AF919F918F9186
:1013D0007F916F915F914F913F912F910F900BBE35
:1013E0000F9009BE0F9008BE0F900FBE0F901F9078
:1013F00018951F920F920FB60F92112408B60F92F4
:1014000018BE09B60F9219BE0BB60F921BBE2F93D2
:101410003F934F935F936F937F938F939F93AF937C
:10142000BF93EF93FF93E0910A20F0910B20309748
:1014300009F01995FF91EF91BF91AF919F918F9115
:101440007F916F915F914F913F912F910F900BBEC4
:101450000F9009BE0F9008BE0F900FBE0F901F9007
:1014600018951F920F920FB60F92112408B60F9283
:1014700018BE09B60F9219BE0BB60F921BBE2F9362
:101480003F934F935F936F937F938F939F93AF930C
:10149000BF93EF93FF93E0910820F09109203097DC
:1014A00009F01995FF91EF91BF91AF919F918F91A5
:1014B0007F916F915F914F913F912F910F900BBE54
:1014C0000F9009BE0F9008BE0F900FBE0F901F9097
:1014D00018951F920F920FB60F92112408B60F9213
:1014E00018BE09B60F9219BE0BB60F921BBE2F93F2
:1014F0003F934F935F936F937F938F939F93AF939C
:10150000BF93EF93FF93E0910620F091072030976F
:1015100009F01995FF91EF91BF91AF919F918F9134
:101520007F916F915F914F913F912F910F900BBEE3
:101530000F9009BE0F9008BE0F900FBE0F901F9026
:1015400018951F93CF93DF931F921F92CDB7DEB7ED
:101550002FB72A83F8941A81282F392F211588E074
:10156000380749F461E083E00E94310164E083E0E0
:101570000E9431015CC0203488E0380749F462E001
:1015800083E00E94310164E083E00E9431014FC09A
:10159000211589E0380749F461E084E00E943101B7
:1015A00064E084E00E94310142C0203489E03807C1
:1015B00049F462E084E00E94310164E084E00E942A
:1015C000310135C021158AE0380749F461E085E032
:1015D0000E94310164E085E00E94310128C020347E
:1015E0008AE0380749F462E085E00E94310164E056
:1015F00085E00E9431011BC021158BE0380749F4BA
:1016000061E086E00E94310164E086E00E943101E1
:101610000EC020343B4049F462E086E00E94310174
:1016200064E086E00E94310102C01FBF10C08091BB
:1016300057208F3F09F4FFCF8FB78983F8949981A2
:10164000E6E5F0E281818F5F81839FBF1FBF0F902E
:101650000F90DF91CF911F910895811528E0920797
:1016600029F460935420709355200895803428E025
:10167000920729F4609348207093492008958115BA
:1016800029E0920729F46093402070934120089547
:10169000803429E0920729F4609334207093352038
:1016A000089581152AE0920729F460932C20709305
:1016B0002D20089580342AE0920729F46093202099
:1016C00070932120089581152BE0920729F46093EF
:1016D000182070931920089580349B4021F4609362
:1016E0000C2070930D200895E0E0FAE080A591A50C
:1016F00081509D4F80A791A7089587E08093A20015
:101700000E946E010E942101E6E5F0E21082118242
:1017100012821382148281E08583789480E098E0BD
:1017200010DFC0E0D8E08E818C7F8E838E81816057
:101730008E838981887F898364E77BE080E098E0FD
:101740008CDF88EA91E68EA39FA38881807F8360E7
:10175000888380E09AE0F5DEE0E0FAE08181887F2E
:101760008360818310A611A681818061818380813D
:10177000807F8160808326E530E2C8E4D0E0F89481
:10178000F9018081811109C0A7E5B0E2E0E0EF5FD7
:101790008D918823E1F3E11102C07894F0CF888124
:1017A000F0E0E150F04E817F9081892B8883888121
:1017B000816088837894889588818E7F8883DFCF45
:0417C000F894FFCFCB
:0617C400000E060C0400FB
:00000001FF
