S00E00006174746D70312E73726563BF
S1130000F9C100001DC200001BC2000019C200009B
S113001017C2000015C2000013C2000011C2000084
S11300200FC200000DC200000BC2000009C2000094
S113003007C200000C94D5120C94BB080C94F3086E
S11300400C942B090C9463090C949B090C94D3090C
S11300500C940B0A0C94430A0C947B0A0C94B30A78
S1130060EFC10000EDC10000EBC10000E9C10000D8
S1130070E7C10000E5C10000E3C10000E1C10000E8
S1130080DFC10000DDC10000DBC10000D9C10000F8
S1130090D7C10000D5C10000D3C1000074C5000061
S11300A0AFC50000EAC5000025C60000C9C10000B4
S11300B0C7C10000C5C100000C9439130C941B0D7A
S11300C00C94530D0C948B0D0C94C30D0C94FB0DDC
S11300D00C94330E0C946B0E0C94A30E0C94DB0E48
S11300E00C94130FADC10000ABC10000A9C1000006
S11300F0A7C10000A5C10000A3C10000A1C1000068
S11301009FC100009DC100009BC1000099C1000077
S113011097C1000095C1000093C1000040C40000D5
S11301207BC40000B6C40000F1C4000089C1000013
S11301300C9407130C94EB0A0C94230B0C945B0B98
S11301400C94930B0C94CB0B0C94030C0C943B0C61
S11301500C94730C0C94AB0C0C94E30C71C1000064
S11301606FC100006DC100006BC1000069C10000D7
S113017067C1000065C1000063C1000061C10000E7
S11301805FC100005DC100005BC1000059C10000F7
S113019057C1000055C1000053C1000051C1000007
S11301A002C300004DC100004BC100000C946B134E
S11301B00C944B0F0C94830F0C94BB0F0C94F30F03
S11301C00C942B100C9463100C949B100C94D3106F
S11301D00C940B110C94431133C1000031C1000085
S11301E02FC100002DC100002BC1000029C1000057
S11301F027C1000000082E085B088808B508E2083B
S11302000F093B0968099409C009EC09170A420A55
S11302106D0A970AC10AEB0A140B3D0B650B8C0B94
S1130220B30BDA0B000C250C4A0C6E0C910CB40CBD
S1130230D50CF60C170D360D550D730D900DAC0D38
S1130240C80DE20DFC0D140E2C0E430E590E6D0E4E
S1130250810E940EA60EB60EC60ED50EE20EEF0E4D
S1130260FA0E050F0E0F160F1E0F240F290F2C0F59
S11302702F0F310F310F310F2F0F2C0F280F230F9A
S11302801D0F160F0D0F040FFA0EEE0EE10ED40E15
S1130290C50EB50EA40E920E800E6C0E570E410EB6
S11302A02A0E120EFA0DE00DC60DAA0D8E0D710D5B
S11302B0530D340D140DF40CD30CB10C8E0C6B0CCB
S11302C0470C220CFD0BD70BB00B890B620B390BBF
S11302D0110BE80ABE0A940A6A0A3F0A140AE809DA
S11302E0BC099009640938090B09DE08B1088408BF
S11302F057082A08FD07CF07A207750748071B07F9
S1130300EE06C206950669063D061106E605BB051E
S1130310900566053C051205E904C00498047104BF
S11303204A042304FD03D803B3038F036C03490376
S113033028030703E602C702A8028A026D025102DB
S113034035021B020102E901D101BA01A4019001A5
S11303507C01690157014701370128011B010E0186
S11303600301F800EF00E700DF00D900D400D1005A
S1130370CE00CC00CC00CC00CE00D100D500DA00F9
S1130380E000E700F000F90003010F011C0129015E
S11303903801480159016B017D019101A601BC019D
S11303A0D301EB0103021D02370253026F028C02D8
S11303B0AA02C902E90209032A034C036F03920348
S11303C0B603DB03000426044D0474049B04C40434
S11303D0EC0415053F0569059305BE05E9051506F9
S11303E041066D069906C506F2061F074C077907F4
S11303F0A607D30711241FBECFEFCDBFDFE3DEBFB7
S113040000E00CBF18BE19BE1ABE1BBE10E2A0E06D
S1130410B0E2E8E4FFE300E00BBF02C007900D92F6
S1130420AA33B107D9F71BBE21E2AAE3B0E201C0A7
S11304301D92AF33B207E1F70E94ED190C94A21F8D
S1130440DFCD4F925F926F927F928F929F92AF9285
S1130450BF92CF92DF92EF92FF920F931F93CF93AD
S1130460DF931F92CDB7DEB72091602030916120D9
S113047080915E2090915F202115310509F056C0CE
S1130480009709F057C00F2EFAE3CF2EF0E2DF2ECB
S1130490F02D00E010E0E12CF12C84EF91E04C0110
S11304A0990FAA08BB08F801EE0FFF1FED59FF4D85
S11304B080819181892B81F1F801EE0FFF1FED59A5
S11304C0FF4DA081B1812FED38EF42E050E00E9452
S11304D08F1CF6014080518062807380DC01CB0167
S11304E0840D951DA61DB71D80839183A283B383BC
S11304F08B2F90E0880F991FA5019401280F391FB5
S1130500411D511D0BB64BBFF901879196910BBE4E
S1130510880F991FE80EF91E0F5F1F4F34E0C30EBA
S1130520D11C0830110509F0BECF4DC0281739077A
S113053009F43AC0209162202130B1F440915A204C
S113054050915B2060915C2070915D20480F591F91
S1130550611D711D0BB66BBFFA0147910BBE50E2D2
S1130560459F700111241AC040915A2050915B207C
S113057060915C2070915D209C01220F331F420F1B
S1130580531F611D711D0BB66BBFFA014791569144
S11305900BBE7A01EE0CFF1CEE0CFF1C019680933F
S11305A05E2090935F200FC010925E2010925F2017
S11305B01092602010926120E0E0F8E08081807F5A
S11305C08083E12CF12C8FB78983F8948981E092A0
S11305D03803F09239038FBF0F90DF91CF911F91B1
S11305E00F91FF90EF90DF90CF90BF90AF909F90CE
S11305F08F907F906F905F904F9008950F931F930B
S1130600CF93DF93CDB7DEB72597CDBFDEBFBE0155
S11306106F5F7F4F85E0FB0111928A95E9F789E0CE
S11306208B8384E0898381E08A8380E58D8380E203
S113063093E03ED580E293E00FD580E098E00E94FD
S11306407B1100E018E08AEA95E0F80186A397A3FD
S113065062E080E00E94671680EC8093800161E292
S113066072E080E098E00E94F711F80186818C7FA7
S113067086838681816086832596CDBFDEBFDF9128
S1130680CF911F910F910895882359F0E0E0F8E08D
S11306909081907F9160908380FD0FC020E030E0D6
S11306A010C0E0E0F8E09081907F90831092632086
S11306B01092642020E030E011C02091002030919D
S11306C00120209363203093642081FF05C0209192
S11306D002203091032002C020E030E02093652006
S11306E03093662082FF05C02091042030910520BC
S11306F002C020E030E0209367203093682083FF1D
S113070005C0209106203091072002C020E030E08F
S11307102093692030936A2084FF05C0209108202B
S11307203091092002C020E030E020936B20309308
S11307306C2085FF05C020910A2030910B2002C057
S113074020E030E020936D2030936E2086FF05C0BA
S113075020910C2030910D2002C020E030E0209345
S11307606F203093702088232CF480910E20909178
S11307700F2002C080E090E080937120909372205B
S113078008958091602090916120892B49F42091F3
S11307905E2030915F2081E0232B19F480E001C0BA
S11307A081E0817008951F920F920FB60F92112469
S11307B008B60F9218BE09B60F9219BE0BB60F9267
S11307C01BBE2F933F934F935F936F937F938F93AE
S11307D09F93AF93BF93EF93FF93E0917D20F091AC
S11307E07E20309751F08091A80682FF06C0809148
S11307F07B2090917C2019951FC0E0917920F09185
S11308007A20309751F08091A80683FF06C080912A
S113081077209091782019950FC0E0917520F09180
S11308207620309749F08091A80684FF05C0809116
S1130830732090917420199581E08093AC06FF9108
S1130840EF91BF91AF919F918F917F916F915F9144
S11308504F913F912F910F900BBE0F9009BE0F90B7
S113086008BE0F900FBE0F901F90189540E050E007
S113087064E080EA96E00E949816F89487E08093FA
S1130880A20078940895CF93DF931F92CDB7DEB77B
S11308902FB72983F8944981282F392F211582E015
S11308A0380729F46093F8207093F92007C02034A6
S11308B0324021F46093F6207093F7204FBF0F90DD
S11308C0DF91CF910895811522E0920769F4809118
S11308D0802091E0980F90938020811114C062E0F1
S11308E081E00C94671608958034924061F48091FD
S11308F07F2091E0980F90937F20811104C062E0E3
S113090082E00C9467160895811522E0920761F441
S113091080918020815080938020811113C062E0F7
S113092081E00C947D1608958034924059F48091AE
S11309307F20815080937F20811104C062E082E097
S11309400C947D160895EF92FF921F93CF93DF933B
S11309501F921F92CDB7DEB77C018FB78983F894BD
S11309601981C701B0DFF7018081816080831FBFD7
S11309708091F1208F3F09F4FFCF8FB78A83F894D9
S11309809A81E0EFF0E281818F5F81839FBF0F90B6
S11309900F90DF91CF911F91FF90EF9008951F92D8
S11309A00F920FB60F92112408B60F9218BE09B613
S11309B00F9219BE0BB60F921BBE2F933F934F930A
S11309C05F936F937F938F939F93AF93BF93EF93B3
S11309D0FF934091240250912502E091F820F09178
S11309E0F92061E080E092E01995FF91EF91BF91C9
S11309F0AF919F918F917F916F915F914F913F91B3
S1130A002F910F900BBE0F9009BE0F9008BE0F9050
S1130A100FBE0F901F9018951F920F920FB60F9252
S1130A20112408B60F9218BE09B60F9219BE0BB660
S1130A300F921BBE2F933F934F935F936F937F93BC
S1130A408F939F93AF93BF93EF93FF9340912C02A7
S1130A5050912D02E091F820F091F92062E080E0BD
S1130A6092E01995FF91EF91BF91AF919F918F9172
S1130A707F916F915F914F913F912F910F900BBE9A
S1130A800F9009BE0F9008BE0F900FBE0F901F90DD
S1130A9018951F920F920FB60F92112408B60F9259
S1130AA018BE09B60F9219BE0BB60F921BBE2F9338
S1130AB03F934F935F936F937F938F939F93AF93E2
S1130AC0BF93EF93FF934091340250913502E0912C
S1130AD0F820F091F92064E080E092E01995FF910C
S1130AE0EF91BF91AF919F918F917F916F915F91A2
S1130AF04F913F912F910F900BBE0F9009BE0F9015
S1130B0008BE0F900FBE0F901F9018951F920F9262
S1130B100FB60F92112408B60F9218BE09B60F92A1
S1130B2019BE0BB60F921BBE2F933F934F935F9347
S1130B306F937F938F939F93AF93BF93EF93FF93A1
S1130B4040913C0250913D02E091F820F091F9204F
S1130B5068E080E092E01995FF91EF91BF91AF9129
S1130B609F918F917F916F915F914F913F912F91C1
S1130B700F900BBE0F9009BE0F9008BE0F900FBED2
S1130B800F901F9018951F920F920FB60F92112479
S1130B9008B60F9218BE09B60F9219BE0BB60F9283
S1130BA01BBE2F933F934F935F936F937F938F93CA
S1130BB09F93AF93BF93EF93FF934091640250913F
S1130BC06502E091F620F091F72061E080E492E084
S1130BD01995FF91EF91BF91AF919F918F917F9163
S1130BE06F915F914F913F912F910F900BBE0F909A
S1130BF009BE0F9008BE0F900FBE0F901F9018955E
S1130C001F920F920FB60F92112408B60F9218BEBE
S1130C1009B60F9219BE0BB60F921BBE2F933F93CA
S1130C204F935F936F937F938F939F93AF93BF93F0
S1130C30EF93FF9340916C0250916D02E091F62086
S1130C40F091F72062E080E492E01995FF91EF9132
S1130C50BF91AF919F918F917F916F915F914F91D0
S1130C603F912F910F900BBE0F9009BE0F9008BEBD
S1130C700F900FBE0F901F9018951F920F920FB6F2
S1130C800F92112408B60F9218BE09B60F9219BE1E
S1130C900BB60F921BBE2F933F934F935F936F93AB
S1130CA07F938F939F93AF93BF93EF93FF93409161
S1130CB0740250917502E091F620F091F72064E0FF
S1130CC080E492E01995FF91EF91BF91AF919F91CC
S1130CD08F917F916F915F914F913F912F910F90E1
S1130CE00BBE0F9009BE0F9008BE0F900FBE0F9061
S1130CF01F9018951F920F920FB60F92112408B6E9
S1130D000F9218BE09B60F9219BE0BB60F921BBEF6
S1130D102F933F934F935F936F937F938F939F93FF
S1130D20AF93BF93EF93FF9340917C0250917D0268
S1130D30E091F620F091F72068E080E492E01995C4
S1130D40FF91EF91BF91AF919F918F917F916F919F
S1130D505F914F913F912F910F900BBE0F9009BE61
S1130D600F9008BE0F900FBE0F901F901895BF9262
S1130D70CF92DF92EF92FF920F931F93CF93DF9363
S1130D801F92CDB7DEB78C017B01811522E092075B
S1130D9071F461E270E082E0E4D1C82ED12C60E20B
S1130DA070E082E0DED1DC2CCC24C82A10C0803470
S1130DB09240C1F565E270E082E0D3D1C82ED12C17
S1130DC064E270E082E0CDD1DC2CCC24C82A8FB759
S1130DD08983F894B980C80176DDF801808192E0B6
S1130DE09083C486D586F70125813681F801208F4A
S1130DF0318FF7019281F8019283F7019481F80110
S1130E009483F7019381F8019383F7019181F801A9
S1130E1091838170F7019081892BF8018083C80147
S1130E2073DDBFBE0F90DF91CF911F910F91FF90A3
S1130E30EF90DF90CF90BF900895DF92EF92FF92F2
S1130E400F931F93CF93DF931F92CDB7DEB78C011F
S1130E507B018FB78983F894D980C80134DDF80108
S1130E608081807CF7018083F801808D918DF7016A
S1130E7085839683F8018281F7018283F801848156
S1130E80F7018483F8018381F7018383F801818169
S1130E90F7018183C80138DDDFBE0F90DF91CF9168
S1130EA01F910F91FF90EF90DF900895AF92BF9242
S1130EB0CF92DF92EF92FF920F931F93CF93DF9322
S1130EC01F92CDB7DEB76C01B62E7A01862F8370E0
S1130ED029F4962F9695969582E002C0962F80E08D
S1130EE090FF8F5F8601005E1F4F98E0899F000D81
S1130EF0111D11248FB78983F894A980C601E3DCFE
S1130F00F7018081F8018083F7018281F8018283EF
S1130F10F7018181F8018183B0FE04C0F701838168
S1130F20F8018683C601F0DCAFBE0F90DF91CF914C
S1130F301F910F91FF90EF90DF90CF90BF90AF90F3
S1130F400895AF92BF92CF92DF92EF92FF920F93E8
S1130F501F93CF93DF931F92CDB7DEB76C01B62EEC
S1130F607A01862F837029F4962F9695969582E0C0
S1130F7002C0962F80E090FF8F5F8601005E1F4FB6
S1130F8098E0899F000D111D11248FB78983F8946F
S1130F90A980C60198DCF8018081F7018083F801FB
S1130FA08281F7018283F8018181F7018183B0FE98
S1130FB004C0F8018681F7018383C601A5DCAFBEB6
S1130FC00F90DF91CF911F910F91FF90EF90DF90E1
S1130FD0CF90BF90AF900895811523E0920769F4F4
S1130FE08091822091E0980F90938220811114C007
S1130FF064E081E00C94671608958032934061F4B4
S11310008091812091E0980F90938120811104C0F8
S113101064E082E00C9467160895811523E092073A
S113102061F480918220815080938220811113C0C9
S113103064E081E00C947D1608958032934059F465
S113104080918120815080938120811104C064E0CB
S113105082E00C947D160895EF92FF921F93CF9334
S1131060DF931F921F92CDB7DEB72FB72983F89471
S113107019812091F1202F3F09F4FFCF7C018FB714
S11310808A83F8949A81E0EFF0E281818F5F818313
S11310909FBFC701A1DFF7018081816080831FBFEB
S11310A00F900F90DF91CF911F91FF90EF900895D3
S11310B0BF92CF92DF92EF92FF920F931F93CF9341
S11310C0DF931F92CDB7DEB78C017B01811523E03E
S11310D0920759F461E370E082E043D0B82E60E3F4
S11310E070E082E03ED0C82E0DC08032934071F58E
S11310F063E370E082E035D0B82E62E370E082E012
S113110030D0C82E8FB78983F894D980C80164DFA2
S1131110F80180811082F7019181F8019183F70130
S11311209281F8019283F7019381F8019383F70187
S11311309481F8019483B086C1868170F70190810F
S1131140892BF8018083C80168DFDFBE0F90DF912F
S1131150CF911F910F91FF90EF90DF90CF90BF90B0
S113116008954091CA01E62FF72F8093CA01849114
S11311704093CA0108951F920F920FB60F92112443
S113118008B60F9218BE09B60F9219BE0BB60F928D
S11311901BBE2F933F934F935F936F937F938F93D4
S11311A09F93AF93BF93EF93FF93E091D120F0917E
S11311B0D220309709F01995FF91EF91BF91AF912B
S11311C09F918F917F916F915F914F913F912F915B
S11311D00F900BBE0F9009BE0F9008BE0F900FBE6C
S11311E00F901F9018951F920F920FB60F92112413
S11311F008B60F9218BE09B60F9219BE0BB60F921D
S11312001BBE2F933F934F935F936F937F938F9363
S11312109F93AF93BF93EF93FF93E091CF20F0910F
S1131220D020309709F01995FF91EF91BF91AF91BC
S11312309F918F917F916F915F914F913F912F91EA
S11312400F900BBE0F9009BE0F9008BE0F900FBEFB
S11312500F901F9018951F920F920FB60F921124A2
S113126008B60F9218BE09B60F9219BE0BB60F92AC
S11312701BBE2F933F934F935F936F937F938F93F3
S11312809F93AF93BF93EF93FF93E091CD20F091A1
S1131290CE20309709F01995FF91EF91BF91AF914E
S11312A09F918F917F916F915F914F913F912F917A
S11312B00F900BBE0F9009BE0F9008BE0F900FBE8B
S11312C00F901F9018951F920F920FB60F92112432
S11312D008B60F9218BE09B60F9219BE0BB60F923C
S11312E01BBE2F933F934F935F936F937F938F9383
S11312F09F93AF93BF93EF93FF93E091CB20F09133
S1131300CC20309709F01995FF91EF91BF91AF91DF
S11313109F918F917F916F915F914F913F912F9109
S11313200F900BBE0F9009BE0F9008BE0F900FBE1A
S11313300F901F9018951F920F920FB60F921124C1
S113134008B60F9218BE09B60F9219BE0BB60F92CB
S11313501BBE2F933F934F935F936F937F938F9312
S11313609F93AF93BF93EF93FF93E091C920F091C4
S1131370CA20309709F01995FF91EF91BF91AF9171
S11313809F918F917F916F915F914F913F912F9199
S11313900F900BBE0F9009BE0F9008BE0F900FBEAA
S11313A00F901F9018951F920F920FB60F92112451
S11313B008B60F9218BE09B60F9219BE0BB60F925B
S11313C01BBE2F933F934F935F936F937F938F93A2
S11313D09F93AF93BF93EF93FF93E091C720F09156
S11313E0C820309709F01995FF91EF91BF91AF9103
S11313F09F918F917F916F915F914F913F912F9129
S11314000F900BBE0F9009BE0F9008BE0F900FBE39
S11314100F901F9018951F920F920FB60F921124E0
S113142008B60F9218BE09B60F9219BE0BB60F92EA
S11314301BBE2F933F934F935F936F937F938F9331
S11314409F93AF93BF93EF93FF93E091C520F091E7
S1131450C620309709F01995FF91EF91BF91AF9194
S11314609F918F917F916F915F914F913F912F91B8
S11314700F900BBE0F9009BE0F9008BE0F900FBEC9
S11314800F901F9018951F920F920FB60F92112470
S113149008B60F9218BE09B60F9219BE0BB60F927A
S11314A01BBE2F933F934F935F936F937F938F93C1
S11314B09F93AF93BF93EF93FF93E091C320F09179
S11314C0C420309709F01995FF91EF91BF91AF9126
S11314D09F918F917F916F915F914F913F912F9148
S11314E00F900BBE0F9009BE0F9008BE0F900FBE59
S11314F00F901F9018951F920F920FB60F92112400
S113150008B60F9218BE09B60F9219BE0BB60F9209
S11315101BBE2F933F934F935F936F937F938F9350
S11315209F93AF93BF93EF93FF93E091C120F0910A
S1131530C220309709F01995FF91EF91BF91AF91B7
S11315409F918F917F916F915F914F913F912F91D7
S11315500F900BBE0F9009BE0F9008BE0F900FBEE8
S11315600F901F9018951F920F920FB60F9211248F
S113157008B60F9218BE09B60F9219BE0BB60F9299
S11315801BBE2F933F934F935F936F937F938F93E0
S11315909F93AF93BF93EF93FF93E091BF20F0919C
S11315A0C020309709F01995FF91EF91BF91AF9149
S11315B09F918F917F916F915F914F913F912F9167
S11315C00F900BBE0F9009BE0F9008BE0F900FBE78
S11315D00F901F9018951F920F920FB60F9211241F
S11315E008B60F9218BE09B60F9219BE0BB60F9229
S11315F01BBE2F933F934F935F936F937F938F9370
S11316009F93AF93BF93EF93FF93E091BD20F0912D
S1131610BE20309709F01995FF91EF91BF91AF91DA
S11316209F918F917F916F915F914F913F912F91F6
S11316300F900BBE0F9009BE0F9008BE0F900FBE07
S11316400F901F9018951F920F920FB60F921124AE
S113165008B60F9218BE09B60F9219BE0BB60F92B8
S11316601BBE2F933F934F935F936F937F938F93FF
S11316709F93AF93BF93EF93FF93E091BB20F091BF
S1131680BC20309709F01995FF91EF91BF91AF916C
S11316909F918F917F916F915F914F913F912F9186
S11316A00F900BBE0F9009BE0F9008BE0F900FBE97
S11316B00F901F9018951F920F920FB60F9211243E
S11316C008B60F9218BE09B60F9219BE0BB60F9248
S11316D01BBE2F933F934F935F936F937F938F938F
S11316E09F93AF93BF93EF93FF93E091B920F09151
S11316F0BA20309709F01995FF91EF91BF91AF91FE
S11317009F918F917F916F915F914F913F912F9115
S11317100F900BBE0F9009BE0F9008BE0F900FBE26
S11317200F901F9018951F920F920FB60F921124CD
S113173008B60F9218BE09B60F9219BE0BB60F92D7
S11317401BBE2F933F934F935F936F937F938F931E
S11317509F93AF93BF93EF93FF93E091B720F091E2
S1131760B820309709F01995FF91EF91BF91AF918F
S11317709F918F917F916F915F914F913F912F91A5
S11317800F900BBE0F9009BE0F9008BE0F900FBEB6
S11317900F901F9018951F920F920FB60F9211245D
S11317A008B60F9218BE09B60F9219BE0BB60F9267
S11317B01BBE2F933F934F935F936F937F938F93AE
S11317C09F93AF93BF93EF93FF93E091B520F09174
S11317D0B620309709F01995FF91EF91BF91AF9121
S11317E09F918F917F916F915F914F913F912F9135
S11317F00F900BBE0F9009BE0F9008BE0F900FBE46
S11318000F901F9018951F920F920FB60F921124EC
S113181008B60F9218BE09B60F9219BE0BB60F92F6
S11318201BBE2F933F934F935F936F937F938F933D
S11318309F93AF93BF93EF93FF93E091B320F09105
S1131840B420309709F01995FF91EF91BF91AF91B2
S11318509F918F917F916F915F914F913F912F91C4
S11318600F900BBE0F9009BE0F9008BE0F900FBED5
S11318700F901F9018951F920F920FB60F9211247C
S113188008B60F9218BE09B60F9219BE0BB60F9286
S11318901BBE2F933F934F935F936F937F938F93CD
S11318A09F93AF93BF93EF93FF93E091B120F09197
S11318B0B220309709F01995FF91EF91BF91AF9144
S11318C09F918F917F916F915F914F913F912F9154
S11318D00F900BBE0F9009BE0F9008BE0F900FBE65
S11318E00F901F9018951F920F920FB60F9211240C
S11318F008B60F9218BE09B60F9219BE0BB60F9216
S11319001BBE2F933F934F935F936F937F938F935C
S11319109F93AF93BF93EF93FF93E091AF20F09128
S1131920B020309709F01995FF91EF91BF91AF91D5
S11319309F918F917F916F915F914F913F912F91E3
S11319400F900BBE0F9009BE0F9008BE0F900FBEF4
S11319500F901F9018951F920F920FB60F9211249B
S113196008B60F9218BE09B60F9219BE0BB60F92A5
S11319701BBE2F933F934F935F936F937F938F93EC
S11319809F93AF93BF93EF93FF93E091AD20F091BA
S1131990AE20309709F01995FF91EF91BF91AF9167
S11319A09F918F917F916F915F914F913F912F9173
S11319B00F900BBE0F9009BE0F9008BE0F900FBE84
S11319C00F901F9018951F920F920FB60F9211242B
S11319D008B60F9218BE09B60F9219BE0BB60F9235
S11319E01BBE2F933F934F935F936F937F938F937C
S11319F09F93AF93BF93EF93FF93E091AB20F0914C
S1131A00AC20309709F01995FF91EF91BF91AF91F8
S1131A109F918F917F916F915F914F913F912F9102
S1131A200F900BBE0F9009BE0F9008BE0F900FBE13
S1131A300F901F9018951F920F920FB60F921124BA
S1131A4008B60F9218BE09B60F9219BE0BB60F92C4
S1131A501BBE2F933F934F935F936F937F938F930B
S1131A609F93AF93BF93EF93FF93E091A920F091DD
S1131A70AA20309709F01995FF91EF91BF91AF918A
S1131A809F918F917F916F915F914F913F912F9192
S1131A900F900BBE0F9009BE0F9008BE0F900FBEA3
S1131AA00F901F9018951F920F920FB60F9211244A
S1131AB008B60F9218BE09B60F9219BE0BB60F9254
S1131AC01BBE2F933F934F935F936F937F938F939B
S1131AD09F93AF93BF93EF93FF93E091A720F0916F
S1131AE0A820309709F01995FF91EF91BF91AF911C
S1131AF09F918F917F916F915F914F913F912F9122
S1131B000F900BBE0F9009BE0F9008BE0F900FBE32
S1131B100F901F9018951F920F920FB60F921124D9
S1131B2008B60F9218BE09B60F9219BE0BB60F92E3
S1131B301BBE2F933F934F935F936F937F938F932A
S1131B409F93AF93BF93EF93FF93E091A520F09100
S1131B50A620309709F01995FF91EF91BF91AF91AD
S1131B609F918F917F916F915F914F913F912F91B1
S1131B700F900BBE0F9009BE0F9008BE0F900FBEC2
S1131B800F901F9018951F920F920FB60F92112469
S1131B9008B60F9218BE09B60F9219BE0BB60F9273
S1131BA01BBE2F933F934F935F936F937F938F93BA
S1131BB09F93AF93BF93EF93FF93E091A320F09192
S1131BC0A420309709F01995FF91EF91BF91AF913F
S1131BD09F918F917F916F915F914F913F912F9141
S1131BE00F900BBE0F9009BE0F9008BE0F900FBE52
S1131BF00F901F9018951F920F920FB60F921124F9
S1131C0008B60F9218BE09B60F9219BE0BB60F9202
S1131C101BBE2F933F934F935F936F937F938F9349
S1131C209F93AF93BF93EF93FF93E091A120F09123
S1131C30A220309709F01995FF91EF91BF91AF91D0
S1131C409F918F917F916F915F914F913F912F91D0
S1131C500F900BBE0F9009BE0F9008BE0F900FBEE1
S1131C600F901F9018951F920F920FB60F92112488
S1131C7008B60F9218BE09B60F9219BE0BB60F9292
S1131C801BBE2F933F934F935F936F937F938F93D9
S1131C909F93AF93BF93EF93FF93E0919F20F091B5
S1131CA0A020309709F01995FF91EF91BF91AF9162
S1131CB09F918F917F916F915F914F913F912F9160
S1131CC00F900BBE0F9009BE0F9008BE0F900FBE71
S1131CD00F901F9018951F920F920FB60F92112418
S1131CE008B60F9218BE09B60F9219BE0BB60F9222
S1131CF01BBE2F933F934F935F936F937F938F9369
S1131D009F93AF93BF93EF93FF93E0919D20F09146
S1131D109E20309709F01995FF91EF91BF91AF91F3
S1131D209F918F917F916F915F914F913F912F91EF
S1131D300F900BBE0F9009BE0F9008BE0F900FBE00
S1131D400F901F9018951F920F920FB60F921124A7
S1131D5008B60F9218BE09B60F9219BE0BB60F92B1
S1131D601BBE2F933F934F935F936F937F938F93F8
S1131D709F93AF93BF93EF93FF93E0919B20F091D8
S1131D809C20309709F01995FF91EF91BF91AF9185
S1131D909F918F917F916F915F914F913F912F917F
S1131DA00F900BBE0F9009BE0F9008BE0F900FBE90
S1131DB00F901F9018951F920F920FB60F92112437
S1131DC008B60F9218BE09B60F9219BE0BB60F9241
S1131DD01BBE2F933F934F935F936F937F938F9388
S1131DE09F93AF93BF93EF93FF93E0919920F0916A
S1131DF09A20309709F01995FF91EF91BF91AF9117
S1131E009F918F917F916F915F914F913F912F910E
S1131E100F900BBE0F9009BE0F9008BE0F900FBE1F
S1131E200F901F9018951F920F920FB60F921124C6
S1131E3008B60F9218BE09B60F9219BE0BB60F92D0
S1131E401BBE2F933F934F935F936F937F938F9317
S1131E509F93AF93BF93EF93FF93E0919720F091FB
S1131E609820309709F01995FF91EF91BF91AF91A8
S1131E709F918F917F916F915F914F913F912F919E
S1131E800F900BBE0F9009BE0F9008BE0F900FBEAF
S1131E900F901F9018951F920F920FB60F92112456
S1131EA008B60F9218BE09B60F9219BE0BB60F9260
S1131EB01BBE2F933F934F935F936F937F938F93A7
S1131EC09F93AF93BF93EF93FF93E0919520F0918D
S1131ED09620309709F01995FF91EF91BF91AF913A
S1131EE09F918F917F916F915F914F913F912F912E
S1131EF00F900BBE0F9009BE0F9008BE0F900FBE3F
S1131F000F901F9018951F920F920FB60F921124E5
S1131F1008B60F9218BE09B60F9219BE0BB60F92EF
S1131F201BBE2F933F934F935F936F937F938F9336
S1131F309F93AF93BF93EF93FF93E0919320F0911E
S1131F409420309709F01995FF91EF91BF91AF91CB
S1131F509F918F917F916F915F914F913F912F91BD
S1131F600F900BBE0F9009BE0F9008BE0F900FBECE
S1131F700F901F9018951F920F920FB60F92112475
S1131F8008B60F9218BE09B60F9219BE0BB60F927F
S1131F901BBE2F933F934F935F936F937F938F93C6
S1131FA09F93AF93BF93EF93FF93E0919120F091B0
S1131FB09220309709F01995FF91EF91BF91AF915D
S1131FC09F918F917F916F915F914F913F912F914D
S1131FD00F900BBE0F9009BE0F9008BE0F900FBE5E
S1131FE00F901F9018951F920F920FB60F92112405
S1131FF008B60F9218BE09B60F9219BE0BB60F920F
S11320001BBE2F933F934F935F936F937F938F9355
S11320109F93AF93BF93EF93FF93E0918F20F09141
S11320209020309709F01995FF91EF91BF91AF91EE
S11320309F918F917F916F915F914F913F912F91DC
S11320400F900BBE0F9009BE0F9008BE0F900FBEED
S11320500F901F9018951F920F920FB60F92112494
S113206008B60F9218BE09B60F9219BE0BB60F929E
S11320701BBE2F933F934F935F936F937F938F93E5
S11320809F93AF93BF93EF93FF93E0918D20F091D3
S11320908E20309709F01995FF91EF91BF91AF9180
S11320A09F918F917F916F915F914F913F912F916C
S11320B00F900BBE0F9009BE0F9008BE0F900FBE7D
S11320C00F901F9018951F920F920FB60F92112424
S11320D008B60F9218BE09B60F9219BE0BB60F922E
S11320E01BBE2F933F934F935F936F937F938F9375
S11320F09F93AF93BF93EF93FF93E0918B20F09165
S11321008C20309709F01995FF91EF91BF91AF9111
S11321109F918F917F916F915F914F913F912F91FB
S11321200F900BBE0F9009BE0F9008BE0F900FBE0C
S11321300F901F9018951F920F920FB60F921124B3
S113214008B60F9218BE09B60F9219BE0BB60F92BD
S11321501BBE2F933F934F935F936F937F938F9304
S11321609F93AF93BF93EF93FF93E0918920F091F6
S11321708A20309709F01995FF91EF91BF91AF91A3
S11321809F918F917F916F915F914F913F912F918B
S11321900F900BBE0F9009BE0F9008BE0F900FBE9C
S11321A00F901F9018951F920F920FB60F92112443
S11321B008B60F9218BE09B60F9219BE0BB60F924D
S11321C01BBE2F933F934F935F936F937F938F9394
S11321D09F93AF93BF93EF93FF93E0918720F09188
S11321E08820309709F01995FF91EF91BF91AF9135
S11321F09F918F917F916F915F914F913F912F911B
S11322000F900BBE0F9009BE0F9008BE0F900FBE2B
S11322100F901F9018951F920F920FB60F921124D2
S113222008B60F9218BE09B60F9219BE0BB60F92DC
S11322301BBE2F933F934F935F936F937F938F9323
S11322409F93AF93BF93EF93FF93E0918520F09119
S11322508620309709F01995FF91EF91BF91AF91C6
S11322609F918F917F916F915F914F913F912F91AA
S11322700F900BBE0F9009BE0F9008BE0F900FBEBB
S11322800F901F9018951F920F920FB60F92112462
S113229008B60F9218BE09B60F9219BE0BB60F926C
S11322A01BBE2F933F934F935F936F937F938F93B3
S11322B09F93AF93BF93EF93FF93E0918320F091AB
S11322C08420309709F01995FF91EF91BF91AF9158
S11322D09F918F917F916F915F914F913F912F913A
S11322E00F900BBE0F9009BE0F9008BE0F900FBE4B
S11322F00F901F9018951F93CF93DF931F921F92F7
S1132300CDB7DEB72FB72A83F8941A81282F392F37
S1132310211588E0380739F461E083E0D8D464E01B
S113232083E0D5D44EC0203488E0380739F462E025
S113233083E0CDD464E083E0CAD443C0211589E0AE
S1132340380739F461E084E0C2D464E084E0BFD4A7
S113235038C0203489E0380739F462E084E0B7D427
S113236064E084E0B4D42DC021158AE0380739F440
S113237061E085E0ACD464E085E0A9D422C02034D7
S11323808AE0380739F462E085E0A1D464E085E0AE
S11323909ED417C021158BE0380739F461E086E03C
S11323A096D464E086E093D40CC020343B4039F4E6
S11323B062E086E08CD464E086E089D402C01FBF6A
S11323C010C08091F1208F3F09F4FFCF8FB789832C
S11323D0F8949981E0EFF0E281818F5F81839FBF60
S11323E01FBF0F900F90DF91CF911F91089581151A
S11323F028E0920729F46093D1207093D2200895A5
S1132400803428E0920729F46093C5207093C62095
S11324100895811529E0920729F46093BD207093F3
S1132420BE200895803429E0920729F46093B120F6
S11324307093B220089581152AE0920729F46093DD
S1132440A9207093AA20089580342AE0920729F4E1
S113245060939D2070939E20089581152BE0920730
S113246029F46093952070939620089580349B40BE
S113247021F46093892070938A200895CF93DF9389
S1132480E091D320F091D420848183FF08C0886038
S1132490848383E0838386EF8093DD2083C0982F39
S11324A0947131F083E083838FEF8093DD207AC0D1
S11324B086FF43C0C3EDD0E2AA81BB818C819D819C
S11324C014962D913C911597821793076CF49C01F7
S11324D02F5F3F4F2093D7203093D820A80FB91FE8
S11324E011968C9187835EC08091D9209091DA20D7
S11324F018962D913C91199782179307C8F420914F
S1132500DB20222321F08681816086834BC01696CE
S11325102D913C911797AC014F5F5F4F4093D920A9
S11325205093DA20D901A80FB91F8C9187833AC040
S113253083E083831092DD2035C0882384F5A3EDE6
S1132540B0E21296CD91DC91139716968D919C91E1
S113255017972885398582179307D8F46E817F8170
S11325609C012F5F3F4F2093D9203093DA2047817D
S1132570DB01A80FB91F4C93888599852817390763
S113258018F482E083830EC087E083831092DD20F9
S113259009C083E0838389EF8093DD2003C08BEF40
S11325A08093DD20DF91CF9108951F920F920FB693
S11325B00F92112408B60F9218BE09B60F9219BED5
S11325C00BB60F921BBE2F933F934F935F936F9362
S11325D07F938F939F93AF93BF93EF93FF934EDFBC
S11325E0FF91EF91BF91AF919F918F917F916F91E7
S11325F05F914F913F912F910F900BBE0F9009BEA9
S11326000F9008BE0F900FBE0F901F9018951F9249
S11326100F920FB60F92112408B60F9218BE09B686
S11326200F9219BE0BB60F921BBE2F933F934F937D
S11326305F936F937F938F939F93AF93BF93EF9326
S1132640FF931CDFFF91EF91BF91AF919F918F9109
S11326507F916F915F914F913F912F910F900BBE9E
S11326600F9009BE0F9008BE0F900FBE0F901F90E1
S113267018951F920F920FB60F92112408B60F925D
S113268018BE09B60F9219BE0BB60F921BBE2F933C
S11326903F934F935F936F937F938F939F93AF93E6
S11326A0BF93EF93FF93EADEFF91EF91BF91AF9158
S11326B09F918F917F916F915F914F913F912F9156
S11326C00F900BBE0F9009BE0F9008BE0F900FBE67
S11326D00F901F9018951F920F920FB60F9211240E
S11326E008B60F9218BE09B60F9219BE0BB60F9218
S11326F01BBE2F933F934F935F936F937F938F935F
S11327009F93AF93BF93EF93FF93B8DEFF91EF9145
S1132710BF91AF919F918F917F916F915F914F91F5
S11327203F912F910F900BBE0F9009BE0F9008BEE2
S11327300F900FBE0F901F901895FC01918195FF8B
S1132740FDCF608380E090E008954F925F926F9296
S11327507F928F929F92AF92BF92EF92FF920F93CC
S11327601F93CF937C014A015B0128013901FC01CD
S1132770848182FF16C0D901C801689412F8B69505
S1132780A795979587951694D1F7B901A801032EBB
S113279036E176956795579547953A95D1F7302D5B
S11327A015C0D901C801689413F8B695A7959795F3
S11327B087951694D1F7B901A801032E37E17695D0
S11327C06795579547953A95D1F7302D8815990512
S11327D0AA05BB0508F4A4C084169506A606B70688
S11327E008F4A0C0F701848182FD04C0880C991C00
S11327F0AA1CBB1CC301B201A50194010E945E1C6A
S11328002F3F31054105510508F48EC08FEF90E04C
S1132810A0E0B0E0C9EF05C0281739074A075B07F5
S113282058F0880F991FAA1FBB1FCD3F0CF481607D
S1132830CF5FC73089F74EC0CC230CF04BC0D50115
S1132840C401880F991FAA1FBB1F880F991FAA1FB5
S1132850BB1F880F991FAA1FBB1F481A590A6A0A6F
S11328607B0ACE3FF4F48DEF9FEF8C1B9109C7FDDB
S1132870939504C0440C551C661C771C8A95D2F7AA
S1132880D501C401B695A79597958795BC01CD014F
S1132890640D751D861D971DA50194010E945E1C83
S11328A035C083E08C0FA501940104C0220F331FAF
S11328B0441F551F8A95D2F7DA01C901B695A79529
S11328C097958795BC01CD01640D751D861D971DD7
S11328D0F5D71CC083E08C0FA501940104C0220F1E
S11328E0331F441F551F8A95D2F7DA01C901B695E3
S11328F0A79597958795BC01CD01640D751D861D1F
S1132900971DDCD72150310941095109832F8F705C
S1132910C295C07FC82BF701C783268381E018C006
S113292080E016C080E014C0D501C401880F991F4F
S1132930AA1FBB1F880F991FAA1FBB1F880F991FAF
S1132940AA1FBB1F481A590A6A0A7B0AC9EF8BCF10
S1132950CF911F910F91FF90EF90BF90AF909F90F8
S11329608F907F906F905F904F9008950F931F9377
S1132970CF93DF93EC018B01009709F436C1803CBF
S1132980910521F460E180E0A2D12FC1C03484E03C
S1132990D80721F468E080E09AD127C1C115E4E0AA
S11329A0DE0721F464E080E092D11FC1C038F1E079
S11329B0DF0721F462E080E08AD117C1C11581E00C
S11329C0D80721F461E080E082D10FC1C038E3E090
S11329D0DE0721F461E081E07AD107C1C039F3E078
S11329E0DF0721F461E082E072D1FFC0C11582E00B
S11329F0D80721F462E081E06AD1F7C0C034E2E094
S1132A00DE0721F462E082E062D1EFC0C115F3E099
S1132A10DF0721F464E081E05AD1E7C0C03283E0EB
S1132A20D80721F464E082E052D1DFC0C115E8E0A8
S1132A30DE0721F461E083E04AD1D7C0C115F9E093
S1132A40DF0721F461E084E042D1CFC0C1158AE000
S1132A50D80721F461E085E03AD1C7C0C115EBE0A5
S1132A60DE0721F461E086E032D1BFC0C034F8E073
S1132A70DF0721F462E083E02AD1B7C0C03489E0E3
S1132A80D80721F462E084E022D1AFC0C034EAE088
S1132A90DE0721F462E085E01AD1A7C0C034FBE070
S1132AA0DF0721F462E086E012D19FC0C03988E0DC
S1132AB0D80721F464E083E00AD197C0C039E9E083
S1132AC0DE0721F464E084E002D18FC0C039FAE06B
S1132AD0DF0721F464E085E0FAD087C0C0398BE0D9
S1132AE0D80721F464E086E0F2D07FC0C03CE8E07F
S1132AF0DE0721F468E083E0EAD077C0C03CF9E067
S1132B00DF0721F468E084E0E2D06FC0C03C8AE0D3
S1132B10D80721F468E085E0DAD067C0C03CEBE078
S1132B20DE0721F468E086E0D2D05FC0C03AF8E066
S1132B30DF0721F460E183E0CAD057C0C03A89E0DE
S1132B40D80721F460E184E0C2D04FC0C03AEAE083
S1132B50DE0721F460E185E0BAD047C0C03AFBE06B
S1132B60DF0721F460E186E0B2D03FC0C03B88E0DB
S1132B70D80721F460E283E0AAD037C0C03BE9E083
S1132B80DE0721F460E284E0A2D02FC0C03BFAE06B
S1132B90DF0721F460E285E09AD027C0C03B8BE0D8
S1132BA0D80721F460E286E092D01FC0C038E4E088
S1132BB0DE0721F460E483E08AD017C0C039F4E072
S1132BC0DF0721F460E484E082D00FC0C03A84E0DF
S1132BD0D80721F460E485E07AD007C0C03BE4E084
S1132BE0DE0719F460E486E072D08D818F738D83E3
S1132BF0F80195818481892B9681911198E0892B24
S1132C008D83F801408151816281738100E018E471
S1132C1028EE31E0CE0199DD9C8198609C839C81F3
S1132C2090619C83DF91CF911F910F910895CF9371
S1132C30DF9300D0CDB7DEB78FEF80937000809321
S1132C40710080937200809373008093740080936A
S1132C5075008093760061E081E490E063D0809118
S1132C60510084FD20C08091510081FD0DC08FB7BB
S1132C708983F8949981E0E5F0E080818260808323
S1132C809FBF818181FFFDCF8FB78A83F8949A819A
S1132C90E0E5F0E088E885838081806180839FBFE0
S1132CA0818184FFFDCF64E080E490E03BD08FB766
S1132CB08B83F8949B81E0E5F0E080818E7F8083B4
S1132CC09FBF2396CDBFDEBFDF91CF910895CF93F1
S1132CD0DF931F92CDB7DEB79FB79983F89499819C
S1132CE0E82FF0E0E059FF4F60958081682360830E
S1132CF09FBF0F90DF91CF910895CF93DF931F92E1
S1132D00CDB7DEB79FB79983F8949981E82FF0E0A7
S1132D10E059FF4F8081682B60839FBF0F90DF9144
S1132D20CF9108951BBEFC0128ED24BF6083089554
S1132D30CF93DF93FC0120E030E0C62FD0E0DE012A
S1132D40022E02C0B595A7950A94E2F7A0FD508B18
S1132D502F5F3F4F31962830310589F740FF0AC075
S1132D6041FF03C0FC01658302C0FC016683FC01D2
S1132D70618302C0FC016283DF91CF91089543E037
S1132D8050E061E080E896E0D3DF43E050E062E0A9
S1132D9080E896E0CDDF43E050E064E080E896E030
S1132DA0C7DF43E050E068E080E896E0C1DF43E03D
S1132DB050E060E180E896E0BBDF43E050E060E291
S1132DC080E896E0B5DF43E050E060E480E896E018
S1132DD0AFDF43E050E060E880E896E0A9DF40E040
S1132DE058E161E080E696E0A3DF40E058E162E06C
S1132DF080E696E09DDF40E058E164E080E696E0FE
S1132E0097DF40E058E168E080E696E091DF40E03B
S1132E1058E160E180E696E08BDF40E058E160E253
S1132E2080E696E085DF40E058E161E080EE97E0DF
S1132E307FDF40E058E162E080EE97E079DF43E035
S1132E4050E060E880E496E073DF43E050E060E245
S1132E5080E496E06DDF40E050E060E480E496E0DA
S1132E6067DF43E050E068E080EC97E061DF40E03A
S1132E7050E061E080E096E05BDF40E050E064E039
S1132E8080E096E055DF40E050E062E080E296E0CA
S1132E904FDF40E057E062E080E296E049DF40E047
S1132EA057E061E080E296E043DF41E050E068E013
S1132EB080E296E03DDF40E057E064E080E296E0A7
S1132EC037DF43E050E068E080EC97E031DF43E037
S1132ED050E068E080E496E02BDF40E050E064E0FE
S1132EE080E496E025DF43E050E068E080E696E089
S1132EF01FDF40E050E064E080E696E019DF0C94C8
S1132F0036040895EF92FF921F93CF93DF931F929D
S1132F10CDB7DEB77C01162F9A01A6E6B1E0F0D456
S1132F202091E4203091E52040E050E0C7D4209384
S1132F30FA203093FB208FB78983F8949981F701A5
S1132F408081612F660F660F682B60839FBF0F908F
S1132F50DF91CF911F91FF90EF900895EF92FF9230
S1132F601F93CF93DF931F92CDB7DEB77C01162F4B
S1132F70BA0180E090E0B1D39B01AC0160E070EF56
S1132F808FE795E4ACD220E030EF4FE755E40CD363
S1132F9020E030E048EC52E42ED46093E0207093BB
S1132FA0E1208093E2209093E3208FB78983F89403
S1132FB09981F7018081612F660F660F682B60830A
S1132FC09FBF0F90DF91CF911F91FF90EF900895D5
S1132FD0FC01808191818B51914080933A2190939F
S1132FE03B210895EF92FF920F931F93CF93DF93AA
S1132FF01F92CDB7DEB78091EF208F5F8093EF20D3
S11330008A3038F08091EE208F5F8093EE2010920A
S1133010EF208091EE208A3088F08091ED208F5F40
S11330208093ED201092EE208FB78983F8949981D4
S1133030E0E0F2E08081846080839FBF8091ED2096
S11330408A3038F08091EC208F5F8093EC201092CE
S1133050ED208091EC20853038F01092DE20E0E005
S1133060F8E08081807F80838091EC208A3008F4AE
S1133070ACC01092EC208091EB208F5F8093EB200A
S113308081E08093DE208AEF90E2A2DF82E1ECEF20
S1133090F0E2AEEFB0E201900D928A95E1F7E09094
S11330A03A21F0903B21E092FC20F092FD204091E7
S11330B02F2050E00DE211E260E070E0C80139D445
S11330C04AE06CE371E2C7013BD46091E020709167
S11330D0E1208091E2209091E320CED2DC01CB016B
S11330E04AE068E271E22CD488E291E29F938F93E4
S11330F08CE391E29F938F9380E390E29F938F936D
S11331001F930F9340D480912F20CDBFDEBF88231F
S113311009F472C0780100E010E0F70161917F01C9
S113312080EA98E00ADB0F5F1F4F80912F2090E028
S11331300817190794F360C021913191620F731F2E
S1133140811D911DE417F507B9F72AE030E040E04E
S113315050E0B4D3822F932FA42FB52F2093E620D1
S11331603093E7204093E8205093E920843191057F
S1133170A105B105A0F48091DF20811126C08091C2
S1133180DE20813011F583E00E9444030E94C103D4
S11331908823D9F08091DE208130C1F316C04F9787
S11331A0A105B10590F08091DF2081110EC08091BE
S11331B0DE20813051F40E9444030E94C10388231D
S11331C021F08091DE208130C1F38091EB208630A4
S11331D038F08091EA208F5F8093EA201092EB20F0
S11331E08091EA20823010F01092EA20E0E4F8E0C6
S11331F08485816084870DC06091E6207091E7200A
S11332008091E8209091E920ECEFF0E240E151E276
S113321093CF0F90DF91CF911F910F91FF90EF907B
S113322008950F931F93CF93DF931F92CDB7DEB70B
S113323062E171E280E092E00E941D0749E151E2FF
S113324061E080E092E00E94A107E2E1F1E2918175
S113325082818F7C26E02483917E91831382816016
S11332608283BF0180E092E00E94B70662E877E1C2
S113327080E092E00E944304E9E1F1E210821182CD
S11332808281807F81608283AF0161E080E092E08F
S11332900E9456076FE270E082E00E94B108082F96
S11332A010E0102F00276EE270E082E00E94B10867
S11332B0082B0093E4201093E52080E092E00E9424
S11332C0A3048FB78983F8949981E0E0F2E08081C8
S11332D0846080839FBF0F90DF91CF911F910F91E6
S11332E008950F931F93CF93DF931F92CDB7DEB74B
S11332F061E271E280E492E00E941D074DE151E237
S113330062E080E492E00E94A107E1E2F1E29181AF
S113331082818F7C26E02483917E91831382816055
S11333208283BF0180E492E00E94B7066EEA77E1EF
S113333080E492E00E944304EDE1F1E281E08083C5
S113334088E081838281807F81608283AF0162E033
S113335080E492E00E9456076FE270E082E00E94EF
S1133360B108082F10E0102F00276EE270E082E011
S11333700E94B108B801682B80E090E0AED1609360
S1133380E0207093E1208093E2209093E32080E496
S113339092E00E94A3048FB78983F8949981E0E4B2
S11333A0F2E08081886080839FBF0F90DF91CF918E
S11333B01F910F9108951F93CF93DF93C0EAD0E03C
S11333C017E01A8334DC7894DADC1A832ADF0E944B
S11333D0FE02DF91CF911F910895EDDF68E270E264
S11333E080EA98E0C3DA80E498E00E947B1162EFFF
S11333F077E180E498E00E94F711E0E4F8E081814D
S1133400887F818386818C7F8683868181608683A1
S113341080E593EC86A397A38081807F8560808379
S11334208081807F816080835CDFDCDDC0E1D1E26C
S11334300F2EFAE0CF2ED12CE12CF12CF02D80911F
S1133440EC208111FECF6091E6207091E7208091FD
S1133450E8209091E920ECEFF0E221913191620FA4
S1133460731F811D911DEC17FD07B9F7A701960184
S113347025D2822F932FA42FB52F2093E6203093AB
S1133480E7204093E8205093E92084319105A10579
S1133490B10578F48091DE20813089F60E944403DE
S11334A00E94C103882359F28091DE208130C1F348
S11334B0C6CF4F97A105B10510F28091DE2081306F
S11334C009F0BDCF82E00E9444030E94C103882317
S11334D009F4B5CF8091DE208130B9F3B0CF5058D4
S11334E0BB27AA270ED04DC13ED130F043D120F0E6
S11334F031F49F3F11F41EF433C10EF4E095E7FB61
S113350029C1E92F4FD180F3BA17620773078407E3
S1133510950718F071F49EF567C10EF4E0950B2E33
S1133520BA2FA02D0B01B90190010C01CA01A00111
S11335301124FF27591B99F0593F50F4503E68F16C
S11335401A16F040A22F232F342F4427585FF3CFAD
S1133550469537952795A795F0405395C9F77EF47E
S11335601F16BA0B620B730B840BBAF09150A1F0C7
S1133570FF0FBB1F661F771F881FC2F70EC0BA0F4D
S1133580621F731F841F48F4879577956795B795D5
S1133590F7959E3F08F0B3CF9395880F08F09927CD
S11335A0EE0F9795879508950CD0EBC0E3D040F0CB
S11335B0DAD030F021F45F3F19F0CCC0511115C1BD
S11335C0CFC0F0D098F39923C9F35523B1F3951BD9
S11335D0550BBB27AA2762177307840738F09F5F30
S11335E05F4F220F331F441FAA1FA9F333D00E2E9F
S11335F03AF0E0E830D091505040E695001CCAF70C
S113360029D0FE2F27D0660F771F881FBB1F2617D0
S113361037074807AB07B0E809F0BB0B802DBF01A3
S1133620FF2793585F4F2AF09E3F510568F092C0E0
S1133630DCC05F3FECF3983EDCF3869577956795A5
S1133640B795F7959F5FC9F7880F911D9695879554
S113365097F90895E1E0660F771F881FBB1F621773
S113366073078407BA0720F0621B730B840BBA0B31
S1133670EE1F88F7E095089504D06894B111B5C0A1
S1133680089598D088F09F5790F0B92F9927B75193
S1133690A0F0D1F0660F771F881F991F1AF0BA9512
S11336A0C9F712C0B13081F09FD0B1E008959CC039
S11336B0672F782F8827B85F39F0B93FCCF3869508
S11336C077956795B395D9F73EF490958095709565
S11336D061957F4F8F4F9F4F0895E89409C097FBE2
S11336E03EF490958095709561957F4F8F4F9F4FD5
S11336F09923A9F0F92F96E9BB279395F695879519
S113370077956795B795F111F8CFFAF4BB0F11F4DB
S113371060FF1BC06F5F7F4F8F4F9F4F16C0882382
S113372011F096E911C0772321F09EE8872F762FB8
S113373005C0662371F096E8862F70E060E02AF0F9
S11337409A95660F771F881FDAF7880F96958795E5
S113375097F9089597F99F6780E870E060E008950D
S11337609FEF80EC089500240A9416161706180695
S11337700906089500240A94121613061406050671
S11337800895092E0394000C11F4882352F0BB0F02
S113379040F4BF2B11F460FF04C06F5F7F4F8F4F65
S11337A09F4F089557FD9058440F551F59F05F3FA0
S11337B071F04795880F97FB991F61F09F3F79F04F
S11337C087950895121613061406551FF2CF4695D1
S11337D0F1DF08C0161617061806991FF1CF869553
S11337E07105610508940895E894BB276627772737
S11337F0CB0197F908950BD0C4CFB5DF28F0BADF19
S113380018F0952309F0A6CFABCF1124EECFCADF71
S1133810A0F3959FD1F3950F50E0551F629FF001DF
S1133820729FBB27F00DB11D639FAA27F00DB11D38
S1133830AA1F649F6627B00DA11D661F829F2227C1
S1133840B00DA11D621F739FB00DA11D621F839F48
S1133850A00D611D221F749F3327A00D611D231F1E
S1133860849F600D211D822F762F6A2F11249F576C
S113387050408AF0E1F088234AF0EE0FFF1FBB1F8F
S1133880661F771F881F91505040A9F79E3F51052E
S113389070F060CFAACF5F3FECF3983EDCF38695DF
S11338A077956795B795F795E7959F5FC1F7FE2BD9
S11338B0880F911D9695879597F90895A1E21A2E80
S11338C0AA1BBB1BFD010DC0AA1FBB1FEE1FFF1FC0
S11338D0A217B307E407F50720F0A21BB30BE40B10
S11338E0F50B661F771F881F991F1A9469F7609557
S11338F07095809590959B01AC01BD01CF01089511
S1133900A29FB001B39FC001A39F700D811D11241C
S1133910911DB29F700D811D1124911D0895F0DF3A
S1133920A59F900DB49F900DA49F800D911D11240F
S11339300895DC0101C06D9341505040E0F70895B3
S1133940BB274A3031F4992322F4BDE29095819546
S11339509F4F01C0BB27FB015527AA27880F991F3A
S1133960AA1FA41710F0A41B83955051B9F7A05DAA
S1133970AA3308F0A95DA193009779F7B111B19327
S11339801192CB0135C20F931F93CF93DF93CDB721
S1133990DEB72E97CDBFDEBF0E891F8986E08C83EC
S11339A009831A838FEF9FE78D839E83AE01465E62
S11339B05F4F688D798DCE0101960DD0EF81F8852A
S11339C0E00FF11F10822E96CDBFDEBFDF91CF91A5
S11339D01F910F9108952F923F924F925F926F9291
S11339E07F928F929F92AF92BF92CF92DF92EF928B
S11339F0FF920F931F93CF93DF93CDB7DEB72B972F
S1133A00CDBFDEBF6C017B018A01FC0116821782E7
S1133A10838181FFBFC1CE0101963C01F6019381F0
S1133A20F70193FD859193FF81917F01882309F428
S1133A30ADC1853239F493FD859193FF81917F0166
S1133A40853221F4B60190E0E3D1E8CF912C212C0A
S1133A50312CFFE1F315D8F08B3279F038F4803251
S1133A6079F08332A1F4232D20611DC08D3261F0E1
S1133A70803369F4232D216016C0832D8260382E93
S1133A80E32DE4603E2E2AC0F32DF8601DC037FC00
S1133A902DC020ED280F2A3040F08E32B9F436FCC8
S1133AA075C1232D2064322E19C036FE06C08AE06B
S1133AB0989E200D1124922E11C0EAE02E9E200D16
S1133AC01124222EF32DF0623F2E08C08C3621F4EF
S1133AD0832D8068382E02C0883641F4F70193FDA7
S1133AE0859193FF81917F018111B3CF982F9F7DA1
S1133AF09554933028F40C5F1F4F9FE399830DC0B6
S1133B00833631F0833771F0833509F055C020C016
S1133B10F801808189830E5F1F4F88248394912C40
S1133B20530112C02801F2E04F0E511CF801A0808D
S1133B30B18036FE03C0692D70E002C06FEF7FEFE5
S1133B40C5014BD14C018201F32DFF773F2E15C0E7
S1133B50280122E0420E511CF801A080B18036FEFB
S1133B6003C0692D70E002C06FEF7FEFC5012AD159
S1133B704C01F32DF0683F2E820133FC19C0822DD5
S1133B8090E088169906A0F4B60180E290E040D156
S1133B902A94F5CFF50137FC859137FE81915F01B9
S1133BA0B60190E035D121102A9421E0821A9108BF
S1133BB08114910479F7E1C0843611F0893639F51E
S1133BC0F80137FE07C060817181828193810C5FA7
S1133BD01F4F08C060817181072E000C880B990B60
S1133BE00E5F1F4FF32DFF763F2E97FF09C0909570
S1133BF08095709561957F4F8F4F9F4FF0683F2E52
S1133C002AE030E0A30140D1882E861844C08537CD
S1133C1031F4232D2F7EB22E2AE030E025C0932DDF
S1133C20997FB92E8F36C1F018F4883579F0AEC07B
S1133C30803719F0883721F0A9C0E92FE061BE2E42
S1133C40B4FE0DC0FB2DF460BF2E09C034FE0AC0C3
S1133C50292F2660B22E06C028E030E005C020E1FE
S1133C6030E002C020E132E0F801B7FE07C0608115
S1133C707181828193810C5F1F4F06C060817181C5
S1133C8080E090E00E5F1F4FA301FED0882E8618BF
S1133C90FB2DFF773F2E36FE0DC0232D2E7FA22E47
S1133CA0891458F434FE0BC032FC09C0832D8E7E77
S1133CB0A82E05C0B82CA32C03C0B82C01C0B92C65
S1133CC0A4FE0FC0FE01E80DF11D8081803321F4B4
S1133CD09A2D997EA92E09C0A2FE06C0B394B3946E
S1133CE004C08A2D867809F0B394A3FC10C0A0FE0A
S1133CF006C0B21480F4280C922C9B180DC0B21488
S1133D0058F4B60180E290E083D0B394F8CFB214B3
S1133D1018F42B1802C0982C212CA4FE0FC0B60155
S1133D2080E390E075D0A2FE16C0A1FC03C088E732
S1133D3090E002C088E590E0B6010CC08A2D867838
S1133D4051F0A1FE02C08BE201C080E2A7FC8DE22B
S1133D50B60190E05DD0891430F4B60180E390E0C0
S1133D6057D09A94F8CF8A94F301E80DF11D80811D
S1133D70B60190E04DD08110F6CF222009F44ECE4A
S1133D80B60180E290E044D02A94F7CFF601868110
S1133D90978102C08FEF9FEF2B96CDBFDEBFDF91DF
S1133DA0CF911F910F91FF90EF90DF90CF90BF9034
S1133DB0AF909F908F907F906F905F904F903F90C7
S1133DC02F900895FC010590615070400110D8F7C0
S1133DD0809590958E0F9F1F0895FC01615070404F
S1133DE001900110D8F7809590958E0F9F1F08952C
S1133DF0DC01FC01672F71917723E1F7329704C04E
S1133E007C916D9370836291AE17BF07C8F30895D8
S1133E100F931F93CF93DF93FB01238121FD03C0F5
S1133E208FEF9FEF2CC022FF16C04681578124815B
S1133E3035814217530744F4A081B1819D012F5F5E
S1133E403F4F208331838C93268137812F5F3F4FEF
S1133E502683378314C08B01EC01FB010084F185B8
S1133E60E02D1995892BE1F6D80116968D919C9138
S1133E701797019616968D939C931797CE01DF9111
S1133E80CF911F910F910895FA01AA27283051F17B
S1133E90203181F1E8946F936E7F6E5F7F4F8F4F77
S1133EA09F4FAF4FB1E03ED0B4E03CD0670F781FD6
S1133EB0891F9A1FA11D680F791F8A1F911DA11DBB
S1133EC06A0F711D811D911DA11D20D009F46894F4
S1133ED03F912AE0269F11243019305D3193DEF69C
S1133EE0CF010895462F4770405D4193B3E00FD052
S1133EF0C9F7F6CF462F4F70405D4A3318F0495D3D
S1133F0031FD4052419302D0A9F7EACFB4E0A6951F
S1133F109795879577956795BA95C9F70097610541
S1133F20710508959B01AC010A2E06945795479597
S1133F3037952795BA95C9F7620F731F841F951F8C
S10B3F40A01D0895F894FFCFC1
S1133F48B901D301EF010C022B024C026F02940257
S1133F58BC02E502110340037203A603DE0318043E
S1133F6857049904DF04290500C201000300000C6A
S10D3F783C25732C25733E0A00005B
S9030000FC
