S01F0000584D4547415F41315F58504C41494E45445F44454D4F312E7372656359
S2140000000C947EE20C94A4E20C94A4E20C94A4E279
S2140000100C94A4E20C94A4E20C94A4E20C94A4E243
S2140000200C94A4E20C94A4E20C94A4E20C94A4E233
S2140000300C94A4E20C94A4E20C94EDE40C9425E554
S2140000400C945DE50C9495E50C94CDE50C9405E6D2
S2140000500C943DE60C9475E60C94ADE60C94E5E63F
S2140000600C94A4E20C94A4E20C94A4E20C94A4E2F3
S2140000700C94A4E20C94A4E20C94A4E20C94A4E2E3
S2140000800C94A4E20C94A4E20C94A4E20C94A4E2D3
S2140000900C94A4E20C94A4E20C94A4E20C94A4E2C3
S2140000A00C94A4E20C94A4E20C94A4E20C94A4E2B3
S2140000B00C94A4E20C94A4E20C94A4E20C944DE9F3
S2140000C00C9485E90C94BDE90C94F5E90C942DEAA2
S2140000D00C9465EA0C949DEA0C94D5EA0C940DEB0E
S2140000E00C9445EB0C94A4E20C94A4E20C94A4E2C9
S2140000F00C94A4E20C94A4E20C94A4E20C94A4E263
S2140001000C94A4E20C94A4E20C94A4E20C94A4E252
S2140001100C94A4E20C94A4E20C94A4E20C94A4E242
S2140001200C94A4E20C94A4E20C94A4E20C94A4E232
S2140001300C94A4E20C941DE70C9455E70C948DE700
S2140001400C94C5E70C94FDE70C9435E80C946DE828
S2140001500C94A5E80C94DDE80C9415E90C94A4E244
S2140001600C94A4E20C94A4E20C94A4E20C94A4E2F2
S2140001700C94A4E20C94A4E20C94A4E20C94A4E2E2
S2140001800C94A4E20C94A4E20C94A4E20C94A4E2D2
S2140001900C94A4E20C94A4E20C94A4E20C94A4E2C2
S2140001A00C94A4E20C94A4E20C94A4E20C94A4E2B2
S2140001B00C947DEB0C94B5EB0C94EDEB0C9425ECC9
S2140001C00C945DEC0C9495EC0C94CDEC0C9405ED35
S2140001D00C943DED0C9475ED0C94A4E20C94A4E202
S2140001E00C94A4E20C94A4E20C94A4E20C94A4E272
S2140001F00C94A4E2F2EEEDEEE8EEE3EEDEEED9EEDF
S214000200D4EE7F7F7F7F7F7F7F7F7F7F7F7F7F7F35
S2140002107F7F7F7F7F7F7F7F7F7F7F7F7F7F7F7FE9
S214000220807F808080807F7F7F7F7F7F807F8080D1
S21400023080807F7F7F7F7F7F7F7F7F7F7F7F7F7FC7
S2140002407F7F7F7F7F7F7F7F7F7F7F7F7F7F7F7FB9
S2140002507F7F7F7F7F7F7F7F7F7F7F7F7F7F7F7FA9
S2140002607F7F7F7F80807F7F7F7F7F7F7F7F7F7F97
S2140002707F7F7F7F7F7F7F7F7F7F7F7F7F7F7F7F89
S2140002807F7F7F7F7F7F7F7F7F7F7F7F7F7F7F7F79
S2140002907F7F7F7F7F7F7F7F7F7F7F7F7F7F7F8068
S2140002A0808080807F8080808080807F807F7F7F4E
S2140002B0807F807F7F7F7F7F7F7F7F7F7F7F7F7F47
S2140002C07F7F7F7F7F7F7F7F7F7F7F7F7F7F7F7E3A
S2140002D07E7E7E7E7F7F8080808080808080807F24
S2140002E07F7E7E7E7E7D7D7C7B7B7C7D7F8081812C
S2140002F0818181818181807F7E7D7D7D7D7D7D7D0B
S2140003007D7D7E7F7F80808080808080807F7E7EF7
S2140003107D7C7D7D7E7E7E7E7E7F7F7F7F7F7F7FF6
S2140003207E7E7E7E7E7E7E7E7E7E7E7E7E7F7F7FE5
S2140003307E7F7F7F7F7F7E7F7F7F7F7F7F7F7F7FCA
S2140003407F7F7F7F80807F7F7F7F7F7F7F7F7F80B5
S214000350808080807F7F7F7F7E7E7F7F7F7F8080A4
S214000360808181818180818181818181808081807D
S214000370818281818181807F7F7F7E7E7E7E7D7D82
S2140003807C7C7D7C7E7F7F80808180808080807F7B
S2140003907F80818181818181818282828282818146
S2140003A0807F7E7F7F8080808182818180807F7E4B
S2140003B07F7F7F7F7F7F7E7F807F7F808080808241
S2140003C083848485868583848485848485858586E0
S2140003D08686888987878786868481817D766F670B
S2140003E0615F616770797F868A8B8B8A8B8A878448
S2140003F07E7C7A7879787A7C7E8082848588888606
S2140004008585868683807E7A7777797C7F838584E8
S214000410848482828283828283838484878F91937A
S214000420999E9FA1A3A7A7A1999281673B0400006C
S2140004301B467BADB9BAB6ACA5ABACB5B1804B39F3
S21400044042536671707178828B929AA1A2A19D9791
S2140004508F847A7068625F6572828D9497959191A9
S214000460908C87827E7C7F838C959CA4A8ADADA65D
S2140004709C8D7E64501D00000C395E92B0B9BCB9EC
S214000480AFABA9A9AB935F3F4451595F63656D7EDF
S2140004908C90949EA5A7A6A094867A6E66605B5BF9
S2140004A0657789959A989595928F8F908E8B847C98
S2140004B07773757B858F99A2A4A49F978C7D6A53CA
S2140004C03A1D0D1A38577A9BAAABA69B979B9B970B
S2140004D095886E58504F54626F74757A818893A1D0
S2140004E0AAA493877F756D6C6A6467727B7F838925
S2140004F08C909799999D9A866E605A585D666D7530
S2140005008398A39F9896938F8F959B9B97938B82A8
S214000510879695837771645751453A4357656F7848
S2140005208089908F8A8B91938C7C70748087898E5B
S2140005309293918D8379767C84878586868681776B
S2140005406E6D685E5E6868656C79899FAFACA39ACD
S2140005508C858C938D817774808B8A87857B72756A
S2140005607A7D88969FA3A3A2ACBCBEA8907A5E2193
S2140005700001001F5397CDD9D0C5B6A5A6B9C5A50D
S2140005805E2C2E414E5D645E6278878C93959291C8
S2140005908D87878C90928B7E75706F7989939595F1
S2140005A0989D9F9B9893877C7365585C6564646E82
S2140005B0777B8497A9B8C3C5BCB1A69A8D7E695AC5
S2140005C0370400002661A2DBDFCFC7BCA48F86906D
S2140005D0906A3E38444E63726E6E7A858E98A1B1EC
S2140005E0B8AB9F957F6D6C615259666C7D96A9BBC2
S2140005F0C4BAA99782797F8181837E7A7A694F49C6
S214000600515B6F7D7A7A828490AAB6B9C4C2AA9DDD
S214000610988E866B1F00010F29599BBDCACBBBA3C2
S214000620979CB6C296503239496277766E727A795E
S214000630747B91A3A4A1A3ABB6B1957666626977E5
S2140006408596A19D9688634A555D5C6F8A989D90B5
S2140006507771797E90A0917A737075859092928D5D
S21400066094A7B0ADAA9C8156110002214572A4B48D
S214000670C0CCC5BBBAAFABA46B20102D547E908106
S2140006807A7F7F8A9CA8B5BCAD9D96877F867B6463
S2140006905E5A4B4E677D8F9FA0958D8A8D989F9F43
S2140006A09C8F735F616661616563657481807F8816
S2140006B0959DA5BBDBE9DBBB946F583203000004B5
S2140006C0337FC3E3EBE2CBB29C9097926532283C33
S2140006D0546B79766D6E798590A5B9BCB8BAB0A220
S2140006E0A0967B6E665249576A7F8D897D726B78BD
S2140006F08C989B9287847B768181757475747E82D4
S2140007007876818582879EBBCFD1C8B18E6D6132E7
S21400071001000D365A94B3B8BDAD96999DA1B8A9FF
S21400072063333949617D7E6E717B7B8191A4B0AB6A
S214000730A9B2B0A49F8E72645D5E738DA6B8AC8AB3
S21400074068453A556F8198A49D897069717780874E
S2140007507A685F606B7A8CA3A9A1A4B4C1C2B29E6A
S2140007607D552A0300032F568DCCCCC6D4C7B2B510
S214000770B3B1A86E2C24344164806E545D6F7884C7
S2140007809BB5C0B4B2C3C1AB9C8B74605151647846
S214000790888D78625F697F99A5A59C88746C727B4A
S2140007A080867F60536B79787C808383787E9AB569
S2140007B0C8D0C0A3806B5416000A314B84C5CED572
S2140007C0D7C2B4AA8E8B8D6233355163717B6F5F4F
S2140007D06069748494A2ADADA8A9A8A29B8D7F740D
S2140007E0635A687F8C836C62666D82A3B6B5A58EED
S2140007F07973777C8079635058696F7980808380BD
S214000800798CAEC9D3CBB095786C4205000C385DB8
S2140008109EC8C8CAC0ADA898848D875B3B4A6274E0
S2140008207B756151607C8A97AAB8BCB8B8AE9C93B9
S214000830856B5753545E7A989D8B736A748294A521
S214000840AFA890776F70727A7E745C4D5261768630
S2140008507D7C857980A4C7E0EAD4A88261400B003D
S214000860001C4D78B2C1BEC7C5B4B0A7A2A98F5DA3
S2140008704F59686C6858434F73827E8B9EAAAEB3FE
S214000880BCBBB1A78F6C616057607E847A6E585B84
S214000890738B9BABAFA895796E767A81877966560F
S2140008A05766766F6A77797B90ADCDE1D7B2937154
S2140008B059360500254A5C93B6B7C1D0B9A6A89BA1
S2140008C0998C563B4D61626C7262647F959198A7D5
S2140008D0AAA699929B97918A7876776D687B888688
S2140008E07A645A637B8FA1ADAFA78D6D6769707D03
S2140008F0796F5A51657E868883838A898FACC5C78F
S214000900B7A6835E3D0C000F345586AEC1CCCCBC7A
S214000910A9A59D9A8E634A506673746D5F5058738E
S214000920818F9DA0A0A4A0ABB2A7988980736962AE
S214000930636E7C7B6B5F62748EA5AFB4B1A58A765E
S21400094072717374776954596D7582898488878942
S214000950A4C1C9C2B3905F3007000D345A8BA4B14E
S214000960C1BDAFA8A3A0AA9A684F58656F6E68600D
S21400097056597284919B938A939FA8B0A9938480BA
S214000980786C6B7A858A8A7E6961687A8E97989C7D
S2140009909D998B7D7D7C8488806D5857657A85808F
S2140009A08188939FACBDC2B793692300012342623E
S2140009B093A4AFC4C6B0A9A7A5A67F493D536C7340
S2140009C07070736F757A798C9A9394A1A8ADAE996E
S2140009D07D6F736F6061707E8A938C7A7073748794
S2140009E09CA5AAAEA08164555B6B7C83796A637311
S2140009F0858E9C9E98938689949E9A7D4408001FB7
S214000A0048638EA5ABBECCBFAEADABA5875439410F
S214000A105974807878797B807571818D939B9FA5BA
S214000A20AC9D83727173777C81848A9393887A7085
S214000A30615C6887A3A79E978A6D5C6272878C7DCF
S214000A4071717179919C918D91979A9894825714AF
S214000A5000203D567E99A0A4B2BAB8B6B3B8A46931
S214000A6040414C586A7A86868185817B7D82899250
S214000A709297A5A0897A746E758591918F8E918FC5
S214000A808881695457667B949D9C9A8C817569749D
S214000A908387847D78767D888C8E8B93A1988874E6
S214000AA0440B0123445C809EABB4BBB7B4B7BBBA5F
S214000AB09F6A4A48484D616F7884847E7E838D980D
S214000AC0948E929393978D786D69708593979D9C7D
S214000AD0928E8B7C6556585F677A95A4A49B918A04
S214000AE0837B77797E817E77757B868F9295988BD0
S214000AF0755018011B4E6A839698A0B3BFC3BFB546
S214000B00B3A77F594B474C5C676C76838D9394965E
S214000B109B9A9590888283857F7368646C80939C8B
S214000B209C969090948A7567626166707D8D938FAF
S214000B308C8D8F918A83838385877E75777D858C60
S214000B408677653D110F335E859A99959BA9BAC342
S214000B50C2B9A382635252585E656C737F888991CE
S214000B609D9F9D9C978A7B6E6B6E7072747684993F
S214000B70A7AAA4978D89878173645E5E687A848845
S214000B808F9291969996918780817F7D807E7878E6
S214000B9073686157483B343C587B97A29A939BA84E
S214000BA0B0B5B3A68B6D574F546067696F7C8B9258
S214000BB08E8D94999A9B958D84746664676F8093E6
S214000BC09FA8ACA59B91837B79736E71726D717BC8
S214000BD07E838E91939A9E9A8D80828A867F77698D
S214000BE05D56483D4048576A7581919797968F8B1A
S214000BF095A0A19A8E80746C69696C757E858C90C0
S214000C008B847E797B828C939793826E63646C7EF2
S214000C1096A6ABABA4968B827B77787673777D7C33
S214000C207A7B777989979BA3A59A8A776B6F70638F
S214000C3059565256616A727A7F828284898A858082
S214000C407B7A808B959D9D928176777C80868A8A3A
S214000C508A85776C6C707B8991959993816D646AAF
S214000C60798B9CA5A49C928880796F6C747D828514
S214000C708174696461687D93A3A9A3968777727966
S214000C807D7A7776727179858C8B84786A605C5908
S214000C90576071869BACB6B8A4836C5B58606B7566
S214000CA07B7975727174808E9BA5A59E9790857BC7
S214000CB077767E8B908E88817E80858B8A827C7FFD
S214000CC0817D74675D585B6C81909EA49B8B7B7462
S214000CD07A7F7A777B7D7E808485827A6D5F5658B0
S214000CE063727E8A97A0A3A19888796A5E5C616623
S214000CF06B727A828585878582879094948E8786A4
S214000D00878A8F908F8F91928E898684868C8D8429
S214000D10776B646261605E5D66757E858B90918F91
S214000D208884837E77727071777D7E7D7C7874721E
S214000D30737880888D8D867D7976716D6F747B83F0
S214000D408A8F8D857E7A77767677797E8893979662
S214000D5093908C8B8D909290909598959088817CAE
S214000D607772695D5553555B65707A82888A8C8D7B
S214000D708E90908B827C7977787B7F8384817C775A
S214000D80726F6F6D6F757A7E838687888885838499
S214000D90888B8A868179726D6A6E7A858E969C9E1D
S214000DA09E9B948E8983807F7E7E81858B9396938F
S214000DB08C8173665C58585D6168727C8285868714
S214000DC08C90908E8B87837D7C7E7E7D7D7A7777F8
S214000DD0787877747170737980878B8C8D8D89861F
S214000DE08688888883796F6C6E70737B8791989CF1
S214000DF09D9A938C85817E7E808283858688888670
S214000E0085857F7369625F62696D6F72767C838C9D
S214000E1092949698948C878684817F7B777473727D
S214000E207376797B7B7C7C7C7D808383817F7E7EF2
S214000E307E7D7D7F8082817D7977787A7E818387CB
S214000E408B90928F8B888582818281818284868630
S214000E5085848483828079716E70706E6E71767B05
S214000E6081878C909393918E8A85817C7673706D42
S214000E706D707375777C7F8182827D7876777675E4
S214000E80797F84898D8A868483807C7B7A7B7C7D4F
S214000E907D7D82888C8C8D8C87817C7C7F7F7C7A24
S214000EA0787574787F868A8C8A8277706E6E707595
S214000EB07C848B8E90909192928D867E76706E6CEE
S214000EC06A6C70757A7C7A79797A7B7A75706D6FD0
S214000ED071757A828B9193918C8787878582817FC3
S214000EE07C79797B8085898A8B8C88807975747605
S214000EF079797776777C8289919592898078716EF8
S214000F006E717982898D8C8887898987837E7A78C5
S214000F10767371727578787673727374767677787E
S214000F20797B7D7F82878B8E90908F8E8D89837F55
S214000F307C7B7C7A7A7B7D808385888B8C8A858196
S214000F407E7B7B7A7977787D84898C8E8D877E759B
S214000F506F6D7075797E8387878586898A89857F98
S214000F607C7B77716D6B6E73777979797A7C7D7D12
S214000F707B7B7D808282828487898C8D8E8E8C8816
S214000F80827B78797A7A7A797B81888C8E8E8B8749
S214000F90827E7A7777797A797B7F84878784838560
S214000FA0837E79757577797B7C7E8082858686855B
S214000FB082807E7C7A767373747676767677797BA3
S214000FC07E818383838482807F7E8083888C8F90DB
S214000FD08E8B87837E7A79797A797A7B8084888902
S214000FE088868483817D787676777B8287888888F2
S214000FF0878683807B7672717273777A7D8083852D
S214001000868584817F7F7D7B797878797978787B0F
S2140010107D80838383858685858281838483858797
S2140010208786858382817F7B757274787B7F8182D9
S2140010308588888685837F7D7B7877787B7F8384A9
S2140010408586888988837D7A79797775767B8083AB
S2140010508584848584827F7C797876747272747ACB
S2140010607F828383838382807F7E7D7E7E7E818572
S2140010708583807E7D7F818383807E7E7E8184855E
S214001080858687868482817F7D7977787C7F828556
S214001090868586878583817E7B7A7A7A787574746E
S2140010A0777B7E80818181807F7C78757372767B8A
S2140010B07F838687868583807F7F7F7F7E7D7D7F1B
S2140010C0808383827F7E7E80828383838181817F0B
S2140010D07E80828587878381807F7D7C7B7B7F8304
S2140010E085858484848382817F7D7C7C7B79787609
S2140010F0757677797B7D7E7E7E7E7F817F7C797834
S214001100797E828484828385858382807F7E7E7ECC
S2140011107E808282818181828281818182838380B6
S2140011207D7A797A7E83868684817D7B7B7D7F81CE
S2140011308385868583807E7C7B797A7B7B7C7D7CC1
S2140011407B7A7B7C7D7D7C7C7D7F808181807F7DC2
S2140011507B797A7E828585848383848482807E7D83
S2140011607D7D7D7D7E808284868686837F7B7A7A7F
S2140011707B7C7B7A7A7C80858A8B8A86827F7E7F60
S214001180808181828281807E7B797979797B7C7E81
S2140011907F80807F8080807F7B7877787A7C7E7E79
S2140011A07D7E7E7E7F81848687878583817F7E7D28
S2140011B07C7B7A7A7B7D7F828586868584827F7A31
S2140011C07777787B7E7F7F8083868788858281801D
S2140011D08080818080807F7F7D7B7A7B7B7B7C7D2F
S2140011E07E808181807F7E7E7E7D7C7A797878792C
S2140011F07A7C7D7D7D7E8082848484848382807DEB
S2140012007D7E7F7E7D7C7D7F8283838383838382D6
S214001210807D7B7B7C7D7E808181828383828180D2
S214001220818181818181807F7F7E7E7D7C7C7B7BCE
S2140012307B7A7A7C7D7E7E7C7B7C7D7F7F7E7D7DDF
S2140012407C7C7C7D7E8081818181807F7E7D7C7CB4
S2140012507D7E7F8183838281818181828281807F7E
S2140012607F7F7F7E7D7C7C7D7E7F7F7E7E7F7E7E99
S2140012707E7F80818282817F7D7C7A7878797B7C94
S2140012807C7C7C7B7C7D7E7E7F7E7E7F8081838275
S21400129080818180807F7C7B7C7C7E818282838053
S2140012A07F7F7F808383817F7E7D7D7E7E7E7E7D49
S2140012B07F808080807F7D7B797A7C7C7E7F7E7E4F
S2140012C07F8183848383827F7F7F7E7D7D7E808215
S2140012D082838686838283828284868685848484CB
S2140012E0827F7E7C787575757474737476797B7D71
S2140012F07E808081828282838382807F7F828585D2
S214001300858381818283838586868788858282839A
S214001310838486888B8D8C8A888381817D76706AAB
S2140013206667696C7176797D808283838382817F2C
S2140013307F7D7977787A7C7E80807F7F81828183CB
S214001340888B8987868787888A8A8A8E9191908FEC
S2140013508D8E8D847970645955545864717D8B9246
S2140013608F8E8F898385837C78767272737273759D
S214001370787E888C8C8F8F8D8F8F8B8786848282E9
S21400138083868C91949594928F8779644D3B3840F0
S2140013904F647D919DA1A09D98918E8A7F726E6FFD
S2140013A06F72787877797C80878C8E8F90919597FE
S2140013B0918B88837F8183858C92939394918C8282
S2140013C0663D1D1627486E90A6ABA59E98939398EB
S2140013D096877061606A767E7E777375797C83887F
S2140013E08B9196979696969899948C8B90949A9BB8
S2140013F097928A7B634013000934658EACB6B1A61B
S2140014009C969696968E75574B576C7F867E75760D
S2140014107D83878A8C8D8D8F9295999E9E99928CCE
S2140014208E99A5A9A7A090775F4A34190306275579
S21400143080A7BFBEB1A79E948E8A837764545466F5
S2140014407C8C8F84797676787E858B92999A98991B
S2140014509A9C9D99918B8F9AA4A6A1947D604938F9
S214001460271A1C35587A96ABB2ABA4A09B948E87ED
S21400147079685B5A677B88897F6F6464697381903B
S214001480989FA2A2A3A5A49F9A91888991999C9BB4
S214001490917A5B3C2822293C58738796A2A8A8A577
S2140014A09F988F867B6D62606875838C8B81756B69
S2140014B065656C7B8C989FA3A5A5A7AAA69D938B14
S2140014C086878D908B7B61452B1E243F61859A9B7A
S2140014D09A999C9E9C958D84796D64656F7D8B939F
S2140014E09590887D7064626C7C8C99A1A4A4A6AA51
S2140014F0AAA398908D8E908E836A48250D06163B7B
S2140015006B96AFB2AA9F99999C9D9889755F535424
S21400151063788C9A9F9E989084766E6F7783919C62
S214001520A0A2A4A5A4A4A3A09995938C7A6145240F
S2140015300B0410325D87A7B4B0A59D979495938948
S214001540766254535E758C9AA09F998E847C797BC4
S2140015508089939AA2A6A4A3A4A5A6A8A5998B7AE7
S214001560634A311D121122426A8EA9B4B0A59C9816
S21400157095908A8070615B5A5F6C7D8D999D9A9379
S2140015808A838182858B9093989EA2A3A8AFB3AEE0
S214001590A5977F654C382A1F1C243D5E7D9AABAB11
S2140015A0A2988F8A88898983776C65656D767C803A
S2140015B0868E9597928B86878B8C8D8F90949EA621
S2140015C0A8ABB1B5B2A48A663F200D050D274A6FB9
S2140015D094ADB1ABA69F978F87807973706F6E704E
S2140015E0757B7E7E81899498968E8785898F95995E
S2140015F09A9B999AA0A9B0B6B29E7C562F11050266
S21400160018436B8FA6ACA9A49C948C8680796D66D3
S2140016106B778289867C777D888F91908A837F7CA2
S2140016207C83919DA6A7A5A8B1BABEB8A688643A41
S21400163016090711345F849FAAA59E98908988850D
S2140016407B706B6D77828A8A837B787D86898883B8
S2140016507E7C7E82888F959AA1A9AFB7C0C2BCABAC
S2140016608D6944210A0814335A7E99A19E9A978F51
S214001670878179736E6B6C737D858B8D8D8D909164
S2140016808C857C74717379818990959BA4AFB9C35E
S214001690C7C0AD8F6A432415162947668392999B67
S2140016A0969189817B76716D6D72787E84898D9036
S2140016B09396958D847B74717379818A9295989FA1
S2140016C0A6AEB8BCB8A8906D421D0A0E2C557B95E8
S2140016D0A1A39E99918373665F5D5D636F7E8C9612
S2140016E09794959A9E9A908378747476777B828680
S2140016F08C949AA1AAB2B5B2A68F6F472411183956
S2140017006489A0A59D95928E8577655549454E6559
S2140017108199A7A9A19B9B9E9A908177757A8084D0
S2140017208787868B9097A0A6A9A9A698816037166A
S2140017300A1C4879A2B7B6A6978E88817666523F6D
S214001740363E577997AAAEA9A6A7A69F9282787723
S2140017507E8588888481818796A3ADB5B3A590736E
S2140017604C260F0D295787ABBBB7A99C91877D6E7A
S2140017705B4736333E587A98AAB1B1ADABA59B8C81
S2140017807D767A81878C8B87868A929EA7ADADA25E
S2140017908F7654331C15284F7BA0B7BDB5A89D91F6
S2140017A0867865503E34394A637E94A3ABADADA9C6
S2140017B09F93847A797F878F918B8582848C99A575
S2140017C0ACAA9D8769482B1A213F678EADBAB7AD84
S2140017D0A39A908575604939343C4F667D909EA7E4
S2140017E0ADB0ABA193837A797F8991928D888587F6
S2140017F08F9AA6ABA6967D5B391E162B517AA1BA98
S214001800BDB5ABA1978E826F573E2F2F3E556D828A
S214001810949FA8AFAEA6998A7F7A7D86909695917A
S2140018208B898C949EA39F9584694B2F1E26446AB1
S21400183092B2BEB9AFA59A91887B674E372C303FDF
S214001840546B7F91A3B4BBB6A69281797B838F97A6
S21400185099958E898A8F989E9D968A755A3E2929D3
S2140018603F6288ABBCBBB2A89C928A7E6E5841335E
S21400187031374557687A93ADC0C5BAA288766F747B
S21400188082939EA19D969090959A9B968A755A3EB5
S21400189027263B5D84A8BCBEBAB2A69C907F6D5737
S2140018A04237363B45515E6D849FB5C2C0AE927CD2
S2140018B070707A8A969B9C9A97989B9B978F83705A
S2140018C059422F2E426082A4B8BCBAB4A99F948312
S2140018D0705C4A424346484C54607593ADBEC0B3F4
S2140018E09A8275737B888F8F8E8E8F969FA39E9518
S2140018F086705A453332445F80A0B4BABAB5ACA2FB
S2140019009785705B4A4348505659595B68809CB12E
S214001910B8B09C887C7C859198979089868C969C9C
S2140019209A907F69533F343A4E6988A4B4B7B6B1EB
S214001930A9A19788735A474149555F635F5D667CE6
S21400194099AFB8B19E8B7E7E8997A09F968881843A
S2140019508D94958B7868503D343C516A86A2B4BA13
S214001960BAB5ACA398887259453E46535E625F5B33
S214001970617592ACBAB7A58F7E798494A0A5A09322
S2140019808885878A8A84756250403D4B60758DA332
S214001990AFB5B6B2A9A0968772594640495965694F
S2140019A0645C5C6B85A1B3B5A892807B8596A4A980
S2140019B0A29386808185857D6C5B4D4245586E7FFF
S2140019C092A1AAB0B5B5AEA394826D5545424B5BC5
S2140019D0696F6C63606A7D93A4ABA5978A858B98C4
S2140019E0A3A8A192847A787B7E7A6E5E4D42486088
S2140019F0788C9CA6A9ACB0B1ACA0907E6852464646
S214001A0051637278746B666A7787969D9A928B8A12
S214001A10919FABAEA59481726C6F726F655648430A
S214001A20536E8597A4A9AAACB1B2AEA28E775F4BCF
S214001A3043485464707473707076808D9799958D52
S214001A408A8D97A4AEAEA5947F6B5F5B5B5C5B559F
S214001A504C50658097A8AEACA7A6A7A8A59A897291
S214001A605A48444D5C6A74757372747A848F95957F
S214001A708F88868B9AAAB5B6AA947961524C4A4D3D
S214001A80525252607A94A8B4B4ABA29FA0A19E947E
S214001A90846E584B4B56636F7675737273777F8779
S214001AA08C8F8D898991A1B1BCBCAE937357443B92
S214001AB043424B505568849EB0BCB9AEA39D9C9CD7
S214001AC09990806A554B4E5A6872797A787777790A
S214001AD07D84898C8B898A92A0AFBABBAE957557E8
S214001AE041373840484B566D8BA5BAC3BFB2A59B4D
S214001AF0969390897A65544F566471797D7B787693
S214001B007575787E85898D8E8F96A2AFB8B7A98FAA
S214001B1070503B323641474D5B738FA9BEC7C1B389
S214001B20A599928E8B82726054535E6C777D7D7A17
S214001B3077757474777C81888F959AA2ABB2B5AEB0
S214001B409D83664A3731363C434F647E98B1C5CB99
S214001B50C3B5A598908A84796858525663727C807B
S214001B60817E7975747274797F88929AA1A8ADAFD8
S214001B70ACA08D745841373840474E5C70879CB394
S214001B80C3C7C0B2A09187837F77695D5A5F6B79C0
S214001B908286868079746E6B6D737B8795A0AAB2F9
S214001BA0B3AEA2907A614B3E3B4149505A697C8F56
S214001BB0A0B0BBBDB6AB9E9288837D72655E5E6448
S214001BC06F798085847F78716A686D7682909DA92A
S214001BD0B3B8B4A8967F6751423D43505B636B76BB
S214001BE083909FACB2B2ABA1958A8581796D635F15
S214001BF0616A7681888C8981756A63656D7784965B
S214001C00A5B0B8B8AF9F8A735E4F484A535C636C02
S214001C10757D869099A1A7A6A1988E8784807A74F0
S214001C206F6C6E747B7F8284817A71655F61697583
S214001C308697A5B0B8B8AEA08E78665953555C6442
S214001C406B71767B80888F979FA19F9991898380FF
S214001C507B7673706F727475787976736E67646866
S214001C60707B8A98A3ABAFADA59787766A615F62F3
S214001C70686E7275797E82888D92969897938C8618
S214001C808382817F7D7A7876747372706D6A6663FC
S214001C90666D76818F9AA3AAADAA9F907F6F645FC8
S214001CA061687075797C7E828487898B8C8E8E8C39
S214001CB088858688898986827C76716E6D6A676378
S214001CC05E5E636D798695A0A8AEAEA99D8E7C6B90
S214001CD0605D616A73797D80828485858686868765
S214001CE0888A8A8B8D8E8D8B87807A736E6B6967F8
S214001CF0656261636A74808D98A0A6A7A49E948886
S214001D007A6E67666B737B8183838281807E7C7B41
S214001D107B7E8286898D909495948E877F756D687C
S214001D2064615D5B5C636D7987949DA3A6A4A09AAD
S214001D309085786F6A6D757C818382807E7D7C7CE1
S214001D407B79787B81868B91959898948D857C732A
S214001D506D6A67635F5E6167707A858E969C9E9DEE
S214001D6099938B82797373777D828484817F7D7D5E
S214001D707D7D7B79777A7F858C92979997928B83F6
S214001D807B75716E6A666261646A727B858C9194FB
S214001D909492908D89837D797A7F84878785817DEB
S214001DA07A797A78767373777D858E969A9B9791F3
S214001DB08A827B75726F6B676463656B747D848BD8
S214001DC0909292908D8A87837F7D7F838688878492
S214001DD07E78767574727273767C858F989D9E99E0
S214001DE09289807974716F6C6968686B71777D828F
S214001DF0878A8B8A8886858583828284888C8F8D65
S214001E0089837C75706D6C6B6C6F747C87939DA3F7
S214001E10A49F978E857D77716B66626163676E752A
S214001E207C83898E908F8D898683818284878A8C35
S214001E308C8A857F78716D6B6C6E71757B838D97E0
S214001E409FA4A39D958B827A746E6A666363666AA6
S214001E506F757C82878A8B8A878482818385888A4D
S214001E608C8D8C89847D77706C6B6C6F72777D85BA
S214001E708F9AA2A6A49D9389817A746E696562631F
S214001E80676D747A80848788888684828282848656
S214001E90898B8C8C8A87837D756E6866666A6F769A
S214001EA07E88929BA2A4A29A91877E77716D6967BD
S214001EB065676B6F757A7F84878889888685858550
S214001EC08688898A8A8986837E7A74706C6C6D6F40
S214001ED0747A818990979C9D9A938B827B75716E9C
S214001EE06C6B6C6E7175787B7E8183848382818156
S214001EF08385888C8F908F8C87827B756F6A6767E7
S214001F00696E757D848B92989B9B97908880797478
S214001F10706E6D6C6D6F73787C8083848585858428
S214001F2084848586888A8B8C8B8986817B746D6891
S214001F3066676B717980888F959A9C9A948C837B60
S214001F407672717071717274777A7D7F8182838206
S214001F508281818183868A8C8E8E8D8A8680797234
S214001F606C6866676B70767E868E959A9B99938C66
S214001F70857E7876767675767677797B7D7E7F7FBA
S214001F807F7F7F7F808183878B8E8F8F8D8A847DF6
S214001F90756D666363656A717A838B93999C9B976C
S214001FA09189817B7675757678797B7D7E7F7E7D5F
S214001FB07B7979797B7D808385888B8D8D8D8B87EA
S214001FC0827C756D6765666A6F757C848C93989A5B
S214001FD098938E877F7975747577797C7D7E7F7E02
S214001FE07D7C7977757375777B7F84888C8E8F8DF3
S214001FF089847E766E6A68686A6F747A818991963B
S214002000999896918B857F797674747576787979B8
S2140020107A7B7B7B7A797777777A7D818486898BE2
S2140020208C8C8B868079726D69686A6E737980880D
S2140020308F949696938F8A85807C7A7A7B7C7D7E39
S2140020407D7C7B7A7979797979797B7E81828385C3
S2140020508687888786817C76726F6D6E7073777CD4
S21400206081888E929494928E8A8683807E7C7D7DF3
S2140020707C7C7B7A79797977767677797B7D8186B1
S214002080898A8C8B8987847F7A746E6C6C6E737980
S2140020907F858A8E91939391908E8A857F7C7A78BD
S2140020A07877757171747675747678797B808587A4
S2140020B0898C8D8B89888684807D7A767778787B04
S2140020C07F848A8F91908F89837F78716E6B696B1E
S2140020D071777E81828282828282807E7B79797B22
S2140020E07F84898F929496979796948F877D726651
S2140020F05A4E4748515F7284919A9D9D9A97928E48
S2140021008B867E7978777677797A7A7F84868C91D3
S214002110989FA2A39C8F7B614938333C4F657A8A8F
S214002120939596979797958D837B7472767A7B7C3A
S2140021307F84888E969EA4A4A4A29A8D7C6445274C
S214002140171B3253799BB2BCBBB4ACA39B91826F76
S2140021505E55545B656E767E8790989EA4A7A9AA66
S214002160A9A397867156341D1B2B476A8CA4AFB162
S214002170AEA79F9A958C7B69605E626C767B7F8645
S2140021808A8C92979CA2A4A29E94846E53331E1EA1
S2140021903152789BB4C0C2BDB5AA9D8F7C665147AC
S2140021A04A54616C767D85919CA7B0B6B5B0A89967
S2140021B0846B4C2B141123436B93B1C1C5C0B8ACD0
S2140021C09F92816B564B4C57677782878A90959D76
S2140021D0A4AAACA9A398866F53361C11203E638B25
S2140021E0ACBFC2BEB5ACA3988A76604D484E5B685D
S2140021F0727B848C97A1ACB6B9B6B1A6947F623DCB
S2140022001A070B22446D92ADBEC4C2BCB6AFA28DF7
S21400221071584B4A515C676F788694A0ADB8BAB8CF
S214002220B1A394836A4B2C120B1B395F86A6BBC5E1
S214002230C6C0B6AC9F8C735A49454E5B68707883AF
S214002240919FADB9BEBDB5A8998B7A664D321B1469
S2140022501F3A5D809DB0B8B7B2AFAAA29480695706
S21400226051545C64676E7A899DB2C1C7C7BDAF9D85
S2140022708A765F4327171627466B8EA9B8BBB5AD7F
S214002280A69F928069564C4F59656D737A8796A8BB
S214002290BBC8CBC5B7A5927C63482F1D1B2A4566D5
S2140022A087A3B2B5B0A9A29B91826F5E55575F69AE
S2140022B07073777C8797AABDC9CAC0AF9A826547F4
S2140022C02C1A1D304F7394AAB2B0A79D96928D819A
S2140022D06F5F575B6571787C7D7F8590A3B5C4CAB8
S2140022E0C3B49D80603C1E10172D4D7396ADB8B9D3
S2140022F0B1A79C948D7F6D605B5F69747979797BFB
S214002300818F9FAFBDC3BCAF9E85684727161A2C2A
S214002310496E8EA6B5BAB4A99C928778675A575F5D
S2140023206B787F8283848A94A1AFB8BAB4A7947E70
S214002330664A2F1C1C2D48698DAAB9BDBAB0A1905B
S214002340847765555057667783888785878C96A3EC
S214002350AEB5B3AB9E8D755C4028202C436284A13D
S214002360B5BDBAB2A695837363524C53657988910E
S214002370918C89898E97A2ACADA79C8A73593E280A
S214002380232E46678BA9BEC7C3B7A7938272615137
S214002390494D5C7083919795908E8F939DA6AAA5C4
S2140023A099856B4C3023293B57799AB2C1C7C2B77F
S2140023B0A7937D6651433F475A7287959C9E9D9B87
S2140023C09DA1A7A8A59D8E7759381F1B293F60841D
S2140023D0A1B5C2C8C5BDB19F86674C3C3841556C97
S2140023E0808D94979A9EA5ADB2B2AB9F8D755836E8
S2140023F01C1A2A426285A0B1BBC0BFBBB4A58E6EB4
S2140024004E39343C4E647887929BA0A6ADB3B5B2E5
S214002410AB9F8D76573419142642668AA6B6BEC17F
S214002420C2C1BBB098744D31282F40586F82909A25
S214002430A0A6AEB4B9B8B1A38F7757341B182945F8
S2140024406688A1B1BCC1C2C1BBAF96724E352D33F2
S214002450455E7689979FA2A3A6AAAEAFA79A886F75
S2140024604F3021243550708CA1B1BCC3C6C4BEAE5B
S214002470916C4A342C314158708696A0A7ABAFB207
S214002480B5B1A4937D603E2A293448648093A1ACFC
S214002490B5BBBFBFB8A5856346353138485E758C79
S2140024A09DA5AAAEB3B6B5AC9B84674529222E433C
S2140024B05F7D919CA5AEB6BDC2C2B8A07D5C443619
S2140024C0333B495D748998A2A9AEB3B6B3A8987F8A
S2140024D061412C2B394E6882939CA3ABB1B7BBB934
S2140024E0AE977A5F4A3E3B4351647A8D9AA4AAAE71
S2140024F0B1B2ADA392775738282A384D6A8495A191
S214002500ABB2B8BEBFBAAA8F735A483F3F475364B0
S214002510798C9CA7AFB4B6B4ADA18E704E3025288A
S21400252037506F8A9CA8B1B6B9BAB9B19E846A56BC
S21400253048414148586E8498A5ABAFB2B1ACA29260
S2140025407A5B3C2C2E394D688194A1ACB3B8BAB9ED
S214002550B2A28D7867594D45444B5B71899CA9B2F0
S214002560B8B7B0A69780634430313B4B6279899503
S214002570A0A9AFB4B5B1A69483776B5F534A49520E
S214002580657C91A0ACB4B9B7AFA28D704C2E252E49
S21400259040597487939DA7AFB6BAB9B09C85736748
S2140025A05D56504B4E5C708598A8B4BCBEB9AF9EC5
S2140025B083623F27253247627C8B96A0A9B1B7B9C4
S2140025C0B6A78F78685F5B5958575D6B7B8A97A272
S2140025D0ABB2B4B1A8967B59392B2F3D536E828E81
S2140025E098A3ACB3B9BAB39F856F635F5E5E5A5962
S2140025F0606F7D8A95A0AAB1B3B09F8564443332DC
S2140026003B4D64788693A0ABB3B8BAB29F87736726
S2140026106362605C5A5F6E7E8A949FA9B1B6B5AA63
S21400262093704A322D34435B717F8C9BAAB6BDBF34
S214002630B8A48972645E5C5C5B5B5F6C7D8B95A006
S214002640AAB0B4B5AE9A7A5235303543586D7B850C
S21400265093A1AEB8BDBBAD947C6C625D5B5B5B5F0B
S2140026606B7B8790989FA7ACB0AEA2896541313549
S21400267042546979828C9AA7B3BBBEB7A1856E60B7
S2140026805A57595D606878878E959DA2A7ADAFAA08
S2140026909B7E583A323744576A7682909FADB7BED3
S2140026A0BEB2987D695D5857595E6571818E929667
S2140026B09B9FA4AAABA38E6C4A3B3D465567727996
S2140026C08594A5B3BCBFB79F826B5D5656585C61B8
S2140026D06B7B8C979CA0A2A2A4A59E8D71514042B4
S2140026E04B596C787B808B98A8B6BEBCA98F79694D
S2140026F05F5C5B5B5E6572818D959A9C9EA1A3A0D4
S214002700947B583F3C47566A7C82848993A0ACB63B
S214002710BAAF957E7066615F5C5C616D7D8C969CE1
S214002720A0A3A4A5A39A856543363D4A5D737F8220
S214002730868E99A4B0B9B9A78D796C635E5B5B5D34
S2140027406674849099A1A7ABABA79F8C6C4934376D
S21400275045576E8186888F98A1ABB4B8AB917A6BDB
S214002760625E5C5C5E6571818E97A0A5A8A8A6A037
S214002770947E5D3D3139495F77858C939CA4ACB3DC
S214002780B7B19D836F635E5C5D5F636B78858F9684
S2140027909DA3A6A7A59C8D724F37353F516A7E89AB
S2140027A0919AA3AAAFB3B2A38A73645D5C5D6165B8
S2140027B06C78848E959CA3A8AAA8A1917753352EF1
S2140027C038475F76838C97A3ACB3B7B9AF967C6B6C
S2140027D0625D5C5D606673808A91969EA6ABACA6D1
S2140027E098805C392D35445A74848B94A1AAB1B470
S2140027F0B5AD967B69605C5C5E636974828D93960A
S2140028009BA2A8ABA89D896A462F323C4D687E885D
S214002810909BA8B1B6B9B4A38872665F5B595C6238
S2140028206B79878E92959DA4A9ABA6987E5A392E71
S21400283035415871818A94A0ADB5BABBB19A7F6B09
S214002840605A575A616873818A8F949BA3AAACA872
S2140028509D896B462F2D3748617886919EACB5BA18
S214002860BDB9A78C72605754565E68707D89909487
S214002870999FA6ABAAA3947B56372E3340566D7EFF
S2140028808996A6B4BCBFBDB09376625855555A63B8
S2140028906B76858F94999FA6AAAAA49681624032E9
S2140028A03841506779838F9FADB8BDBFB79F816AA7
S2140028B05E5854565E6672828D929599A1A8ABA812
S2140028C09C866A473236414F6579838A97A5B1BAA6
S2140028D0BCB9A88C73655D58565B636E7D8B92930E
S2140028E0959CA4AAABA28F735237343E4A5D737F81
S2140028F0858F9DABB6BBBBB1987D6B605855586055
S2140029006C7B8990919197A0A8ACA99B8364423276
S21400291038435368787F8896A6B4BEC2BDA8886E32
S2140029205E5754565D6673828C9092959DA7ABA9B0
S214002930A08E72503837414C5F727D8592A1AEB83A
S214002940BEBEB09476625955555B646E7D8B91948D
S21400295096999FA6A6A0927A593E3A434D5E707B02
S214002960828D9BA8B3B9BBB2997D6A605C5A5B61E5
S2140029706C7A8993939293979FA3A0947F60433C2D
S214002980475362757D7F85909EACB4B7B39F8370C6
S21400299066615E5D6069758593959392949BA0A031
S2140029A0978466463B455160748182858C98A7B2B1
S2140029B0B7B6A68B7468635F5D5F65707F8F94940F
S2140029C09494989D9D96866B4D3E45515F717F838E
S2140029D0858C97A5AFB4B5A98F7667605E5C5E649C
S2140029E06F7F91999A9896979A9A94876E4F3C40E3
S2140029F04D5D708086858992A0AEB6B8B0997D6927
S214002A005F5C5B5B626D7C8E9A9C999493959591C6
S214002A1088745741414F5E70828987878D99A7B128
S214002A20B4B09E836D635F5E5C5F68768999A09C98
S214002A30969392918F88785C423E4D5E72868F8A1E
S214002A40868A93A1AEB3B0A1866F6360605F61674C
S214002A50748697A09E97918F8E8B86765B413F50AB
S214002A6063778B938D86868E9DABB1AE9E846F64A6
S214002A706262626167748598A4A39B948E8B8A8435
S214002A80755B3F394D63778D989288858B9AA9B18F
S214002A90B0A28972686463615D606D8096A5A89E29
S214002AA0948E8B8884765D40384A61768C999489BA
S214002AB0858A97A6AFAFA48D76696463625F606A05
S214002AC07C91A3AAA2978F8A8681755F443A4B634E
S214002AD0788D9A978B848691A0AAADA6937C6D6517
S214002AE062615F5F697A8EA2AAA5988D87827F76DB
S214002AF062473A475F778E9E9D9187868D9AA5A8F6
S214002B00A1907C6E6766666361697A90A4B0AC9D9E
S214002B108B7E76716A5C483F4C667F96A4A2958849
S214002B20838A97A2A59D8B786B66686A68646979C4
S214002B308FA5B1AFA18D7D746C6457453E4E6984F8
S214002B409CA9A597898186939EA29988776C696AC5
S214002B506C6964687990A7B4B1A089776E6962568B
S214002B6046404E6986A0ACA99B8B8184909DA19817
S214002B7088796E6B6D6E6A6465738AA3B3B4A58C30
S214002B80786C645E564945536C88A1ADA89B8C81D1
S214002B90828E9A9E9686786F6B6C6F6D6869778C5E
S214002BA0A3B3B5A68C75685F584F4543506987A395
S214002BB0B0AC9F8F83828E9BA09888796F6A6A6C70
S214002BC06B686A788EA5B5B9AA8E736359524B4561
S214002BD048566E8BA6B4AFA29386838A93958D7E55
S214002BE0716B6A6B6E6E6D6D7A92A9BABEB0937495
S214002BF05F534B423E4759708DA9B7B1A19284806E
S214002C008893978E7F726B6A6C6F6F6C6B788FA6EB
S214002C10B8BDB095765F5249403E495B7290ADBCF8
S214002C20B8A9988881858F948C7C6F69686A6D6D69
S214002C30696B7990A8BABDAE91725C524A43434F15
S214002C405F748FA9B6B2A392857F848F938B7B6FB8
S214002C506B6D7275736E6E7B91A9B9BBAA8C6B5542
S214002C604B47414352647892ABB7B3A494878287AC
S214002C70909288796C676A70747471737F93A9B840
S214002C80B7A68967514A4742485B6F8198ADB5B091
S214002C90A1918580848D8E85766C67686F74747359
S214002CA0758193A8B6B4A284634D4643404A6178C2
S214002CB08CA0B0B4AB9B8D837F838C8C82776F6C3B
S214002CC06F777C7B78788191A4B0AD9B7C5C484420
S214002CD04445526A8193A4B1B1A7988A807C8188C2
S214002CE0877E746D6B6F787F7F7C7E8694A4AEA89B
S214002CF0937455434245495A72899BABB5B3A79620
S214002D00857A777C838279706B6A707A8385838410
S214002D108C98A6ACA38B694A3B3C414B607B92A641
S214002D20B5BBB6A9958378767C827F756C68686E2D
S214002D307A8589898B9099A3A69C8362453739400A
S214002D404E678299ABB7B8B1A3918076747B807DCD
S214002D50746C6869707C888F9193979DA2A2967C0C
S214002D605B3E32364053708BA1B3BCB9AF9F8C7BB1
S214002D707070787D7A726C6869717E8C9598999A75
S214002D809B9D998A71533A3339465C7A94A9BAC2A4
S214002D90BEB2A08B776B6A7176736C67646772815C
S214002DA0909A9E9D9B99979081694F3B37415065BD
S214002DB08098AAB8BFBBB09F8A7669686F75746E34
S214002DC0696568738394A0A4A29E999388776047E8
S214002DD0373542546C889FAFBABEB8AA98857368D8
S214002DE068717675706965687484959FA2A09B95D6
S214002DF08E83725D47393A485D7693A9B7C0C0B6F0
S214002E00A38D78665D606A7375726D6A6D7A8B9A4B
S214002E10A3A7A59E958A7C6955423A3E4D637E9847
S214002E20ADBBC3C0B39E8872625A5D687376767413
S214002E307276818F9BA1A29F978D80705E4C3E3BE1
S214002E4044566D88A1B4C1C6C0B19B836E5F585905
S214002E50626B707273757C8897A2A6A6A1978A7A11
S214002E6069594A40414B5B728CA3B5C2C6BDAC954E
S214002E707D695C5658606970737579808B98A0A5DB
S214002E80A49E94867565574A434854657C93A6B4B9
S214002E90BFC1BAAA957E6B5C55575E676D7071733D
S214002EA078818D989EA1A09B8F807061544D515E55
S214002EB06F8294A1AAB0B1AA9C8B78675D5B606AAA
S214002EC0747A7A7774767C858D949797958D8276CA
S214002ED0695D5659647384939DA4A9AAA3968473C6
S214002EE0655D5C636D767B7B7A787B81888D91925D
S214002EF0908E887F756A615D626C7A88949CA1A5C5
S214002F00A59F928271645A5A606B75797C7D808524
S214002F108A8E9192918D8880766C625D5F697787E4
S214002F20949DA1A4A4A19789796A5D56586068709B
S214002F30767B7E82878C8F90908E8B857E766D6674
S214002F40646973818E989D9E9D9B958C7F71655C50
S214002F50595D656E757A7E82868B8F9192928F8B85
S214002F60847C726A6362687483929C9F9E9B968F31
S214002F7085796D635C5B616A72797E8184888B8DEE
S214002F808E8D8C8985817B756E6A6A6F7A87949C34
S214002F909D9A958F877D7267605C5D65707980838A
S214002FA08586898B8C8D8C8A87827E79746F6D6D11
S214002FB0727B88949C9E9C968F877C7167605D5E12
S214002FC065707A81848688898B8B8A8885817D79ED
S214002FD0757271717379828D969A9A96918B847CAC
S214002FE07268605C5D646F7A8287898A8B8B8B8A55
S214002FF08885817D7975717070737A838D969A99BC
S214003000948E8680787068615E5F66717C858B8E34
S21400301090908E8B87837F7B797876747475777DB6
S214003020868F979A99938A81787069625E5C5F67EB
S214003030737E888F939494918C86817D797776744D
S214003040747476797E868E95999792897F766E6669
S214003050615E5E636C77838E95989896918B847D7F
S21400306077747374747576787A7F868E959999944A
S2140030708A7F756C645F5C5E636C76828D959A9DC4
S2140030809B9791898078727070707275797D82884E
S2140030908E93969590877C7269635F5E61677079A0
S2140030A0848E959A9B98948D867F787372727376C9
S2140030B07A7D81858A8F9395948E84796E67636115
S2140030C062656B727B838B919494918C87817B77FE
S2140030D0757576797D8286888B8D8F91908D877EAB
S2140030E0746B65626263686E767E858B8F908F8B5D
S2140030F08784807D7B79797A7C7F838688898B8DAF
S2140031008F8E8C867E746B656362656A70777E834D
S214003110888C8E8F8D8B8885817E7B797A7B7E836B
S21400312086898A8C8D8E8D89837A7067615E5F62F0
S21400313068707880868B8F9293928E8B86827D7A4B
S21400314078787A7D8286898A8B8C8C898580786E61
S21400315066615F62666D757D84898D9092928F8CB4
S2140031608884807D7B7A797A7C8185888A8B8B8A35
S21400317087827B736B646162666D737A81868A8DE3
S2140031808F908F8D89868382807F7D7C7C7C7F82FA
S214003190848687888886827B736B656264697076AE
S2140031A07D82878B8E9193928F8A84807E7C7B7AB9
S2140031B07A7B7D8084868788898988847E766E6718
S2140031C064656A6F767C82878B8E90918F8C8782FF
S2140031D07E7C7B7A797B7D7F8385868686858584E3
S2140031E0817B746D6866686E757C82868A8C8E8E2E
S2140031F08E8D89847E7A787776787B7E82848686C2
S21400320084838383827F79736F6D6D71787E848704
S214003210898A8B8A898885827F7C79787778797B9A
S2140032207F8386888885817E7C7B7A7876747373C4
S21400323076797D8286898B8C8C8C8A8885827E7B4B
S2140032407875737273777C80838687868583827FA2
S2140032507C797777787A7E82868A8B8B8C8C8C8A40
S214003260857F776E6A67676B6F737B83898E9293B1
S21400327094918E8B87827E7C797676787B7F83832B
S214003280807A75706D6E71767B7E818487898E9468
S214003290999C9B98938E89837E79736C655D544D5B
S2140032A04E57667788969FA3A2A09B948F8C88849F
S2140032B0828182898F9192938F877B6A54413638B8
S2140032C046596D83939B9EA0A09E9FA09C938B8740
S2140032D08688898B8C898480796A57463E45576CE8
S2140032E0819197958F89878990999A948F8B8C91E5
S2140032F09696948F877D6F5A4335354259738D9FC6
S214003300A6A39E9A949499978D80757177818B94D5
S21400331095918B82715B463B3F4F688195A1A39E3A
S214003320979290939A9B928A8584878C8D888174D5
S214003330695D4D3B2F33476484A0B3BAB4A99E960B
S2140033409190928C827E7E84909A9C988D7E6F5906
S2140033503D2318243F6186A4B7BCB8AEA49A9594C2
S21400336090837A7C7F8793989590857A6A533521E7
S21400337029416185A2B2B4AB9D8F888990928A7EDE
S2140033807B818A96A1A39B8D7E6B5132171633568E
S21400339081A5BFCBC2B39D8C838589816F66697515
S2140033A08799A4A6A093836E512F151C3C628BB1FF
S2140033B0C7C7BBA9978C8A9091836D656A76889AF1
S2140033C0A19D93857662472816294E7299BAC9C37D
S2140033D0B39E8D84868E8D7A676570859DB1B6ABFB
S2140033E09780684F34170D2A5276A0C3CFC8B8A46A
S2140033F09289888C846D5D606F88A4B4B2A38E7841
S21400340063513D241F3A59789DB9C1BAAC9B8E8949
S2140034108B8F88756A6E7A8FA6B2AD9A836C574486
S2140034202D1B284B6B8FB4C8C7BBA995867E7E7EA6
S21400343071636370859EB4BAAD967E674E37211B66
S214003440365B7DA4C2CBC3B4A2938A88897F6B60A7
S21400345065768BA2B0AB98806A533E2C20305477AA
S2140034609BBBC9C4B5A49389888985746666738A2C
S214003470A2B5B7A78B6F52351D0E183F6991B8D00D
S214003480D0C3B29F918C8D8877625B657A94ABB51A
S214003490AF9C83694F341A132B4E7197B9C7C1B4CA
S2140034A0A69995989C917461617088A1B2B3A58E17
S2140034B074583C231320446689AFC8CBC0AD998BA3
S2140034C0888C8C796159647B97B1B9B19F866A4EB6
S2140034D0331B173357779BBBC9C8BBAA998F8F92EC
S2140034E0886F5B59667E99ABACA4937C63472913BF
S2140034F01F44698CB1C8CBC1B09C8D888C8D7D670C
S2140035005F66778FA6AFA89A856D513418132E5232
S214003510769DBFCECDC2AE9B8F8D9087705E5A6271
S214003520758EA5ADA89A876D4E2E18203F5C7CA0A0
S214003530B9BDB9AE9F97959B9B886F62626B7F976C
S214003540A7ABA290785A3A1E193559789CBECAC1C4
S214003550B19E8E878B938C74615D6372879CABABD8
S2140035609E8C7252321D28486483A8BFC0B5A696AA
S2140035708F919A9B866B5C5C65768B9DA5A0917EF1
S2140035806243251F3959759ABECAC1B09B8C899271
S2140035909B9075615D65778EA1A9A5957F6345288B
S2140035A01523486888B0CACABCA9999397A1A18771
S2140035B0685A5D6B8098A5A59A8770573D241F3979
S2140035C0577294B5BFB7A7968C8F9CA69C7F6965EB
S2140035D06D7E94A5A69D8C755C442E2130506E8E13
S2140035E0ADC1C1B39F908C919B9982685B5E6E85DE
S2140035F09BA6A499846B533B282D476583A1B7C02F
S214003600B9A6948D8F99A09276635E697D92A1A3E8
S2140036109A866F563E29263D5D7C9EBAC7C5B49DE8
S2140036208B868D98937D685E61728799A29F948041
S214003630664B33222B486685A6BEC7BFAB988F91D4
S2140036409DA3947A686269788996999588745B4494
S2140036502E2B425E7996B1BDB9A89284828C9B9A35
S21400366086746C6D7786959C9C9482684B2E1F2E74
S2140036704D6A8BACC3C9BDA6918789969B89706439
S214003680636B7A8B979C9A8D775A3D272B48668377
S214003690A1BBC6BEA68E7F7E8A99937D6E6B707A1E
S2140036A0889398978E7B62452C2840607D9BB7C890
S2140036B0C7B59A857E859495826E66686F7C8A9378
S2140036C09694866E513424314F6D8BA9C1CAC0A71B
S2140036D08E8283919B917D706E727B889195938884
S2140036E073583A262D4866839FB5C2BFAB907E7A44
S2140036F0869595877A75787F8890929089786045C8
S2140037002C283F5D7995AEBDC1B59D877D82929789
S2140037108B7C737278818B90918E846F55392935A6
S214003720516C88A3B6BFBAA48B7C7B88958F7F74B8
S2140037307177818C94948F86745C4230344D6881A6
S2140037409CB2BEBFAF95827D86949384756F717967
S214003750848D908E88796349322E435E7791AAB91C
S214003760C1BAA28A7D808D958B7D74747A838C9184
S214003770918A7E694F352A38536E88A3B5C0C1AF8B
S214003780927E7A85908D8279777B858D92918C81D9
S2140037906E553B292E4764809AAFBDC3B9A0887E7C
S2140037A0828E8F847874777E878D908E877B664A2C
S2140037B0312D415B7793A9B7BEBBA68B7B7B868DED
S2140037C0857A74767D8891928F887B6850362C3CFB
S2140037D058738FA6B4BEBFB197827B838B877C75E8
S2140037E07479848E908D887E6D563B2A324C6B8819
S2140037F0A1B1BBC0B7A18B7E7F88897F76757A849E
S2140038008F94928B80705A412C2E4664829AABB568
S214003810BAB7A58D7C788188837D7A7D86919796C8
S21400382091867762472D243552728EA5B4BCBDB200
S2140038309A857C8289867C75767C879194928C8129
S21400384070583D2C334D6B869DAEB7BBB5A1897ABB
S2140038507A82847E78787E879195938D82725B419A
S2140038602B2B42627F98ABB7BEBDAE96837D828619
S2140038707F767378818B94948E8477644A322A3C60
S214003880597791A5B1B8BBB099837A7F85837D7A45
S2140038907D858F97958E867A674F372A3450708C41
S2140038A0A0AEB7BCB6A28A7B7980817B7779818C03
S2140038B09597928A8070593E2C2F4868869BAAB3AB
S2140038C0B9B8A992807A80837D77787D889397931C
S2140038D08C82745F452E2B40608098A8B1B7B8AE36
S2140038E099847A7B807D78767C8792999791877A7F
S2140038F0674D312433537390A4B0B7BAB5A38D7E09
S2140039007B807F79787B828E9899938B7E6B5235FD
S21400391021274568889FAEB6BAB6A89380797C7D85
S214003920797679818C989E9A9085745D412A263D99
S2140039305E7E99ABB4B8B8AE9A887D7D7E79747396
S214003940798390989892897B674E35283554748E83
S214003950A2AFB6B9B3A390827F817D7672757E8959
S2140039609598938A7E6E573F2C314C6C8AA1AFB5E2
S214003970B8B4A79281797A79736E717C8A98A09D83
S2140039809385745C422C283E61839DAEB6B9B7AC75
S21400399099867B7A7C7770707985929C9C938779E0
S2140039A0644A322737587C99ACB4B8B7AF9D897A49
S2140039B07576736D6D778696A2A49C8E7E6950355B
S2140039C0252E4D708FA5B0B5B8B5A895847C7B76AE
S2140039D06E6A707D8C9AA09C918371583C2629450E
S2140039E0688BA4AFB3B4B2A897867C7A766F6C71F6
S2140039F07D8E9DA5A29686735C3F27233A5E819EA8
S214003A00AEB4B7B7B0A08D7E79756D686B768594C9
S214003A109EA09A8C7C684D322635547695A8B0B414
S214003A20B4B0A391827B7770696B758394A0A49ED3
S214003A30928471583C282C466888A0AEB4B6B4A9C7
S214003A4096857C78736B696D7A8A979E9D968A7B3D
S214003A50654A312A3F60809BACB3B5B4AC9C8A7D86
S214003A6079756D676A768796A0A0988D7F6B5135BD
S214003A702632507290A6B1B6B8B3A594857E7971F9
S214003A8067646D7C8D9BA19D9487755C402A2D474D
S214003A906887A1AFB5B7B3A796867D7A7369646B5E
S214003AA07B8D9DA5A29789775E4229243B5C7F9EED
S214003AB0B0B8BCBAAF9D8A7F7A7368616372849629
S214003AC0A2A39B8F806A4E332838577997AAB2B53F
S214003AD0B5AD9E8D827D796E63636F8396A4A69E38
S214003AE0907F6A4E30202D4C7092ABB5B9BCB6A70D
S214003AF096887F796C605D66798F9FA6A29788749A
S214003B005B3E272A446586A0ADB2B4B2A99B8F86D9
S214003B10807668616575899AA4A3998A765F442938
S214003B20243B5C7D9BADB4B7B6AFA2938882786920
S214003B305E5F6B7F93A2A6A093836D5234232F4CB7
S214003B406D8CA3AEB2B3AFA5978C8782746561699E
S214003B50788C9CA4A09687745B3F282A456586A12E
S214003B60B0B5B6B3A99A8C847F74645C6170839791
S214003B70A4A69F9280684C302638567693A7B0B499
S214003B80B5AFA3948A857E6E61606B7D909EA39C84
S214003B9090806B513726304F7090A8B4B8B8B2A555
S214003BA09487817C6F605B66788D9FA7A59A8B77DC
S214003BB05E4229284161809BACB4B7B6AC9D8F8825
S214003BC0867B675A5E6E8398A4A49B8D7B64492D82
S214003BD023395B7B98ADB6B8B6AC9C8D84837E6B80
S214003BE05A5A687D93A3A8A2958570553826314FFA
S214003BF06E8BA3B0B6B7B2A4958B888575605961F5
S214003C00718799A1A09687765F442D2E4A6A87A071
S214003C10B0B6B6B0A3948883847C685B60708499E1
S214003C20A6A79D8E7C664C302438587591A8B4B8EB
S214003C30B7AEA0928989846F5B5864778E9EA5A1E3
S214003C409585725A3F2A314F6C879EAFB5B5AFA2A5
S214003C50938886877A645B64768B9EA7A69A897615
S214003C605F452B253E5F7C96ADB8BAB6AA9A8C8681
S214003C7087816C5B5C6A7E92A0A49E91826F583EA0
S214003C802A35567289A1B1B5B4AB9D8E86878677E4
S214003C90635D687A8D9DA4A09485745E442B294646
S214003CA067819CB2BCBCB6A6938682837B66585E50
S214003CB0708599A6A79E8F7F6B523727385A748CCB
S214003CC0A6B7BBB9AD9B8A83858473605E6C7E9114
S214003CD09EA29C908170593F2A2F506E859EB3BC41
S214003CE0BAB2A18F8382867B655D67798D9EA6A416
S214003CF09A897761462C243E607992ABBBBDB8A901
S214003D0096878286836F5F62728497A2A39C8E7E5C
S214003D106B54392834567189A4B8BEBBAE9A8980D4
S214003D2082867965606D7D8F9DA39E9383715B41CE
S214003D302B2946677F99B4C0BFB6A490848187823A
S214003D406D5F65748596A0A0988B7A664F38293A81
S214003D505E778EA9BCBEB8A995857F838677636299
S214003D60707F909DA19C91816F59422D2E4F6D8240
S214003D709DB7C1BEB39F8B7F7E837C685F6A7B8A5C
S214003D809AA2A1978979644E382C4062778DA9BB98
S214003D90BDB6A590817D83857665677684929DA065
S214003DA09A8E7E6C553F2C31536E83A0BAC3BFB239
S214003DB09C887E8088806B636E7D8A98A09E95879F
S214003DC0755F4832273F617791B1C3C4BBA78F8028
S214003DD07C848574656A7785939EA0988B7B6751F3
S214003DE03D2932567187A7C1C7C1B09782797E85B3
S214003DF07C6A67717D8A989E9B9183725C48332AA1
S214003E0046657895B6C5C5BAA38B7E7C85847266F2
S214003E106C7783929D9F978B7B66503B2A395D74A7
S214003E208CADC2C4BBA88E7B777E867B6A6B7581A1
S214003E308F9DA19B8E7F6C54412D2C4E6C809FBE17
S214003E40C6C2B49A82787A8684726A727C8898A28D
S214003E509F9587745D4734273E627790B2C5C6BD8E
S214003E60A78C7B7781887A6B6D7781909DA0998DE2
S214003E707D68503D2C33577184A2BBC0BBAD948087
S214003E80797C88857470777D87949A968E82705830
S214003E9044312A47697E99B9C6C4BAA2887978831C
S214003EA087796E737B82909A9A938A7C644D3B2ABC
S214003EB0365B758BADC4C7C1AD8F7B747A86807157
S214003EC070787E89979C9891846E55422F2B4A690C
S214003ED07E9BBAC7C6B99E84787783867A72767CCC
S214003EE0828E9798948C7B624D3B2A3B5F748CAD98
S214003EF0C2C4BCA68A79747D898274747B7F8996D5
S214003F009A958D806951402E31547184A3BEC7C2E4
S214003F10B1957E7478878A7C777D81858F98968D1B
S214003F20837055402F2743677C98B8C6C6BCA286C8
S214003F307774808A7F74787C7F8A9699938B7C646A
S214003F404A3728385D768DADC2C7C1AD8E78717898
S214003F50868377777D8189949A958C806B4F3C2CED
S214003F6030527284A0BEC1BCAA8E7A747B888376D7
S214003F70777C7F879297928A7F6A4F3C2C32577560
S214003F8088A3BBC2C0B4987F747685887B757B7F18
S214003F90848F97958C816E533D2C28486C819AB7F8
S214003FA0C5C7C1A98B78727B857C757A7F828D9711
S214003FB0999288775E433124365E798EAABEC4C352
S214003FC0B4967E7276848378787D7F859298958C79
S214003FD07F6A4D38292F537387A0B8C2C4BFA58700
S214003FE075707A7F76727A7F838E98999387765BE0
S214003FF0412E263F647A92AEBEC2C2B2947E747BD5
S214004000857F7579807F8590928F8578644A372A78
S2140040103A617C90A9BDC1C1B79B7F70707C7E75EC
S214004020768085899398958C7D694D3625264A6ECF
S214004030849DB7C2C4C3B0917D757C827771798048
S214004040838D95948D82735A43312A446A8196AD46
S214004050BABDBDB0957D71757F7B727781858D9673
S2140040609792877862473123345C7A90A8BAC0C0AA
S214004070BBA68A79767F7D70707A80879297948BBC
S2140040807C6A5139252B4F728AA0B5BDBDBAAC9259
S2140040907C73797E74707A85899198968E816F5834
S2140040A03F29224068849BB2BEBFBDB49C8577760C
S2140040B07C746A707D848E999A958A79644B3221D5
S2140040C03057768DA4B7BCBCB9A9907E787D7B6E40
S2140040D06E7C858B959A958B7C6A523923254B711D
S2140040E08AA1B7BFBEBAAE968075777A6F697481BB
S2140040F088929A999082725C452E223A617C92AAA6
S214004100BABCBDB8A58E7D7A7E76696F7D848D99A2
S2140041109A938778644D36222E55748BA4B6BCBC11
S214004120B9AC947F767B796B6B79848C979B958AF8
S2140041307A6954412C2A4B6E859CB1BABAB9B09AAA
S2140041408477797C716B758189949C978D806E5984
S2140041504530233B617D95ADBABCBCB5A48E7D7859
S2140041607B73666C7A84909C9C948877614B36222D
S2140041702D567690ABBCBFBDB7A89380767A77688D
S2140041806775808A999F988D7C67513D2726496E72
S21400419087A1B5BCBBB7AD9B887B7C7D6E66707D0A
S2140041A087949D9A8F816E594530223A647F97B0E6
S2140041B0BBBBB8B0A08E7E797E7364697884919E0E
S2140041C0A0988A755F4934202C577991ABBCBEBA4B
S2140041D0B4A79483787C77666676838E9CA39B8E42
S2140041E07C654E3B2520446C86A1B8BFBCB8AD9D0F
S2140041F08A7A78796A606B7A8695A2A19688725BCD
S21400420048322036607B93AEBBBCB9B2A391817AAC
S2140042107E73626777828D9CA0988A77604B372280
S2140042202A53738BA7BBBDB9B4A69583787C7969EE
S2140042306775838E9BA29D907C66503E2721446ABC
S21400424083A0B9C1BFBAAE9B877776776A616D7D6A
S2140042508998A3A096866F58463120355D7A95B02A
S214004260BFC1BCB3A3917F787C736366778491A04B
S214004270A2998B765D4B37212A51708CA9BCC1BFA1
S214004280B8A99784787A76645F6F7E8A9AA39D90A1
S2140042907F67523F2825486B86A3B7BEBDB7AB9A4B
S2140042A0897B7B7B6D636C7B8896A09F94846D5620
S2140042B0442E1E37607E9BB5C2C2BCB09F8E7D77F3
S2140042C07A6F5F63748292A1A59D8E79604A3620CC
S2140042D0284F718EABBEC3C0B8A99785797A75632F
S2140042E05E6C7B8A9BA4A2968269513D251E3F6523
S2140042F0829FB8C3C1BCB09E8C7B797A6B5F6878AE
S2140043008595A2A399877159442F1E325B7B98B27C
S214004310C2C3BEB4A28F7C74776F60637381909EB5
S214004320A39C8F7A624E3A22274D6F8CA9BEC3C2D9
S214004330BBAB9884767774645E6B7C8A9AA3A096EF
S214004340846B5442291F3D63819FB7C2C3BDB09D95
S214004350897876776A5E65778697A4A59B8C745B6A
S214004360472F1C2F567696B3C2C5C1B5A4927F764A
S21400437079705F5F6F8090A0A69F917C634E381F18
S214004380264C6D8BA9BDC1BEB6A79684787B776692
S214004390606C7E8D9DA7A2968267503D241E416666
S2140043A085A4BBC4C3BCAE9D8A777576675B63770E
S2140043B08797A5A79D8C755C462D1A30567596B2C4
S2140043C0C0C2BEB5A694817A7C705F5F6E7F8FA0F8
S2140043D0A69F917C624C351E274E6F8FACBDC1BF29
S2140043E0B7A89784777A76645E697C8C9EA9A59830
S2140043F0846A503B211B3C6281A1B8C3C3BDB1A0F7
S2140044008E7B797A6B5D61738495A3A69D8E765CB0
S214004410472F1C30577696B1BFC2BEB5A6947F769E
S214004420796F5F5E6D8091A1A6A0937D624C381F68
S214004430244A6C8CAABDC4C3BBAC9B8778797564D0
S2140044405C66788999A3A197866D5644291F3D61BD
S214004450809FB6C0C1BCB09F8D7B787B6C5F637459
S2140044608496A2A39A8B735B49311D30577899B412
S214004470C1C3C0B4A3917D74786F605E6E7F92A254
S214004480A7A1937D624D381E24496D8FADC0C5C46B
S214004490BAAA9883747774645B6577899AA5A49A98
S2140044A0886F5844281E3D6283A4BAC2C1B9AC9C2A
S2140044B08B79787A6B5D60728597A3A49B8B735B10
S2140044C048301C30587A9CB7C5C5BEB1A08E7B74E8
S2140044D079715F5B6B7F94A4AAA4957E634D381FA9
S2140044E023486C8DAABEC3C0B7A89885787A77662D
S2140044F05C6577899BA5A39A886F58452A1F3C62FE
S21400450082A1B8C0BEB7AB9B8A7A797C6E5F6172B7
S2140045108496A5A79E8E775E4A331D2C547696B356
S214004520C2C3BFB4A3927E767A715F59677A8FA1B1
S214004530A9A498836A55402523466B8AA6BBC0BEAD
S214004540B5A79685787C7C6B5E64758799A4A298DF
S214004550866D58452C1F3A6285A2BAC5C4BDAE9A70
S214004560877573796E5D5D6F8396A5A9A3937B644B
S2140045704F361D284F7393AEBFC3BFB4A3917F774A
S2140045807D78665E697A8C9DA39F927D67554229E9
S21400459027496F8EA9BDC3C0B5A492807376796B88
S2140045A05F66788C9FA9A79D886D5643291A335C51
S2140045B0809EB7C5C7C0B29F8C7A767A6F5D5C6CFA
S2140045C07F93A1A59F917A635039212B537795AF9E
S2140045D0BFC3BDB09E8D7C757C7968606C7E909FF5
S2140045E0A4A0937E66513D2420426B8CA9C0C8C50A
S2140045F0BAA89583757778695A60728699A6A79E39
S2140046008C755F4B3221355D7F9BB4C2C1B9AB99C7
S2140046108778757C756361708294A1A69F907A6393
S2140046204E3820264E7694AFC3C6BFB2A08D7B729E
S2140046307978665B677B8EA0A9A79A86705944290D
S2140046401E3C6584A0B9C3C2BAAA968375777D6FEF
S2140046505E62738697A3A49B8A755F4A331E315C9D
S214004660809CB6C4C4BDAE998676737C7664617051
S2140046708294A2A7A1927D6750391F234A7190ACFD
S214004680C0C5C1B6A28E7D747C7C695D68798A9C43
S214004690A6A49985715A43271D3D6788A5BCC5C346
S2140046A0BAA8928072767B6E5F6576879AA6A69C7D
S2140046B08A755F49301C2F597D9AB5C5C6C0B19A18
S2140046C08675727B73615E6E8092A2A7A1927E69E8
S2140046D0523A21264D7493ADC1C6C1B6A28D7B72E7
S2140046E07A79675C67798B9BA4A19583705A432A75
S2140046F0203E6888A4BAC4C2B9A9927F73777D7237
S2140047006265768797A4A49B89756149311D2F5AE7
S2140047107E9CB4C2C3BDB19C8676727A75645F6DAA
S2140047208091A1A7A0917E6951381F224A7494AF48
S214004730C1C6C1B7A48D7B72787A6A5E677A8B9C95
S214004740A7A4978470593F251B3B678AA5BAC4C2A5
S214004750BBAC95807273796E5F63758797A4A69DD0
S2140047608C7963492E1A2D5A809EB7C4C5BEB19B5C
S214004770847471787463606F8191A0A7A0917F6A3A
S21400478050351C234C7495AEBEC2BEB3A28D7B7250
S214004790777667606A7B8B9AA4A39887745C4124BB
S2140047A01D3E688BA7BBC3C2BAAA937F73767A6D89
S2140047B05F64778898A3A49A8A755E432617305D4F
S2140047C083A3BAC6C7C0B19B847572786F5F5F71EA
S2140047D08596A3A8A294806A4E2E17234D7597B18E
S2140047E0C0C4C0B3A08979747A76655D6A7E8F9EF0
S2140047F0A6A498857157391D1D426B8FACBFC5C3E3
S214004800B9A7907C737777685C6477899AA5A69D2C
S2140048108C7963452619335D81A1B7C0C0B9AC99C0
S2140048208478787B706060728494A1A69E8E7C6883
S2140048304F311D2C547A9BB3C0C1BCB1A089797589
S2140048407872625D6B7E8F9EA6A3968472593A1E1E
S2140048501F42688CAABBC2C1B9A99481797B7766CE
S2140048605A62758798A3A49A8C796344231F3E6581
S21400487088A6B7BDBBB3A49180777A7A6C5F64755F
S2140048808697A3A59E907D664927162D567C9FB8D1
S214004890C2C4C0B19D897C7A7C6E5B59687B8E9F52
S2140048A0A6A3998871563419244B7094B0BDC1BE26
S2140048B0B3A08D7F7B7F76635C66788B9BA3A29884
S2140048C088735A3B1C1C41698FAEBFC3C2B9A893FC
S2140048D08177797665596072879AA7A9A0917D65D8
S2140048E04724152F577C9FB5BEC1BDB09D8A7C7BE3
S2140048F07C6C5B5B6A7F93A2A9A396846D502E1591
S214004900264F769AB6C0C2BFB29F8B7B777B715E0E
S2140049105965798EA0AAA89D8B74573514194068DE
S2140049208FAFBFC3C3BAA894837B7F7A665A617180
S2140049308597A4A79F907B61421E15365E83A5B916
S214004940BFC0BBAB98867B7D7E6D5D60708396A492
S214004950A8A1937E654928162E567A9DB4BCBEBB88
S214004960AE9C8A7C7A7D715F5D68798D9DA6A59ADE
S214004970897358361823496D91AEBBBEBDB4A49258
S214004980837C8077635A61718699A4A69E8D775D35
S2140049903E1C1B3F668CADBFC3C2B9A79482787A13
S2140049A077665A5F6F8499A6A8A1917B624320120E
S2140049B030597FA4BCC3C4BFB09D8B7E7C7C6C5B2F
S2140049C05B687C91A1A7A498866E512D14274E741F
S2140049D09AB4BFC1BDB19E8C7F7C7F74615B6577E6
S2140049E08C9DA6A59B89725735161E446B93B3C142
S2140049F0C4C1B6A694847C7C7461575C6D8398A60B
S214004A00A9A2927C62421E18375D84A8BBBFBEB7BF
S214004A10AA9A8C82827E6C5D5D697D92A2A7A19225
S214004A207D644825152F577FA6BEC3C1BAAC9B8BA5
S214004A307F7C7B6C5C5965798EA2A6A79E8972578F
S214004A40371B25486B91AFBBBCB9B0A19387828357
S214004A5079675C606E8194A1A49E8E786041211F68
S214004A603F6389ACBDBEBCB4A69588807F79675B82
S214004A705D6B7F94A3A8A39580674A271831557A63
S214004A80A1BAC0C0BCAF9D8E84817D6D5C58637535
S214004A908A9CA5A49B887155331B2B4E7197B4BD79
S214004AA0BCB9AE9D8F85828174625A6172879BA75E
S214004AB0A89F8D7559381A2043678EAFBDBEBDB509
S214004AC0A5958882817663575B6A8198A8ACA59580
S214004AD07E6242201A375B82A7BBBFBFB8A8978901
S214004AE0818079695B5C687B92A4ABA79983694BEC
S214004AF028172F52779EB8BFBFBBAD9D8E85837F8C
S214004B006F5D596273899EA8A89E896F53311928D4
S214004B10496C94B3BFC1BFB3A292878280726058BB
S214004B205F6D8399A6A8A18F775D3F242846668A85
S214004B30AAB9BCBBB2A39387828278665C5F6B7DA2
S214004B4093A2A6A1927B624426213C5D82A6BBC0AE
S214004B50BFB8A9978881817B6A5D5C66788FA3AAB7
S214004B60A79B866A4C2A192E4F7399B5BFC0BCB056
S214004B709E8F858481705F5A606F859AA5A59E8DED
S214004B807559381F2A496A8FAFBDBFBDB19F8F8444
S214004B90838376655D606C7F95A4A8A2927A5D3D5E
S214004BA020213E5F85A9BDC2C1B9A89689848377B6
S214004BB0655B5B66788FA2A8A49781664929213930
S214004BC0577A9FB7BEBFB9AA998B84847D6C5F5D08
S214004BD065748A9FA8A79B866B4D2B1C2E4C6F96E0
S214004BE0B3BFC3BFB3A29187857F6E5E595F6D83E7
S214004BF09AA7AAA18F7557351E2946658BACBCC0EF
S214004C00BFB4A39288868375645B5E6A7D95A5AA09
S214004C10A493795B3A1D23405E85A8BBC1C2BAA99E
S214004C209789848377665B5C65768DA1AAA79A834D
S214004C30674625203855789EB5BEC1BCAE9C8D868D
S214004C40857B695C596170869CA9AA9F8A6F502EE5
S214004C5020334F6F94B0BABEBCB09F9087857E6EEF
S214004C60605B606E8298A7ACA38F7557341D2A468A
S214004C70658BACBBC0BFB5A59489868273635B5C4D
S214004C80677991A3AAA5957E61412428415C7FA0FF
S214004C90B4BBBEB8AA9A8D888679675C5B63748C51
S214004CA0A0AAA99B84684727213854769AB2BDC02B
S214004CB0BCAF9D8D85837B695D5C6472889FABAB62
S214004CC0A08A6D4E2D1F324D6D92AEBAC0BEB2A0F8
S214004CD09086847F6F615C616C7F96A6ACA69478A4
S214004CE05936202C456388A7B7BFBFB5A4938682E4
S214004CF07F72645E616B7B92A4ABA7977D5D3A1F63
S214004D00243E5B82A6B9C2C4BCAB998A8280746416
S214004D105C5C64748B9FA9A99C85674627223954DE
S214004D20779CB4BFC2BDAF9D8D8482796A5F5E6595
S214004D3072869AA6A89E896D4D2B1E314C6D94B036
S214004D40BFC5C2B6A49287827A6A5E5A606C7F94A8
S214004D50A5ABA694795936202B456287A7B9C2C25F
S214004D60B9A9988B857F6F5F585B66778DA1AAA9D6
S214004D709A8163402428405A7EA0B5BFC3BCAC9A33
S214004D808C838074635B5D66758A9DA7A89D866923
S214004D904728233A537497AFBBC1BEB2A19288840A
S214004DA07A685D5D64708398A4A7A08D71513024E5
S214004DB0364E6B8EA8B6BDBEB4A49589847D6C6055
S214004DC05E636E8094A2A7A291775735212E476323
S214004DD087A5B7C0C1BBAC9A8E878170605A5C67E6
S214004DE07890A3ABA9997F5C361A203B587DA0B675
S214004DF0C1C4C0B19E8F878375645D5E6574899CEF
S214004E00A6A79D86684526243C557699AFBABFBEB0
S214004E10B2A293898477645B5B6270859AA6AAA126
S214004E208D6F4C2920354E6C91ABB8BFC1B9A9998E
S214004E308D867A65595A5F6B7F94A3A9A494795797
S214004E403321314A6488A5B3BBBFB9AA9B8F887F3C
S214004E506C5E5C616B7D92A1A7A3957C5C39222D6C
S214004E60465F81A1B1BABFBCAF9E90888170605C7E
S214004E705E66768B9CA6A89E88694528283F56764F
S214004E8098ACB7BEBEB3A393898273615A5C637154
S214004E908698A3A6A08D704D2C263C547092AAB579
S214004EA0BEC0B7A8988D8679665C5D636E80929E5C
S214004EB0A39F90765634263850698AA5B1B8BCB5FB
S214004EC0A99B908B816D5D5B5F6A7C919FA7A39584
S214004ED07E5C381E29445D7EA0B1BAC1BEB1A395E2
S214004EE08C8473605A5E66768B9BA4A49A82634019
S214004EF0232741597799ADB6BEBEB3A4978D877860
S214004F00645C5E64718598A3A69F8A6C4928253EDA
S214004F10567192AAB3BCBFB7AA9D928B7C665959AC
S214004F205E6A7C8F9DA39F8E72522F253C556F8F95
S214004F30A8B2B9BDB6A99D928D816C5D5C626C7D90
S214004F40909DA29F9074543221344F6887A3B1B9C4
S214004F50BFBBB0A3968E826D5B575C66768999A3BD
S214004F60A49A82623E26304A627E9CACB4BBBAAF3C
S214004F70A297908875625B5E66758897A2A39A83EF
S214004F806440252B455D7897AAB3BBBDB4A89C9218
S214004F908A77615859606E8193A0A59F8C6F4C2DBF
S214004FA02C445A738FA4ACB4B9B4AAA19992826A5D
S214004FB05C5B606A7B8D9BA29E8C6F4B282139546C
S214004FC06F8EA8B4BBC1BBADA1968E7F695A585FE1
S214004FD06B7C8E9DA5A39377543023354F68869FB0
S214004FE0ADB6BDBBB0A59C9588715F595B647485F2
S214004FF095A0A1957C5A3624344E66839DACB5BDEB
S214005000BDB3A79D9489735F595C64728495A1A50E
S2140050109D85633D222B465E7A96A8B1BABDB5AA99
S214005020A1988D7863585A626E7E909DA29C876781
S21400503043262B47607A95A6AFB6BAB5ABA1998F33
S2140050407D685C5A626E7C8D9BA19D8B6C47272584
S214005050405A7592A5AEB6BCB9AFA49C93816A5B64
S214005060575C68788A9AA2A091734E2B233B5671A0
S2140050708DA2ABB3BBBAB1A79E96856D5C565B6737
S214005080768797A1A19478542E2035516C889EA9D6
S214005090B1BABBB4A9A098876F5D5659647385985A
S2140050A0A4A5987A542D1D314F6A869DA8B1BABE24
S2140050B0B7AEA59C8C745F5558616F8093A0A49B77
S2140050C0805B341E2E4B66829AA7AEB7BBB5ACA4E7
S2140050D09D907964595A626F7F919EA39D845E3736
S2140050E01F2A47648098A6AEB6BCB8AEA69F927A32
S2140050F06357565D6B7B8C9CA4A28C663D20264332
S214005100607D95A4ACB5BCBAB2AAA399826859557D
S2140051105966768798A3A3916D4322223D5B7791CB
S214005120A0A8B2BAB9B2ABA59C886E5C5658637399
S2140051308393A0A597754D29233B59758F9FA6AEDF
S214005140B7B7B0AAA49C8B715D555762728494A2BF
S214005150A89C7A502A1C31506E8A9DA6AFB9BBB463
S214005160ADA69F8F76625858616D7D8E9CA49D81FA
S21400517058311F314F6D889AA2A9B2B7B3AEA8A214
S214005180947B6457555D6A7A8C9DA7A3895F351E0C
S2140051902A48658398A1AAB3B9B6AFA9A397806930
S2140051A05B565C69788A9AA4A28D663C202742608A
S2140051B07E96A0A6B0B6B5B0AAA59C866D5D5659DB
S2140051C065758596A2A3926D4323233F5E7D97A3C4
S2140051D0A8AFB4B2ADA8A39C8A715F575762728419
S2140051E094A2A6987549251E37577693A1A6ADB406
S2140051F0B4AFAAA6A090776358565F6F7F909EA61E
S2140052009C7C512A1D32537391A2A7ADB3B3AEA9AD
S214005210A5A0927A6559565E6C7D8F9EA7A083598D
S214005220301C2C4C6C8A9DA3A8B0B2AFABA8A49A35
S214005230836C5E575B68788A9AA4A18960361D28BD
S2140052404768889EA6AAB2B5B0ABA7A299846D5D42
S214005250555763758799A5A691693E2023406080BF
S21400526099A3A8B0B6B3AEABA69E8C725E5454603B
S214005270718497A5A7967044221E3A5B7B96A1A6DA
S214005280AEB4B2AEAAA59F91776255535C6C7F947C
S214005290A4A99C7A4F291D34557592A2A7AFB7B61C
S2140052A0B2ADA7A1927861534F586A7E92A2A99F89
S2140052B07F552E1D2F52718E9FA5ABB3B4AFABA6F4
S2140052C0A299836A5A5256667A8EA0A9A2855B3343
S2140052D01C294C6C899DA5ABB2B5B0ABA6A19A862D
S2140052E06E5C52546275899DA9A58D664024284837
S2140052F06781969FA4ACB1AFACAAA6A08F75605488
S214005300535E71869BA8A7926D4526213E607B93CF
S214005310A0A6ACB2B0ACA9A5A1947A6356535C6FB4
S2140053208498A6A796734C2A1E3659768F9FA7ADEB
S214005330B4B4AFAAA59F957D6456525B6E8295A4C1
S214005340A6997A53311E2F54748EA0A7ABB1B1AD77
S214005350AAA6A29B8569575157687D91A1A59B7FF8
S2140053605A371F284C6D889EA8ADB2B5B1ADA7A020
S2140053709A876C59515564798FA0A69F87624024FE
S2140053802546678399A4A8ACB0AEACA8A29D8F753D
S2140053905F555763768B9DA5A08B694629223F6291
S2140053A07F96A4A9ADB1B0ACA8A19B90775F5454EA
S2140053B06173889CA6A493724E2E203759758E9ED4
S2140053C0A5ABB1B2AFABA59F97806555525C6D811A
S2140053D097A4A597795434203155728B9DA3A8AE17
S2140053E0B0AEACA69E97836A5A565E6D8094A3A60E
S2140053F09A7E58371E284C6B869BA4A9B0B2B1AFD4
S214005400A9A29B8A705B535867798D9EA49C846082
S214005410402628496A8397A1A3A9ADADABA7A09C57
S2140054208F7761585A687A8D9DA49F896443261F9A
S2140054303D637F90A3A7ACB2B3B1ACA59D947D634A
S21400544053505A6E8397A5A7997A5536202D5271D8
S214005450899BA1A5ABAFAFADA8A29B896F5D575D39
S2140054606E81929EA0957A563922274B6E889DA50E
S214005470A8ADB0B0ADA7A099896F5B5458697E926D
S214005480A1A59E85614126203E627F95A0A4A9AF76
S214005490B3B1ADA7A0937961565865788B9BA19B55
S2140054A08866472C20385F7D94A1A5A8ADB0AEAA2B
S2140054B0A39D937E6557566275899AA29F90704FFA
S2140054C033213156758C9CA2A5ACB2B2AFAAA29875
S2140054D0846957535C6E83959E9E91755237232C34
S2140054E052748EA0A7A8ABAFAEAAA59F99896F5B92
S2140054F0545A6A8094A0A1987E5C3F272646698508
S2140055009AA4A6A9B0B1ADA9A29B8C725B525566AF
S2140055107C92A1A59D8563432A223D617E96A3A524
S214005520A8ADB0ADABA59F927A60555D5E738A9CC0
S214005530A5A291704C301E2C53748EA1A6A6AAAEBE
S214005540ADABA8A198836958545B6E8598A3A397C2
S2140055507B563823294C6D889CA4A4A8ADADACAA74
S214005560A39B896E5B54596980939FA1977F5C3D8E
S2140055702525456A879DA8A6A8ADADACAAA49C8C97
S214005580715B5255647B909EA39C8766452A233C9C
S214005590617F98A7A7A8ADAEACABA59D90775F52EC
S2140055A0525F768D9EA6A28D6C492C1F335878923A
S2140055B0A3A6A7ACAFACABA79F957E6556525A6F15
S2140055C08699A3A2927451342433567791A3A6A445
S2140055D0A7A9A7A6A49D95826A5A565D6F8698A22B
S2140055E0A395785536212A4C6F8BA1A9A7A9ADACF7
S2140055F0AAA8A096846B5A545A6A8093A0A49B8249
S2140056005F3E26274667849BA6A5A6ABABAAA9A4A1
S2140056109C8C735F5657657A909FA49D86623F2444
S214005620213D617F99A8A9A9ADADAAA8A49C8C75B7
S21400563061575762768D9EA7A3906D482B203658EB
S2140056407792A3A6A4A8AAA8A8A7A1947E685B5848
S2140056505F718698A2A192734E2F2131547693A73C
S214005660ABA7A7A8A5A4A39E927E695B575E6F868C
S2140056709AA5A69B7E57341F294A6B899FA6A3A48A
S214005680A8A8A8A8A59B87705E575A677D93A1A473
S2140056909C845F3C2529476988A0A9A5A4A5A4A247
S2140056A0A3A39C8B7462595A657A90A0A49E8965C0
S2140056B03F25243F61829CA8A7A5A7A7A5A5A6A0CD
S2140056C0907864595962748B9DA3A08F6E472923E6
S2140056D03B5D7E99A7A7A3A3A4A1A2A4A2947F6AD8
S2140056E05C596171879AA2A193734C2A2035587A27
S2140056F097A8AAA7A6A6A29FA09E937F6A5C5961B8
S214005700718699A3A4987B54301F2E507290A3A83C
S214005710A6A5A5A2A1A3A49C897260595C6A7D90E7
S2140057209DA29B825D38222B4B6E8DA3AAA8A6A6AF
S214005730A4A2A2A29B887260585A667A8F9FA6A2DD
S2140057408B653E21223F62849EAAAAA8A8A7A6A689
S214005750A6A08E766257565F72899BA6A6936F4761
S2140057602620395D7F9BAAAAA8A7A7A5A4A4A192D4
S2140057707C685B595F6F8598A3A495744C281C3190
S214005780547796A8ACA9A8A8A6A4A5A397806A5AF9
S214005790555A698097A6ABA1835B35212F4F708F32
S2140057A0A3A7A4A2A2A09FA1A39B877160585B6732
S2140057B07B919FA59D835D371F294A6D8FA7AFAD4F
S2140057C0ABAAA7A3A2A29B876F5C535562778FA153
S2140057D0AAA78F683F22254264859EA8A7A5A5A3F1
S2140057E0A0A0A19D8D776459586173899CA6A59247
S2140057F06F4727243E60819DAAABA9A8A6A3A1A2B5
S2140058009F90796559565F70869AA6A796734A2721
S2140058101E35597C9BACAEAAA8A6A2A1A2A1947ED6
S2140058206A5D585E6C8196A3A79A7A512C1C2E50FE
S2140058307394A9AEACABAAA7A5A4A398826D5E5834
S2140058405C6B7F94A2A79D7F562E1826486D90A766
S214005850AEACAAA8A5A3A3A39B8771615A5D6A7D77
S21400586093A3A9A28961381C2242678AA5AEABA879
S214005870A6A29F9FA09C8B75645B5C67798E9FA792
S214005880A38E683F1F1E3C6186A3B0ADA9A7A4A146
S214005890A0A29F9179665C5B64768B9DA6A5936FAC
S2140058A046221B34587D9EADADA9A6A39F9E9F9F02
S2140058B0947F6B5F5B61708599A5A89B7B512C1EBE
