:10000000F9C0000013C1000011C100000FC10000C1
:100010000DC100000BC1000009C1000007C10000B4
:1000200005C1000003C1000001C10000FFC00000C5
:10003000FDC00000FBC00000F9C00000F7C00000D8
:10004000F5C00000F3C00000F1C00000EFC00000E8
:10005000EDC00000EBC00000E9C00000E7C00000F8
:10006000E5C00000E3C00000E1C00000DFC0000008
:10007000DDC00000DBC00000D9C00000D7C0000018
:10008000D5C00000D3C00000D1C00000CFC0000028
:10009000CDC00000CBC00000C9C00000C7C0000038
:1000A000C5C00000C3C00000C1C00000BFC0000048
:1000B000BDC00000BBC00000B9C00000B7C0000058
:1000C000B5C00000B3C00000B1C00000AFC0000068
:1000D000ADC00000ABC00000A9C00000A7C0000078
:1000E000A5C00000A3C00000A1C000009FC0000088
:1000F0009DC000009BC0000099C0000097C0000098
:1001000095C0000093C0000091C000008FC00000A7
:100110008DC000008BC0000089C0000087C00000B7
:1001200085C0000083C0000081C000007FC00000C7
:100130007DC000007BC0000079C0000077C00000D7
:1001400075C0000073C0000071C000006FC00000E7
:100150006DC000006BC0000069C0000067C00000F7
:1001600065C0000063C0000061C000005FC0000007
:100170005DC000005BC0000059C0000057C0000017
:1001800055C0000053C0000051C000004FC0000027
:100190004DC000004BC0000049C0000047C0000037
:1001A00045C0000043C0000041C000003FC0000047
:1001B0003DC000003BC0000039C0000037C0000057
:1001C00035C0000033C0000031C000002FC0000067
:1001D0002DC000002BC0000029C0000027C0000077
:1001E00025C0000023C0000021C000001FC0000087
:1001F0001DC0000011241FBECFEFCDBFDFE3DEBF67
:1002000000E00CBF18BE19BE1ABE1BBE10E2A0E073
:10021000B0E2E2E6F9E000E00BBF02C007900D9209
:10022000AE31B107D9F71BBE3AD399C3E9CE8FEFF0
:1002300080937000809371008093720080937300AC
:100240008093740080937500809376000895CF9317
:10025000DF931F92CDB7DEB79FB79983F89499814A
:10026000E82FF0E0E059FF4F6095808168236083BC
:100270009FBF0F90DF91CF910895CF93DF93FC0143
:1002800020E030E0C62FD0E0DE01022E02C0B5959E
:10029000A7950A94E2F7A0FD508B2F5F3F4F319650
:1002A0002830310589F740FF0AC041FF03C0FC0137
:1002B000658302C0FC016683FC01618302C0FC010E
:1002C0006283DF91CF91089543E050E061E080E8E0
:1002D00096E0D3DF43E050E062E080E896E0CDDFD7
:1002E00043E050E064E080E896E0C7DF43E050E0A0
:1002F00068E080E896E0C1DF43E050E060E180E83C
:1003000096E0BBDF43E050E060E280E896E0B5DFD6
:1003100043E050E060E480E896E0AFDF43E050E087
:1003200060E880E896E0A9DF40E058E161E080E61F
:1003300096E0A3DF40E058E162E080E696E09DDFD2
:1003400040E058E164E080E696E097DF40E058E165
:1003500068E080E696E091DF40E058E160E180E609
:1003600096E08BDF40E058E160E280E696E085DFD2
:1003700040E058E161E080EE97E07FDF40E058E147
:1003800062E080EE97E079DF43E050E068E080E4EF
:1003900096E073DF40E050E064E080E496E06DCFEB
:1003A0000895FC01918195FFFDCF608380E090E08E
:1003B0000895FC0191819923ECF7808108954F9273
:1003C0005F926F927F928F929F92AF92BF92EF92C5
:1003D000FF920F931F93CF937C014A015B01280189
:1003E0003901FC01848182FF16C0D901C8016894DB
:1003F00012F8B695A795979587951694D1F7B901F8
:10040000A801032E36E176956795579547953A955D
:10041000D1F7302D15C0D901C801689413F8B695ED
:10042000A795979587951694D1F7B901A801032E42
:1004300037E176956795579547953A95D1F7302DE1
:1004400088159905AA05BB0508F4A2C0841695066F
:10045000A606B70608F49EC0F701848182FD04C099
:10046000880C991CAA1CBB1CC301B201A5019401F4
:1004700054D22F3F31054105510508F48DC08FEF4F
:1004800090E0A0E0B0E0C9EF05C0281739074A079F
:100490005B0758F0880F991FAA1FBB1FCD3F0CF4B4
:1004A0008160CF5FC73089F74DC0CC230CF04AC0C4
:1004B000D501C401880F991FAA1FBB1F880F991F60
:1004C000AA1FBB1F880F991FAA1FBB1F481A590AD2
:1004D0006A0A7B0ACE3FECF48DEF9FEF8C1B9109EB
:1004E000C7FD939504C0440C551C661C771C8A9567
:1004F000D2F7D501C401B695A79597958795BC010C
:10050000CD01640D751D861D971DA501940105D2B1
:1005100035C083E08C0FA501940104C0220F331F66
:10052000441F551F8A95D2F7DA01C901B695A795E0
:1005300097958795BC01CD01640D751D861D971D8E
:10054000ECD11CC083E08C0FA501940104C0220FE4
:10055000331F441F551F8A95D2F7DA01C901B6959A
:10056000A79597958795BC01CD01640D751D861DD6
:10057000971DD3D12150310941095109832F8F7023
:10058000C295C07FC82BF701C783268381E018C0BE
:1005900080E016C080E014C0D501C401880F991F07
:1005A000AA1FBB1F880F991FAA1FBB1F880F991F67
:1005B000AA1FBB1F481A590A6A0A7B0AC9EF8CCFC7
:1005C000CF911F910F91FF90EF90BF90AF909F90B0
:1005D0008F907F906F905F904F9008950F931F932F
:1005E000CF93DF93EC018B01009709F436C1803C77
:1005F000910521F460E180E02ADE2FC1C03484E05F
:10060000D80721F468E080E022DE27C1C115E4E0CC
:10061000DE0721F464E080E01ADE1FC1C038F1E09B
:10062000DF0721F462E080E012DE17C1C11581E02E
:10063000D80721F461E080E00ADE0FC1C038E3E0B2
:10064000DE0721F461E081E002DE07C1C039F3E09A
:10065000DF0721F461E082E0FADDFFC0C11582E02E
:10066000D80721F462E081E0F2DDF7C0C034E2E0B7
:10067000DE0721F462E082E0EADDEFC0C115F3E0BD
:10068000DF0721F464E081E0E2DDE7C0C03283E00F
:10069000D80721F464E082E0DADDDFC0C115E8E0CC
:1006A000DE0721F461E083E0D2DDD7C0C115F9E0B7
:1006B000DF0721F461E084E0CADDCFC0C1158AE024
:1006C000D80721F461E085E0C2DDC7C0C115EBE0C9
:1006D000DE0721F461E086E0BADDBFC0C034F8E097
:1006E000DF0721F462E083E0B2DDB7C0C03489E007
:1006F000D80721F462E084E0AADDAFC0C034EAE0AC
:10070000DE0721F462E085E0A2DDA7C0C034FBE093
:10071000DF0721F462E086E09ADD9FC0C03988E0FF
:10072000D80721F464E083E092DD97C0C039E9E0A6
:10073000DE0721F464E084E08ADD8FC0C039FAE08E
:10074000DF0721F464E085E082DD87C0C0398BE0FB
:10075000D80721F464E086E07ADD7FC0C03CE8E0A1
:10076000DE0721F468E083E072DD77C0C03CF9E089
:10077000DF0721F468E084E06ADD6FC0C03C8AE0F6
:10078000D80721F468E085E062DD67C0C03CEBE09B
:10079000DE0721F468E086E05ADD5FC0C03AF8E089
:1007A000DF0721F460E183E052DD57C0C03A89E001
:1007B000D80721F460E184E04ADD4FC0C03AEAE0A6
:1007C000DE0721F460E185E042DD47C0C03AFBE08E
:1007D000DF0721F460E186E03ADD3FC0C03B88E0FE
:1007E000D80721F460E283E032DD37C0C03BE9E0A6
:1007F000DE0721F460E284E02ADD2FC0C03BFAE08E
:10080000DF0721F460E285E022DD27C0C03B8BE0FA
:10081000D80721F460E286E01ADD1FC0C038E4E0AA
:10082000DE0721F460E483E012DD17C0C039F4E094
:10083000DF0721F460E484E00ADD0FC0C03A84E001
:10084000D80721F460E485E002DD07C0C03BE4E0A6
:10085000DE0719F460E486E0FADC8D818F738D8306
:10086000F80195818481892B9681911198E0892BDB
:100870008D83F801408151816281738100E814E821
:100880002EE130E0CE019BDD9C8198609C839C81B1
:1008900090619C83DF91CF911F910F910895CF9329
:1008A000DF93CDB7DEB76797CDBFDEBF87E1E7E067
:1008B000F0E28E010F5F1F4FD80101900D928A95D3
:1008C000E1F702DDB4DC60E070E280EA98E086DE09
:1008D000C02ED12E7E0187E1E80EF11CF801619156
:1008E0008F0180EA98E05DDDE016F106B9F780EA55
:1008F00098E05FDD8D3061F40C2D1D2DF8016191C4
:100900008F0180EA98E04DDD0E151F05B9F7EFCF96
:10091000682F80EA98E045DDEACFA1E21A2EAA1BF3
:10092000BB1BFD010DC0AA1FBB1FEE1FFF1FA2179F
:10093000B307E407F50720F0A21BB30BE40BF50B9C
:10094000661F771F881F991F1A9469F76095709525
:10095000809590959B01AC01BD01CF010895F8945D
:02096000FFCFC7
:10096200802500000300000A0D48656C6C6F204171
:0E097200565220776F726C642021203A2000CC
:00000001FF
