S01E000053454E534F52535F4C4947485450524F585F44454D4F2E7372656335
S21400000088C10000ACC10000AAC10000A8C1000061
S214000010A6C10000A4C10000A2C10000A0C100004B
S2140000209EC100009CC100009AC1000098C100005B
S21400003096C100000C94630F92C1000090C10000AE
S2140000408EC100008CC100008AC1000088C100007B
S21400005086C1000084C1000082C1000080C100008B
S2140000607EC100007CC100007AC1000078C100009B
S21400007076C1000074C1000072C1000070C10000AB
S2140000806EC100006CC100006AC1000068C10000BB
S21400009066C1000064C1000062C1000060C10000CB
S2140000A05EC100005CC100005AC1000058C10000DB
S2140000B056C1000054C100000C94C70F50C1000088
S2140000C04EC100004CC100004AC1000048C10000FB
S2140000D046C1000044C1000042C1000040C100000B
S2140000E03EC100003CC100003AC1000038C100001B
S2140000F036C1000034C1000032C1000030C100002B
S2140001002EC100002CC100002AC1000028C100003A
S21400011026C1000024C1000022C1000020C100004A
S2140001201EC100001CC100001AC1000018C100005A
S2140001300C94950F14C1000012C1000010C10000FD
S2140001400EC100000CC100000AC1000008C100007A
S21400015006C1000004C1000002C1000000C100008A
S214000160FEC00000FCC00000FAC00000F8C000009E
S214000170F6C00000F4C00000F2C00000F0C00000AE
S214000180EEC00000ECC00000EAC00000E8C00000BE
S214000190E6C00000E4C00000E2C00000E0C00000CE
S2140001A0DFC00000DCC00000DAC000000C94F90FCD
S2140001B0D6C00000D4C00000D2C00000D0C00000EE
S2140001C0CEC00000CCC00000CAC00000C8C00000FE
S2140001D0C6C00000C4C00000C2C00000C0C000000E
S2140001E0BEC00000BCC00000BAC00000B8C000001E
S2140001F0B6C0000035065807770558075807580751
S214000200D50658077106CA0558075807B605C0052B
S2140002106E616E00696E660000407A10F35A00A0A8
S214000220724E18090010A5D4E80000E876481700BA
S21400023000E40B54020000CA9A3B000000E1F505FA
S214000240000080969800000040420F000000A08644
S21400025001000000102700000000E8030000000076
S2140002606400000000000A0000000000010000001A
S21400027000002C76D888DC674F0823DFC1DFAE5934
S214000280E1B1B796E5E3E453C63AE651997696E8C7
S214000290E6C28426EB898C9B62ED407C6FFCEFBC4B
S2140002A09C9F40F2BAA56FA5F490055A2AF75C9376
S2140002B06B6CF9676DC11BFCE0E40D47FEF520E6AC
S2140002C0B500D0ED902E0300943577050080841E8F
S2140002D0080000204E0A000000C80C333333330FEA
S2140002E0986E12831141EF8D2114893BE65516CF87
S2140002F0FEE6DB18D1844B381BF77C1D901DA4BB93
S214000300E424203284725E228100C9F124ECA1E547
S2140003103D2711241FBECFEFCDBFDFE3DEBF00E0D9
S2140003200CBF18BE19BE1ABE1BBE11E2A0E0B0E29A
S214000330EEE1F7E300E00BBF02C007900D92A23F8C
S214000340B107D9F71BBE22E2A2EFB1E201C01D92AF
S214000350A132B207E1F70E9454130C948D1B50CEC5
S2140003601F920F920FB60F92112408B60F9218BE66
S21400037009B60F9219BE0BB60F921BBE2F933F9372
S2140003804F935F936F937F938F939F93AF93BF9398
S214000390EF93FF93E091FC21F091FD21309751F00F
S2140003A08091A80682FF06C08091FA219091FB21D9
S2140003B019951FC0E091F821F091F921309751F07E
S2140003C08091A80683FF06C08091F6219091F721C0
S2140003D019950FC0E091F421F091F521309749F07E
S2140003E08091A80684FF05C08091F2219091F321A8
S2140003F0199581E08093AC06FF91EF91BF91AF9184
S2140004009F918F917F916F915F914F913F912F9127
S2140004100F900BBE0F9009BE0F9008BE0F900FBE38
S2140004200F901F901895CF93DF9300D01F92CDB7F3
S214000430DEB7F9014115510509F46EC03FB73C839C
S214000440F8943C81F8946A32710581059105E9F4C7
S2140004504093FC215093FD21E093FA21F093FB2179
S214000460E0EAF6E081E081878285846082878FB744
S2140004708B83F8949B81E2EBF6E08081887F808313
S214000480808180839FBF81E045C06B327105810506
S2140004909105E9F44093F8215093F921E093F62171
S2140004A0F093F721E0EAF6E081E0818782858860B4
S2140004B082878FB78A83F8949A81E3EBF6E080818F
S2140004C0887F8083808180839FBF81E023C06C32D9
S2140004D0710581059105E9F44093F4215093F521C7
S2140004E0E093F221F093F321E0EAF6E081E08187E1
S2140004F08285806182878FB78983F8949981E4EB3F
S214000500F6E08081887F8083808180839FBF81E042
S21400051001C080E03FBF01C080E02496CDBFDEBFB3
S214000520DF91CF91089540E050E064E080EA96E0E5
S2140005306ED0F89487E08093A20078940895CF93C5
S214000540DF9300D0CDB7DEB78FEF80937000809337
S2140005507100809372008093730080937400809380
S21400056075008093760061E081E490E00E94FA0DC9
S2140005708091510084FD20C08091510081FD0DC006
S2140005808FB78983F8949981E0E5F0E080818260F6
S21400059080839FBF818181FFFDCF8FB78A83F894C8
S2140005A09A81E0E5F0E088E8858380818061808339
S2140005B09FBF818184FFFDCF64E080E490E00E94CD
S2140005C0FA0D8FB78B83F8949B81E0E5F0E080818D
S2140005D08E7F80839FBF2396CDBFDEBFDF91CF91F6
S2140005E00895CF93DF931F92CDB7DEB79FB7998359
S2140005F0F8949981E82FF0E0E059FF4F60958081EC
S214000600682360839FBF0F90DF91CF910895CF93AB
S214000610DF93FC0120E030E0C62FD0E0DE01022EA2
S21400062002C0B595A7950A94E2F7A0FD508B2F5F00
S2140006303F4F31962830310589F740FF0AC041FF09
S21400064003C0FC01658302C0FC016683FC01618374
S21400065002C0FC016283DF91CF910895AF92BF92F2
S214000660CF92DF92EF92FF920F931F93CF93DF9379
S2140006701F921F92CDB7DEB77B016A01A22EFC0146
S21400068000811181198221E030E0AE014F5F5F4F9B
S21400069062E9C8010E941E0C8981F0FE1AC0C114CE
S2140006A0D10469F0F60140815181628173814093E3
S2140006B01B2050931C2060931D2070931E20AA20A0
S2140006C021F08160BB24B39405C08E7FBB24B39415
S2140006D001C0B12CF3FE19C0C114D10469F0F601B3
S2140006E0408151816281738140931F205093202066
S2140006F06093212070932220AA2021F08260BB24E0
S214000700B39403C08D7FBB24B394F4FE19C0C11408
S214000710D10469F0F6014081518162817381409372
S2140007202320509324206093252070932620AA200F
S21400073021F08260BB24B39403C08D7FBB24B394A6
S214000740898321E030E0AE014F5F5F4F62E9C80168
S2140007500E945F0C1A8221E030E0AE014E5F5F4FD0
S21400076062E9C8010E941E0C8B2D0F900F90DF913E
S214000770CF911F910F91FF90EF90DF90CF90BF9099
S214000780AF9008950F931F93CF93DF9300D01F92DF
S214000790CDB7DEB7FC018A0180819181653031F0EA
S2140007A0673009F1633009F095C076C022E030E08A
S2140007B0AE014F5F5F4F6CE80E941E0C4A8150E00E
S2140007C0542F44272981422B052E000C660B770BED
S2140007D0F801408351836283738321E0029709F412
S2140007E07EC020E07CC024E030E0AE014F5F5F4F6B
S2140007F06EE80E941E0CF8012089222379F12981D7
S21400080021FD04C040E050E0BA0104C043E050E0DF
S21400081060E070E0F801408351836283738323FDB8
S21400082004C040E050E0BA0104C043E050E060E09D
S21400083070E0F801448355836683778325FD04C002
S21400084040E050E0BA0104C043E050E060E070E0F1
S214000850F801408751876287738719C04A8150E044
S21400086060E070E0F80140835183628373834B81BC
S21400087050E060E070E044835583668377834C8164
S21400088050E060E070E0408751876287738721E020
S214000890049729F120E023C0198221E030E0AE0160
S2140008A04F5F5F4F6AE8CAD78981482F42954F70DD
S2140008B050E060E070E0F801408351836283738308
S2140008C08F7090E0A0E0B0E084839583A683B78322
S2140008D021E005C080E092E88783908720E0822FA1
S2140008E02496CDBFDEBFDF91CF911F910F91089563
S2140008F00F931F93CF93DF93CDB7DEB72797CDBF68
S214000900DEBF8C0181E0F801868327E030E0AE018F
S2140009104F5F5F4F6781C80191D7F80116828581C6
S2140009208111BCC00E94DC0CE6E0F0E2608B718BAB
S214000930828B938B108211828F818076803209F4AD
S2140009404EC018F4882341F0A9C0803409F447C08B
S214000950803609F0A3C043C08A8190E0982F88278C
S2140009602981822B20910422309105228217930739
S214000970B8F0E6E0F0E220E030E120833183A0E04A
S214000980B0E084839583A683B783EBE1F0E26285CB
S21400099073850084F185E02D86E090E219957EC08F
S2140009A020910222309103222817390708F476C0D6
S2140009B0E6E0F0E220E038E020833183A0E0B0E01B
S2140009C084839583A683B783EBE1F0E26681778123
S2140009D00480F581E02D86E090E219955FC020E066
S2140009E031E02093062030930720803239F481E0EE
S2140009F090E080930820909309200FC0803439F44B
S214000A0082E090E0809308209093092006C083E05F
S214000A1090E080930820909309208B8181FD04C08C
S214000A2040E050E0BA0104C043E050E060E070E00F
S214000A3040930A2050930B2060930C2070930D2057
S214000A4083FD04C040E050E0BA0104C043E050E03B
S214000A5060E070E040930E2050930F2060931020CB
S214000A607093112085FD04C080E090E0DC0104C096
S214000A7083E090E0A0E0B0E08093122090931320F3
S214000A80A0931420B0931520EBE1F0E2628173810D
S214000A900190F081E02D86E090E219952796CDBF73
S214000AA0DEBFDF91CF911F910F910895CF92DF9215
S214000AB0EF92FF920F931F93CF93DF93CDB7DEB7DE
S214000AC02C97CDBFDEBF9C01FC0100811181862FD3
S214000AD090E0FC013E97EE30F10508F0E9C17A019E
S214000AE0D9018827E650FF4F8F4F0C942018149694
S214000AF02D913C911597FA0180818130E1F082308A
S214000B0009F0DDC12032310559F4198621E030E0C4
S214000B10AE01475F5F4F60E8C801D1D621E0E4C16F
S214000B201A8621E030E0AE01465F5F4F61E8C801FB
S214000B30C6D621E0D9C12032310561F483E08B8727
S214000B4021E030E0AE01455F5F4F60E8C801B7D6F0
S214000B5021E0CAC183E08C8721E030E0AE01445F2B
S214000B605F4F61E8C801ABD621E0BEC1FA016081E3
S214000B70718121E040E050E0CD0170DD282FB4C146
S214000B80FA016081718120E040E050E0CD0166DD31
S214000B90282FAAC11996CD90DC901A97FA01918158
S214000BA022819B838081893009F447C08A3021F0F6
S214000BB0883009F056C02DC0FFEFCF16DF0651F083
S214000BC00CF451C0C6010197039708F04CC0CA94B4
S214000BD080E002C082E0C12CDC2CC80EC394F70172
S214000BE08181888763E96D0D21E030E0AE01485FC2
S214000BF05F4FC80164D68D2D90E041E050E0BE0105
S214000C006D5F7F4F48969CD6D394DC10E8CF21E0EA
S214000C106BC199832A83909302222093032222E0B9
S214000C2030E0AE014F5F5F4F68E9C80148D621E06B
S214000C30029709F459C120E057C199832A839093FB
S214000C4004222093052222E030E0AE014F5F5F4F82
S214000C5066E9C80134D621E0029709F445C120E0D0
S214000C6043C120E041C120E03FC1FA0180818930C4
S214000C7079F18A3021F0883009F023C120C0199616
S214000C806D917C911A976F3FFFEF7F0731F0CB0194
S214000C900197039708F017C102C061E070E019825F
S214000CA06E5621E030E0AE014F5F5F4FC801C6D5FB
S214000CB0898190E0F7018183928321E015C18091BC
S214000CC0022290910322FA018183928321E00CC1D3
S214000CD08091042290910522FA018183928321E07B
S214000CE003C1FA01E080F1801496CD90DC90159750
S214000CF0C5FEF7C0E114F104E1F0F1E0EF16F104EF
S214000D0079F082E0E816F10471F095E0E916F10456
S214000D1069F0EAE0EE16F10411F584E090E00BC00D
S214000D2081E090E008C082E090E005C083E090E0BB
S214000D3002C080E090E0FC01EE0FFF1F8E0F9F1FA9
S214000D40FC01E553FF4D82818F8321E030E0AE0148
S214000D50495F5F4F66E8C801B2D521E0C3C0D0FC4A
S214000D60BAC020E0C1C043815481E416F506B9F448
S214000D7002C080E090E0FC01EE0FFF1F8E0F9F1F69
S214000D80FC01E355FF4D82818E8321E030E0AE0109
S214000D904A5F5F4F65E8C80192D521E0A5C001967D
S214000DA033968A309105F9F69FC0FA014081518149
S214000DB04530510551F0EAEDF0E281E090E0238104
S214000DC0348124173507A9F402C080E090E0199614
S214000DD0ED90FC901A97FC01EE0FFF1F8E0F9F1FE1
S214000DE0FC01E652FF4DD280FFEFEF16FF0669F5D5
S214000DF007C0019633968730910509F720E074C046
S214000E00198221E030E0AE014F5F5F4F62E8C80113
S214000E1015D58981807C8D299D2D990F990F990F65
S214000E20892B8B8321E030E0AE014D5F5F4F62E897
S214000E30C80145D5D98221E030E0AE014F5F5F4F53
S214000E4063E8C8013CD521E04FC0C701019702976F
S214000E5000F5198221E030E0AE014F5F5F4F62E897
S214000E60C801ECD48981EA94EF2819F4887FD82A3F
S214000E7005C0DD0CDD0CDD0C877CD82ADC8221E089
S214000E8030E0AE014C5F5F4F62E8C80118D521E044
S214000E902BC0E3E0EE16F104C1F4DD8221E030E081
S214000EA0AE014B5F5F4F63E8C80109D521E01CC067
S214000EB080E090E8F9018783908720E015C020E065
S214000EC013C020E011C020E00FC020E00DC0E114E8
S214000ED0F10411F44ECF20E0EDEAF0E281E090E07C
S214000EE042CF20E0D0FCF3CF822F2C96CDBFDEBFC2
S214000EF0DF91CF911F910F91FF90EF90DF90CF90F1
S214000F000895EF92FF920F931F93CF93DF9300D035
S214000F101F92CDB7DEB7613039F020E230E0FC0139
S214000F202783308780E067C08C01FC01E080F18079
S214000F3042305105A9F04330510501F141305105C9
S214000F4009F053C01C8221E030E0AE014C5F5F4FD9
S214000F506FE8C70173D48C818093FE2181E04BC07B
S214000F601C8221E030E0AE014C5F5F4F60E9C701B4
S214000F7065D48C818093FF2181E03DC01C8221E0F6
S214000F8030E0AE014C5F5F4F61E9C70157D48C81FA
S214000F908093002243E050E06EEF71E288E190E03B
S214000FA0CFD443E050E0BE016F5F7F4F88E190E012
S214000FB0DCD443E050E0BE016F5F7F4F8EEF91E2DE
S214000FC00E940C19892B39F080E091E0F8018783A4
S214000FD0908780E010C023E030E0AE014F5F5F4FA7
S214000FE063E9C7016CD481E006C080E290E0F801B6
S214000FF08783908780E02496CDBFDEBFDF91CF91B8
S2140010001F910F91FF90EF900895EF92FF920F932C
S2140010101F93CF93DF93CDB7DEB72B97CDBFDEBF41
S2140010207C01FC01008111811C8221E030E0AE01D0
S2140010304C5F5F4F6AE8C80101D48C81843909F09F
S2140010408EC084E990E2F7018283938380E190E08A
S214001050F801868F978F8CE8878380910122811113
S2140010600AC084E08B8721E030E0AE01455F5F4F29
S21400107060E8C80124D4F701848185FF14C083E0AA
S214001080898721E030E0AE01475F5F4F60E8C80126
S21400109016D482E08A8721E030E0AE01465F5F4FDB
S2140010A066E8C8010CD4F7018481958190FF3AC0A8
S2140010B00F2EF3E0FF2EF02DFD8221E030E0AE0192
S2140010C04B5F5F4F61E8C801FAD385E08E8321E06D
S2140010D030E0AE014A5F5F4F65E8C801F0D38BEDA4
S2140010E08F8321E030E0AE01495F5F4F62E8C801C0
S2140010F0E6D3F88621E030E0AE01485F5F4F63E854
S214001100C801DDD343E050E0BE016F5F7F4F88E14A
S21400111090E02BD423E030E0AE014F5F5F4F63E9F1
S214001120C801CDD380910122811115C01C8221E017
S21400113030E0AE014C5F5F4F62E9C801C0D3F801F2
S2140011408581811108C060857185828593859801A7
S21400115048E754E035D481E08093012201C080E066
S2140011602B96CDBFDEBFDF91CF911F910F91FF90E1
S214001170EF9008950895CF92DF92EF92FF920F932B
S2140011801F93CF93DF93EC018B016A017901CB01AA
S2140011901AD4888399830C831D83EB86FC8600977C
S2140011A079F0DC019096ED91FC919197B601CE0115
S2140011B01995882329F081E08E831F82188605C042
S2140011C080E092E08F83988780E0DF91CF911F9137
S2140011D00F91FF90EF90DF90CF9008951F93CF93DD
S2140011E0DF93DC011296ED91FC9113970190F0814C
S2140011F0E02D309731F0EA011995182F811108C0BB
S2140012000CC020E032E8FC012783308710E005C0E0
S214001210D3D36C877D878E879F87812FDF91CF9171
S2140012201F910895EF92FF920F931F93CF93DF9332
S214001230CDB7DEB76197CDBFDEBF7B018A01AE01B9
S2140012404F5F5F4F63E0CADF882361F049815A81B0
S2140012506B817C81F70140835183628373839D8118
S214001260F80190836196CDBFDEBFDF91CF911F91CD
S2140012700F91FF90EF900895CF93DF9300D0CDB7F6
S214001280DEB769834A835B83DC011296ED91FC919D
S21400129013970280F381E02D309731F0AE014F5F57
S2140012A05F4F67E1199506C020E032E8FC0127830E
S2140012B0308780E02396CDBFDEBFDF91CF910895C3
S2140012C0EF92FF920F931F93CF93DF931F921F927D
S2140012D0CDB7DEB76D3009F4C5C08C016E3030F482
S2140012E0693071F06A3009F464C0F5C0623109F4FF
S2140012F06AC0663109F4C0C0613109F0ECC00AC0AA
S214001300DC01ED91FC91808D918DFA0180839183B3
S21400131081E0F6C0FC01A281B381A63FFFEFBF07C4
S21400132009F440C051966D917C91529761157105F4
S214001330C9F11D968D919C911E97009799F1FA011F
S214001340E080F180FB0120813181E216F30699F4FA
S21400135007C0339620813181E216F30681F402C07D
S21400136080E090E089839A831296ED91FC91139722
S214001370309751F417C0FB01AC0180E090E0019675
S2140013808417950731F70EC0AE014F5F5F4F61E1DE
S214001390C8011995882331F0D801ED91FC91E08EB3
S2140013A0F18EAEC080E290E0F8018783908780E0FF
S2140013B0A7C0DC01ED91FC91828D938DFA018083AC
S2140013C0918381E09DC0FC01A281B381A63FFFEF1F
S2140013D0BF0709F440C053966D917C9154976115F0
S2140013E07105C9F11F968D919C915097009799F1C0
S2140013F0FA01E080F180FB0120813181E216F306DC
S21400140099F407C0339620813181E216F30681F401
S21400141002C080E090E089839A831296ED91FC9159
S2140014201397309751F417C0FB01AC0180E090E0B1
S21400143001964817590731F70EC0AE014F5F5F4F50
S21400144062E1C8011995882331F0D801ED91FC912D
S214001450E28EF38E55C080E290E0F8018783908795
S21400146080E04EC0DC01ED91FC91848D958DFA01F3
S2140014708083918381E044C0DC011296ED91FC915B
S21400148013970280F381E02D309741F0DA01ED905A
S214001490FC9066E11995811108C00EC080E092E8C4
S2140014A0F8018783908780E02BC0D801ED91FC91EE
S2140014B0E48EF58E81E024C0F80187819085811541
S2140014C09248E9F080E290E0D80117968D939C93BD
S2140014D0189780E015C0D8011296ED91FC911397ED
S2140014E00280F381E02D309719F0C801199508C0E5
S2140014F080E092E8F8018783908780E001C080E072
S2140015000F900F90DF91CF911F910F91FF90EF906A
S21400151008950F931F93CF93DF93CDB7DEB7299728
S214001520CDBFDEBF8C01FE01319689E0DF011D9242
S2140015308A95E9F749835A836B837C839A01AB01CA
S214001540220F331F441F551F60E078E488EE91E0B9
S2140015500E94FE17DA01C9010597A109B1098D831A
S2140015609E83AF83B8870115110509F456C1003C68
S214001570110521F460E180E034D84FC10034B4E0B6
S2140015801B0721F468E080E02CD847C1011584E0F1
S214001590180721F464E080E024D83FC10038A1E0B9
S2140015A01A0721F462E080E01CD837C10115B1E0CB
S2140015B01B0721F461E080E014D82FC1003883E0D7
S2140015C0180721F461E081E00CD827C10039A3E0B8
S2140015D01A0721F461E082E004D81FC10115B2E0C9
S2140015E01B0729F462E081E00E94F10216C1003474
S2140015F082E0180729F462E082E00E94F1020DC141
S2140016000115A3E01A0729F464E081E00E94F102C4
S21400161004C10032B3E01B0729F464E082E00E94B4
S214001620F102FBC0011588E0180729F461E083E0A9
S2140016300E94F102F2C00115A9E01A0729F461E040
S21400164084E00E94F102E9C00115BAE01B0729F404
S21400165061E085E00E94F102E0C001158BE018070A
S21400166029F461E086E00E94F102D7C00034A8E0C9
S2140016701A0729F462E083E00E94F102CEC000342B
S214001680B9E01B0729F462E084E00E94F102C5C0BD
S21400169000348AE0180729F462E085E00E94F1022F
S2140016A0BCC00034ABE01A0729F462E086E00E9472
S2140016B0F102B3C00039B8E01B0729F464E083E008
S2140016C00E94F102AAC0003989E0180729F464E0F4
S2140016D084E00E94F102A1C00039AAE01A0729F4AA
S2140016E064E085E00E94F10298C00039BBE01B0769
S2140016F029F464E086E00E94F1028FC0003C88E096
S214001700180729F468E083E00E94F10286C0003CD6
S214001710A9E01A0729F468E084E00E94F1027DC07F
S214001720003CBAE01B0729F468E085E00E94F1025D
S21400173074C0003C8BE0180729F468E086E00E943D
S214001740F1026BC0003AA8E01A0729F460E183E0D2
S2140017500E94F10262C0003AB9E01B0729F460E17A
S21400176084E00E94F10259C0003A8AE0180729F482
S21400177060E185E00E94F10250C0003AABE01A0733
S21400178029F460E186E00E94F10247C0003BB8E021
S2140017901B0729F460E283E00E94F1023EC0003B92
S2140017A089E0180729F460E284E00E94F10235C05F
S2140017B0003BAAE01A0729F460E285E00E94F102E5
S2140017C02CC0003BBBE01B0729F460E286E00E94C9
S2140017D0F10223C0003884E0180729F460E483E0AF
S2140017E00E94F1021AC00039A4E01A0729F460E446
S2140017F084E00E94F10211C0003AB4E01B0729F40D
S21400180060E485E00E94F10208C0003B84E018070F
S21400181021F460E486E00E94F102BE016F5F7F4F14
S214001820C80119D491E0811190E0892F2996CDBF87
S214001830DEBFDF91CF911F910F910895EF92FF9237
S2140018400F931F93CF93DF93CDB7DEB72B97CDBF04
S214001850DEBF8C01E22EF32EFE0131968BE0DF0117
S2140018601D928A95E9F7D80113968C911397898370
S2140018706A8381E090E08D839E834F835887298713
S2140018803A8716968C9116978B8741E0BF01119682
S2140018908D919C911297F4D3F8018583811103C032
S2140018A08E2D9F2D02C080E090E02B96CDBFDEBF30
S2140018B0DF91CF911F910F91FF90EF900895EF92D7
S2140018C0FF920F931F93CF93DF93CDB7DEB72B977F
S2140018D0CDBFDEBF8C01E22EF32EFE0131968BE0EB
S2140018E0DF011D928A95E9F7D80113968C9113971C
S2140018F089836A8381E090E08D839E834F83588737
S21400190029873A8716968C9116978B8740E0BF01F9
S21400191011968D919C911297B3D3F801858381110E
S21400192003C08E2D9F2D02C080E090E02B96CDBF89
S214001930DEBFDF91CF911F910F91FF90EF9008953A
S2140019400F93CF93DF93DC01EB019A01E0ECF1E01B
S21400195097859923ECF3BD0180E090E001E0AE01AD
S2140019606CD1DF91CF910F910895CF93DF93DC0177
S214001970EB019A01E0ECF1E097859923ECF3BD01C9
S21400198080E090E0AE013CD1DF91CF91089504C095
S21400199061507109810991096115710581059105EB
S2140019A0B9F70895CF93DF93EB01D6D38883DF9101
S2140019B0CF910895C9C3089560E070E0CB01089503
S2140019C00C94130208952091372030913820282354
S2140019D039238217930719F080E090E0089587E294
S2140019E090E208951F93CF93DF93CDB7DEB7279786
S2140019F0CDBFDEBF0E949F026ED040E85AE166E08F
S214001A0070E080EB94E085DD182F80EA98E0809304
S214001A101522909316228AED9CE0809313229093D1
S214001A20142282ED9CE0809311229093122283E090
S214001A308D831E821F8280E092ECA1E0B0E0898355
S214001A409A83AB83BC8360E183E00E94F102BE010F
S214001A506F5F7F4F80EA98E094D460E47DE089E58C
S214001A609DE00E9424196BEA71E184E090E08FDF2C
S214001A70812F2796CDBFDEBFDF91CF911F910895AE
S214001A80CF93DF931F92CDB7DEB78091152290914A
S214001A901622E0911122F0911222BE016F5F7F4F55
S214001AA019958981082E000C990B0F90DF91CF9124
S214001AB00895682F8091152290911622E0911322A6
S214001AC0F0911422199599231CF081E090E0089576
S214001AD08FEF9FEF089543E050E061E080E896E0E6
S214001AE00E94070343E050E062E080E896E00E9430
S214001AF0070343E050E064E080E896E00E940703B6
S214001B0043E050E068E080E896E00E94070343E088
S214001B1050E060E180E896E00E94070343E050E072
S214001B2060E280E896E00E94070343E050E060E44D
S214001B3080E896E00E94070343E050E060E880E813
S214001B4096E00E94070340E058E161E080E696E0F8
S214001B500E94070340E058E162E080E696E00E94BB
S214001B60070340E058E164E080E696E00E94070341
S214001B7040E058E168E080E696E00E94070340E017
S214001B8058E160E180E696E00E94070340E058E1F5
S214001B9060E280E696E00E94070340E058E161E0DC
S214001BA080EE97E00E94070340E058E162E080EE96
S214001BB097E00E94070343E050E068E080E496E088
S214001BC00E94070340E050E064E080E496E00E9454
S214001BD0070343E050E068E080E696E00E940703D3
S214001BE040E050E064E080E696E00E9407030C9434
S214001BF0930208951BBEFC0128ED24BF6083089560
S214001C00EF92FF920F931F93CF93DF937A01890190
S214001C10EB01D170232B51F0BE0181E0B3D0F70168
S214001C2081937F01219601501109B1F7DF91CF9181
S214001C301F910F91FF90EF9008952F923F924F9231
S214001C405F926F927F928F929F92AF92BF92CF9247
S214001C50DF92EF92FF920F931F93CF93DF9300D004
S214001C601F92CDB7DEB74B835C837901302E6B01B4
S214001C70232B09F04FC065C05201332079F0B20122
S214001C8081E080D08983B80181E07CD08A83898115
S214001C909A81019629F02224239402C089829A828E
S214001CA0E114F10409F1AC14BD0479F481E0E81AFA
S214001CB0F108EFEFCE1ADE0AEB81FC818191EB830F
S214001CC0FC838983E114F10479F0C016D10661F42F
S214001CD0F1E0EF1AF1082FEFC21AD20AEB81FC816D
S214001CE08191EB83FC838A8349815A81C301B201C7
S214001CF00F940F00F2E04F0E511C611C711C0E5F1A
S214001D001F4F013022E0120709F0B6CFE114F104AC
S214001D1029F40AC0212C88248A94982C01E010E02B
S214001D20412C512C3201A8CF222059F0E0ECF1E0F2
S214001D3087858823ECF348E160E070E0CB010F94E0
S214001D400000E0ECF1E087858823ECF34AE160E0F0
S214001D5070E0CB010F9400002496CDBFDEBFDF916C
S214001D60CF911F910F91FF90EF90DF90CF90BF9093
S214001D70AF909F908F907F906F905F904F903F9026
S214001D802F9008954091CA01E62FF72F8093CA013D
S214001D9084914093CA010895CF93DF93E091062281
S214001DA0F0910722848183FF08C08860848383E0E3
S214001DB0838386EF8093102283C0982F947131F02E
S214001DC083E083838FEF809310227AC086FF43C020
S214001DD0C6E0D2E2AA81BB818C819D8114962D91AA
S214001DE03C911597821793076CF49C012F5F3F4F29
S214001DF020930A2230930B22A80FB91F11968C91BC
S214001E0087835EC080910C2290910D2218962D91AA
S214001E103C91199782179307C8F420910E2222232B
S214001E2021F08681816086834BC016962D913C9169
S214001E301797AC014F5F5F4F40930C2250930D22D3
S214001E40D901A80FB91F8C9187833AC083E083839A
S214001E501092102235C0882384F5A6E0B2E21296CE
S214001E60CD91DC91139716968D919C9117972885A6
S214001E70398582179307D8F46E817F819C012F5F86
S214001E803F4F20930C2230930D224781DB01A80F91
S214001E90B91F4C93888599852817390718F482E06E
S214001EA083830EC087E083831092102209C083E0EC
S214001EB0838389EF8093102203C08BEF80931022D8
S214001EC0DF91CF9108951F920F920FB60F921124B3
S214001ED008B60F9218BE09B60F9219BE0BB60F922F
S214001EE01BBE2F933F934F935F936F937F938F9376
S214001EF09F93AF93BF93EF93FF934EDFFF91EF91C6
S214001F00BF91AF919F918F917F916F915F914F910C
S214001F103F912F910F900BBE0F9009BE0F9008BEF9
S214001F200F900FBE0F901F9018951F920F920FB62E
S214001F300F92112408B60F9218BE09B60F9219BE5A
S214001F400BB60F921BBE2F933F934F935F936F93E7
S214001F507F938F939F93AF93BF93EF93FF931CDF73
S214001F60FF91EF91BF91AF919F918F917F916F916C
S214001F705F914F913F912F910F900BBE0F9009BE2E
S214001F800F9008BE0F900FBE0F901F9018951F92CF
S214001F900F920FB60F92112408B60F9218BE09B60C
S214001FA00F9219BE0BB60F921BBE2F933F934F9303
S214001FB05F936F937F938F939F93AF93BF93EF93AC
S214001FC0FF93EADEFF91EF91BF91AF919F918F91C2
S214001FD07F916F915F914F913F912F910F900BBE24
S214001FE00F9009BE0F9008BE0F900FBE0F901F9067
S214001FF018951F920F920FB60F92112408B60F92E3
S21400200018BE09B60F9219BE0BB60F921BBE2F93C1
S2140020103F934F935F936F937F938F939F93AF936B
S214002020BF93EF93FF93B8DEFF91EF91BF91AF910F
S2140020309F918F917F916F915F914F913F912F91DB
S2140020400F900BBE0F9009BE0F9008BE0F900FBEEC
S2140020500F901F901895FC01DB0114968C918583D8
S21400206088EB818381E08483E6E0F2E211861286C3
S214002070E0EAF0E0828182608283789480E00895CE
S214002080CF93DF931F92CDB7DEB79C01FB01892B60
S21400209009F451C0309709F450C0928580910F2200
S2140020A0882319F09923F1F34AC08FB78983F894EF
S2140020B08981A6E0B2E291E019969C93199790E880
S2140020C01A969C931A978FBF2D933C93119712964E
S2140020D06D937C93139714961D921C9215971696E3
S2140020E01D921C92179718964C938081880F6481D6
S2140020F07581672B11F4411103C0F901868303C073
S2140021008160F9018683E6E0F2E292859038E9F391
S214002110F90184818370813049F0A6E0B2E2ED9146
S214002120FC911197848183708130C9F7E6E0F2E272
S2140021308285118605C088EF03C088EF01C086EF50
S2140021400F90DF91CF910895FC01918195FFFDCF0F
S214002150608380E090E00895FC0191819923ECF77C
S214002160808108954F925F926F927F928F929F9296
S214002170AF92BF92EF92FF920F931F93CF937C0183
S2140021804A015B0128013901FC01848182FF16C0E7
S214002190D901C801689412F8B695A79597958795C2
S2140021A01694D1F7B901A801032E36E17695679506
S2140021B0579547953A95D1F7302D15C0D901C801E6
S2140021C0689413F8B695A795979587951694D1F7C2
S2140021D0B901A801032E37E176956795579547957F
S2140021E03A95D1F7302D88159905AA05BB0508F450
S2140021F0A2C084169506A606B70608F49EC0F70188
S214002200848182FD04C0880C991CAA1CBB1CC301D7
S214002210B201A5019401F2D62F3F310541055105C3
S21400222008F48DC08FEF90E0A0E0B0E0C9EF05C0E5
S214002230281739074A075B0758F0880F991FAA1F07
S214002240BB1FCD3F0CF48160CF5FC73089F74DC010
S214002250CC230CF04AC0D501C401880F991FAA1FD1
S214002260BB1F880F991FAA1FBB1F880F991FAA1F85
S214002270BB1F481A590A6A0A7B0ACE3FECF48DEF58
S2140022809FEF8C1B9109C7FD939504C0440C551C09
S214002290661C771C8A95D2F7D501C401B695A7951A
S2140022A097958795BC01CD01640D751D861D971DFC
S2140022B0A5019401A3D635C083E08C0FA501940137
S2140022C004C0220F331F441F551F8A95D2F7DA0128
S2140022D0C901B695A79597958795BC01CD01640D64
S2140022E0751D861D971D8AD61CC083E08C0FA50120
S2140022F0940104C0220F331F441F551F8A95D2F73E
S214002300DA01C901B695A79597958795BC01CD01C9
S214002310640D751D861D971D71D621503109410922
S2140023205109832F8F70C295C07FC82BF701C783D2
S214002330268381E018C080E016C080E014C0D50176
S214002340C401880F991FAA1FBB1F880F991FAA1FB9
S214002350BB1F880F991FAA1FBB1F481A590A6A0A73
S2140023607B0AC9EF8CCFCF911F910F91FF90EF9012
S214002370BF90AF909F908F907F906F905F904F90A0
S21400238008950F931F93CF93DF93EC018B01009773
S21400239009F45DC1803C910529F460E180E00E946B
S2140023A0F10255C1C03484E0D80729F468E080E023
S2140023B00E94F1024CC1C115E4E0DE0729F464E096
S2140023C080E00E94F10243C1C038F1E0DF0729F443
S2140023D062E080E00E94F1023AC1C11581E0D807B0
S2140023E029F461E080E00E94F10231C1C038E3E0E8
S2140023F0DE0729F461E081E00E94F10228C1C039BD
S214002400F3E0DF0729F461E082E00E94F1021FC1D9
S214002410C11582E0D80729F462E081E00E94F1024B
S21400242016C1C034E2E0DE0729F462E082E00E94D2
S214002430F1020DC1C115F3E0DF0729F464E081E085
S2140024400E94F10204C1C03283E0D80729F464E098
S21400245082E00E94F102FBC0C115E8E0DE0729F425
S21400246061E083E00E94F102F2C0C115F9E0DF07E7
S21400247029F461E084E00E94F102E9C0C1158AE017
S214002480D80729F461E085E00E94F102E0C0C1159A
S214002490EBE0DE0729F461E086E00E94F102D7C097
S2140024A0C034F8E0DF0729F462E083E00E94F1021E
S2140024B0CEC0C03489E0D80729F462E084E00E94E8
S2140024C0F102C5C0C034EAE0DE0729F462E085E028
S2140024D00E94F102BCC0C034FBE0DF0729F462E0D2
S2140024E086E00E94F102B3C0C03988E0D80729F41C
S2140024F064E083E00E94F102AAC0C039E9E0DE078A
S21400250029F464E084E00E94F102A1C0C039FAE038
S214002510DF0729F464E085E00E94F10298C0C03924
S2140025208BE0D80729F464E086E00E94F1028FC0B1
S214002530C03CE8E0DE0729F468E083E00E94F10290
S21400254086C0C03CF9E0DF0729F468E084E00E941A
S214002550F1027DC0C03C8AE0D80729F468E085E037
S2140025600E94F10274C0C03CEBE0DE0729F468E08C
S21400257086E00E94F1026BC0C03AF8E0DF0729F45B
S21400258060E183E00E94F10262C0C03A89E0D807A9
S21400259029F460E184E00E94F10259C0C03AEAE002
S2140025A0DE0729F460E185E00E94F10250C0C03ADF
S2140025B0FBE0DF0729F460E186E00E94F10247C0F5
S2140025C0C03B88E0D80729F460E283E00E94F1026D
S2140025D03EC0C03BE9E0DE0729F460E284E00E94EA
S2140025E0F10235C0C03BFAE0DF0729F460E285E07F
S2140025F00E94F1022CC0C03B8BE0D80729F460E2B1
S21400260086E00E94F10223C0C038E4E0DE0729F429
S21400261060E483E00E94F1021AC0C039F4E0DF07EC
S21400262029F460E484E00E94F10211C0C03A84E01C
S214002630D80729F460E485E00E94F10208C0C03B98
S214002640E4E0DE0721F460E486E00E94F1028D817A
S2140026508F738D83F80195818481892B96819111E2
S21400266098E0892B8D83F8014081518162817381C6
S21400267000E018E428EE31E0CE0174DD9C8198601D
S2140026809C839C8190619C83DF91CF911F910F91D9
S214002690089504C061507109810991096115710599
S2140026A081059105B9F70895CF93DF93CDB7DEB7CF
S2140026B0A397CDBFDEBF96D920E030E040E050E0E3
S2140026C060E270E0CE0101960E94BB0820E030E098
S2140026D040E050E060E071E0CE010E960E94BB083C
S2140026E088859985892B21F48D899E89892B21F0EF
S2140026F08FEE90E242D6FFCFAE014D5D5F4FBE013A
S214002700655E7F4FCE0101960E941209AE014F5DB5
S2140027105F4F6AE0CE0101960E946009AE01415EFD
S2140027205F4F69E0CE0101960E94600988A18F93F1
S2140027308F8D8F938AA18F9389A18F938BA11F92E0
S2140027408F938C8D8F938B8D8F93EB81FC81808DF7
S2140027508F9387898F930DE011E21F930F93FAD51D
S214002760AE014D5D5F4FBE01655E7F4FCE010E969A
S2140027700E941209AE014F5D5F4F6AE0CE010E96D1
S2140027800E946009AE01415E5F4F69E0CE010E9681
S2140027900E94600988A18F938F8D8F938AA18F9353
S2140027A089A18F938BA11F928F938C8D8F938B8D86
S2140027B08F93E889F989808D8F9387898F931F93EC
S2140027C00F93C8D56BEA70EB88E290E062DF8AE090
S2140027D090E089A39AA3AE014F5D5F4F66E1CE01FC
S2140027E001960E946009CDBFDEBF811103C08FE451
S2140027F091E2C3D58AE090E08F8F98A3AE01415E48
S2140028005F4F66E1CE010E960E946009811103C0FB
S21400281088E791E2B2D58FEF9FEF8F8B988F44E6D3
S21400282050E06AE0CE010E960E943C0982E390E0FA
S2140028308B8F9C8FAE01455E5F4F64E1CE010E9696
S2140028400E9460090F2EF0E8CF2EF6E0DF2EF02D66
S2140028506894BB24B1F80F2EF5EAEF2EF1E2FF2EB6
S214002860F02D05EB11E2F601B7824AE550E265E08D
S214002870CE0101960E94EE0849E450E267E0CE01E0
S2140028800E960E94EE08EAE5F0E281818F93808141
S2140028908F93FF92EF925ED5A9E4B0E21896ED9181
S2140028A0FC911997EE0FFF1FE651FE4D81818F9325
S2140028B080818F931496ED91FC911597EE0FFF1F74
S2140028C0E651FE4D81818F9380818F93ED91FC912F
S2140028D0EE0FFF1FE651FE4D81818F9380818F930F
S2140028E01F930F9337D56BEA70EB88E290E0D1DE4A
S2140028F0CDBFDEBFB8CF2F923F924F925F926F92BE
S2140029007F928F929F92AF92BF92CF92DF92EF927A
S214002910FF920F931F93CF93DF93CDB7DEB76097E9
S214002920CDBFDEBF7C011B016A01FC011682178247
S214002930838181FF2AC39E012F5F3F4F3901F70134
S2140029409381F10193FD859193FF81911F01882367
S21400295009F417C3853239F493FD859193FF81916D
S2140029601F01853231F4B70190E0B8D456016501F5
S214002970E6CF10E0512C912CFFE1F915D8F08B3200
S21400298079F038F4803279F08332A1F4F92DF061D1
S2140029902EC08D3261F0803369F4292D21602DC060
S2140029A0392D3260932E892D8460982E2AC0E92D09
S2140029B0E86015C097FC2DC020ED280F2A3088F45B
S2140029C096FE06C03AE0139F200D1124122F19C060
S2140029D08AE0589E200D1124522EE92DE0629E2E8C
S2140029E010C08E3231F496FCCCC2F92DF0649F2EC6
S2140029F008C08C3621F4292D2068922E02C0883615
S214002A0041F4F10193FD859193FF81911F0181119E
S214002A10B3CF9BEB980F933020F4992D9061805E96
S214002A2007C09BE9980F933008F059C1992D9F7EF7
S214002A3096FF16E09F73992E853619F49064992EAA
S214002A4008C0863621F4392F3068932E02C0111143
S214002A50115097FE07C01C3350F444244394410E93
S214002A6027E00BC0183038F027E017E005C027E055
S214002A709CE3492E02C0212F412C560184E0A80E6B
S214002A80B11CF6016081718182819381042DA301BE
S214002A90E0D26C01F981FC87F0FF02C0F3FF06C0AC
S214002AA091FC06C092FE06C000E205C00DE203C01F
S214002AB00BE201C000E08C858C7019F0011143C256
S214002AC080C297FE10C04C0CFC85F4FF04C08A81BF
S214002AD0813309F44A94141474F528E0241578F523
S214002AE088E0482E2CC096FC2AC0812F90E08C15DA
S214002AF09D059CF03CEFC3163FEFD30674F0892D7E
S214002B008068982E0AC0E2E0F0E0EC0FFD1FE10FAF
S214002B10F11D8081803319F411501111F4CF97FE06
S214002B200EC044244394410E812F90E0C816D90667
S214002B302CF41C1904C04424439401C010E097FEF2
S214002B4006C01C141D0434F4C601019605C085E0B9
S214002B5090E002C081E090E001110196112331F06F
S214002B60212F30E02F5F3F4F820F931F252D30E03F
S214002B708217930714F4581A01C0512C892D8970B6
S214002B8041F4552031F0B70180E290E0A7D35A9483
S214002B90F8CF002321F0B701802F90E09FD393FC5D
S214002BA008C0552031F0B70180E390E097D35A94DF
S214002BB0F8CF97FE4AC04601D7FE02C0812C912C62
S214002BC0C60188199909F301E80FF91FED87FE87FA
S214002BD09601241931092F87388B012F10E01195A3
S214002BE0019511093FEF8316930621F4B7018EE293
S214002BF090E074D3C814D9044CF08F859889881552
S214002C00990524F4ED85FE85818101C080E3F1E01D
S214002C108F1A91082D853E852F5F3F4F2D873E8763
S214002C208016910624F0B70190E058D3DBCFC81485
S214002C30D90441F49A81963320F4953319F43C85EF
S214002C4034FF81E3B70190E048C08A81813319F0F0
S214002C509C859F7E9C87B70190E040D3111105C0EC
S214002C6094FC16C085E690E015C0B7018EE290E0B1
S214002C7035D31E5F82E001E0080FF301E80FF11D77
S214002C808081B70190E02AD3802F0113F4CFE8CFDC
S214002C9085E490E0B70122D3D7FC06C0C114D10466
S214002CA041F4EC85E4FF05C0D194C194D1088DE2CF
S214002CB001C08BE2B70190E011D380E32AE0C21690
S214002CC0D1042CF08F5FFAE0CF1AD108F7CFB70106
S214002CD090E004D3B701C601C09600D349C183363D
S214002CE031F0833779F0833509F052C01FC05601A2
S214002CF032E0A30EB11CF6018081898301E010E06A
S214002D00630111C05601F2E0AF0EB11CF601C0809F
S214002D10D18096FE03C0612F70E002C06FEF7FEF98
S214002D20C60187D28C01F92DFF7713C0560122E029
S214002D30A20EB11CF601C080D18096FE03C0612FA2
S214002D4070E002C06FEF7FEFC6015BD28C01F92DF9
S214002D50F0689F2EF3FD18C0852D90E00817190720
S214002D6098F4B70180E290E0B9D25A94F5CFF60114
S214002D7097FC859197FE81916F01B70190E0AED2E6
S214002D8051105A94015011090115110581F7F0C030
S214002D90843611F0893659F5560197FE09C024E0AD
S214002DA0A20EB11CF60160817181828193810AC0F6
S214002DB0F2E0AF0EB11CF60160817181072E000CA7
S214002DC0880B990BF92DFF769F2E97FF09C09095DB
S214002DD08095709561957F4F8F4F9F4FF0689F2E1F
S214002DE02AE030E0A301F9D2C82EC6183EC0092D4D
S214002DF0853721F40F7E2AE030E01DC0097F8F362C
S214002E0091F018F4883559F0BCC0803719F088372F
S214002E1011F0B7C0006104FF09C0046007C094FE4B
S214002E2008C0066006C028E030E005C020E130E0BB
S214002E3002C020E132E0560107FF09C084E0A80E78
S214002E40B11CF601608171818281938108C0F2E035
S214002E50AF0EB11CF6016081718180E090E0A301A5
S214002E60BCD2C82EC6180F77902E96FE0BC0092D22
S214002E700E7FC11650F494FE0AC092FC08C0092DBD
S214002E800E7E05C0DC2C092D03C0DC2C01C0D12E23
S214002E9004FF0DC0FE01EC0DF11D8081803311F49E
S214002EA0097E09C002FF06C0D394D39404C0802FC5
S214002EB0867809F0D39403FD10C000FF06C01C2DD1
S214002EC0D51478F4150D1D190CC0D51450F4B7019F
S214002ED080E290E003D2D394F8CFD51410F45D18B6
S214002EE001C0512C04FF0FC0B70180E390E0F6D17B
S214002EF002FF16C001FD03C088E790E002C088E527
S214002F0090E0B7010CC0802F867851F001FF02C018
S214002F108BE201C080E207FD8DE2B70190E0DED1D2
S214002F20C11630F4B70180E390E0D8D11150F8CF45
S214002F30CA94F301EC0DF11D8081B70190E0CED16B
S214002F40C110F6CF15C0F4E0F51550F584E0581A18
S214002F5093FE1EC0011125C02C8523FF27C000E16B
S214002F6012E0392D3071932EF8018491811121C021
S214002F70552009F4FCCCB70180E290E0AFD15A941A
S214002F80F7CFF7018681978123C08FEF9FEF20C090
S214002F90B70180E290E0A2D15A945110F9CFDACF6F
S214002FA0512CB701802F90E099D1D6CF04E112E0E2
S214002FB0D8CF91108052B70190E090D10F5F1F4F8D
S214002FC0D3CF23E0251510F483E0C1CF512CC4CF16
S214002FD06096CDBFDEBFDF91CF911F910F91FF901E
S214002FE0EF90DF90CF90BF90AF909F908F907F90A4
S214002FF06F905F904F903F902F900895A1E21A2E09
S214003000AA1BBB1BFD010DC0AA1FBB1FEE1FFF1F87
S214003010A217B307E407F50720F0A21BB30BE40BD7
S214003020F50B661F771F881F991F1A9469F760951E
S2140030307095809590959B01AC01BD01CF010895D8
S214003040EE0FFF1F881F8BBF0790F691E02D1BBE6B
S2140030501994283008F027E03327DA01990F311D3C
S21400306087FD916000966105710539F432602E5F28
S2140030703D9330E32A95E1F708959F3F30F080387E
S2140030807105610509F03C5F3C5F3D93913008F0A7
S2140030908068911DDF93CF931F930F93FF92EF925B
S2140030A0192F987F9695E92F96959695E90FFF2705
S2140030B0EE58FD4F99273327EE24FF24A701E7019A
S2140030C005900894079428F4360FE71EF81E491F4B
S2140030D0511D660F771F881F991F0694A1F705904C
S2140030E0079428F4E70EF81E491F561FC11D770FD8
S2140030F0881F991F661F0694A1F70590079428F469
S214003100F80E491F561FC71FD11D880F991F661F2F
S214003110771F0694A1F70590079420F4490F561FD1
S214003120C71FD81F990F661F771F881F0694A9F719
S21400313084911095177041F0D695C7955795479589
S214003140F794E7941A95C1F7E8E1F2E068941590D1
S214003150159135916591959105907FE27395E118EB
S214003160F10A430B560BC90BD009C0F7E10CF11E50
S214003170431F561FC91FD01D7EF4703311F48A9565
S214003180E6CFE894015030F0080F0AF40027021743
S21400319008F4202F2395022F7A3328F079E37D93C5
S2140031A02A95E9F710C07D932A9589F60694979597
S2140031B06795379517951794E118F10A430B560B48
S2140031C0C90BD00998F023957E9173957A3308F051
S2140031D070E37C932013B8F77E9170617D9330F096
S2140031E0839571E37D9370E32A95E1F71124EF90C0
S2140031F0FF900F911F91CF91DF91992787FD9095B2
S2140032000895FC010590615070400110D8F7809534
S21400321090958E0F9F1F0895FB01DC0104C08D91D1
S2140032200190801921F441505040C8F7881B990B33
S2140032300895FC016150704001900110D8F7809508
S21400324090958E0F9F1F08950F931F93CF93DF9334
S214003250009731F46115710519F480E090E039C0EB
S2140032608B01EC016EE070E081E090E014D1FC018F
S214003270892B99F380E883830115110571F0028785
S214003280138781E883838091172290911822892BD7
S21400329021F4E0931722F09318222097C9F0C087F4
S2140032A0D1878381826083838091192290911A222C
S2140032B0892B71F4E0931922F0931A2280911B2235
S2140032C090911C22892B21F4E0931B22F0931C2260
S2140032D0CF01DF91CF911F910F9108950F931F9308
S2140032E0CF93DF93FB01238121FD03C08FEF9FEF78
S2140032F02CC022FF16C04681578124813581421793
S214003300530744F4A081B1819D012F5F3F4F208376
S21400331031838C93268137812F5F3F4F26833783F7
S21400332014C08B01EC01FB010084F185E02D19959A
S214003330892BE1F6D80116968D919C9117970196E8
S21400334016968D939C931797CE01DF91CF911F9180
S2140033500F910895CF93DF93CDB7DEB7AE014A5FE6
S2140033605F4FFA0161917191AF018091192290919E
S2140033701A22C1DADF91CF9108950F931F93CF934E
S214003380DF93E0911922F0911A22238121FF1BC0BE
S2140033908C01D0E0C0E0F80181918F016091192284
S2140033A070911A22DB011896ED91FC9119978823EB
S2140033B031F01995892B79F3DFEFCFEFECCF8AE068
S2140033C01995892B19F08FEF9FEF02C08D2F9C2F38
S2140033D0DF91CF911F910F910895FA01AA27283007
S2140033E051F1203181F1E8946F936E7F6E5F7F4FCD
S2140033F08F4F9F4FAF4FB1E03ED0B4E03CD0670F49
S214003400781F891F9A1FA11D680F791F8A1F911D9B
S214003410A11D6A0F711D811D911DA11D20D009F4EB
S21400342068943F912AE0269F11243019305D31932D
S214003430DEF6CF010895462F4770405D4193B3E016
S2140034400FD0C9F7F6CF462F4F70405D4A3318F0BD
S214003450495D31FD4052419302D0A9F7EACFB4E06E
S214003460A6959795879577956795BA95C9F7009726
S2140034706105710508959B01AC010A2E06945795C7
S214003480479537952795BA95C9F7620F731F841F1E
S214003490951FA01D08950F931F93CF93DF93869FCC
S2140034A08001879F100D969F100D1124C8010DD026
S2140034B0EC01009721F0A80160E070E027D1CE0172
S2140034C0DF91CF911F910F9108950F931F93CF9384
S2140034D0DF938230910510F482E090E0E0911F22A5
S2140034E0F091202220E030E0A0E0B0E0309719F123
S2140034F0408151810281138148175907C8F084170B
S214003500950769F4109731F012960C93129713965C
S2140035101C9327C000931F221093202222C021153F
S214003520310519F04217530718F49A01BD01EF014F
S214003530DF01F801DBCF21153105F9F0281B390B27
S2140035402430310580F48A819B816115710521F054
S214003550FB018283938304C080931F2290932022D2
S214003560FE01329644C0FE01E20FF31F8193919351
S21400357022503109288339833AC020911D22309188
S2140035801E22232B41F42091022030910320209309
S2140035901D2230931E2220910020309101202115FB
S2140035A0310541F42DB73EB74091042050910520D7
S2140035B0241B350BE0911D22F0911E22E217F30723
S2140035C0A0F42E1B3F0B2817390778F0AC014E5F8E
S2140035D05F4F2417350748F04E0F5F1F40931D229C
S2140035E050931E228193919302C0E0E0F0E0CF0159
S2140035F0DF91CF911F910F910895CF93DF9300979E
S21400360009F481C0FC01329712821382A0911F2216
S214003610B0912022109781F420813181820F931F70
S21400362020911D2230911E222817390751F5E0936C
S2140036301D22F0931E2267C0ED0120E030E0CE1779
S214003640DF0740F44A815B819E0141155105F1F088
S214003650EA01F5CFC283D38340815181840F951F41
S214003660C817D90759F488819981840F951F029647
S214003670808391838A819B81828393832115310580
S21400368029F4E0931F22F09320223DC0E901EA834B
S214003690FB8349915991C40FD51FEC17FD0761F4C0
S2140036A080819181840F951F0296E9018883998312
S2140036B0828193818A839B83E0E0F0E012968D916D
S2140036C09C911397009719F0FD01DC01F7CF8D91BF
S2140036D09C9111979D012E5F3F4F820F931F209163
S2140036E01D2230911E222817390769F4309729F4D5
S2140036F010921F221092202202C012821382A093E0
S2140037001D22B0931E22DF91CF910895DC0101C0E7
S2120037106D9341505040E0F70895F894FFCFB7
S21400371E0000212220000000000000000000000033
S21400372E0000000000000000000001BA080000BA09
S21400373E080000BA08000001B00438000000002A95
S21400374E000000FFFF00002001FF00FF00FF00004A
S21400375E0000000000000005080000000000000049
S21400376E0000000000000000000100000000000045
S21400377E00000000000000000000015346483737E6
S21400378E373020416D6269656E74204C69676874C7
S21400379E20262050726F78696D6974792053656E95
S2140037AE736F7200C20356052E03810700000000D9
S2140037BE09000000000000000003006B2000000956
S2140037CE0100080200070500060A00050E00041494
S2140037DE0003210002320001640000000004010014
S2140037EE030200020500010A00000500000A00019F
S2140037FE140002320003640004960005C800060D8D
S21400380E53656E736F7220696E697469616C697A3E
S21400381E6174696F6E206572726F722E0025730D5D
S21400382E0A4944203D20307825303278207665725D
S21400383E2E203078253032780D0A42616E64776914
S21400384E647468203D20256420487A202052616EDC
S21400385E6765203D202B2F2D2025640D0A0A004576
S21400386E72726F722073657474696E67206C696706
S21400387E68742073656E736F722073616D706C65FD
S21400388E20726174652E0D004572726F722073651C
S21400389E7474696E672070726F78696D69747920BA
S2140038AE73656E736F722073616D706C65207261D6
S2140038BE74652E0D006C69676874203D205B253597
S2140038CE645D0D0A0070726F7820203D20313A2517
S2140038DE7320323A257320333A25730D0A006E6F25
S2140038EE6E65202000464152202020004D4544495A
S2140038FE554D004E454152202000CE21D521DC21CB
S20600390EE321AE
S2140200009BB78BBFFB018091CA014093CA017DE971
S21402001070933400E8958093CA019BBF089520919F
S214020020CF0127FDFCCF9BB78BBFFB018091CA0196
S21402003023E22093CA010A01E89511248093CA019B
S2080200409BBF0895BE
S804000000FB
